{
  "contractName": "AccessControl",
  "abi": [
    {
      "inputs": [],
      "stateMutability": "nonpayable",
      "type": "constructor"
    },
    {
      "anonymous": false,
      "inputs": [
        {
          "indexed": true,
          "internalType": "bytes4",
          "name": "role",
          "type": "bytes4"
        },
        {
          "indexed": true,
          "internalType": "bytes4",
          "name": "newAdminRole",
          "type": "bytes4"
        }
      ],
      "name": "RoleAdminChanged",
      "type": "event"
    },
    {
      "anonymous": false,
      "inputs": [
        {
          "indexed": true,
          "internalType": "bytes4",
          "name": "role",
          "type": "bytes4"
        },
        {
          "indexed": true,
          "internalType": "address",
          "name": "account",
          "type": "address"
        },
        {
          "indexed": true,
          "internalType": "address",
          "name": "sender",
          "type": "address"
        }
      ],
      "name": "RoleGranted",
      "type": "event"
    },
    {
      "anonymous": false,
      "inputs": [
        {
          "indexed": true,
          "internalType": "bytes4",
          "name": "role",
          "type": "bytes4"
        },
        {
          "indexed": true,
          "internalType": "address",
          "name": "account",
          "type": "address"
        },
        {
          "indexed": true,
          "internalType": "address",
          "name": "sender",
          "type": "address"
        }
      ],
      "name": "RoleRevoked",
      "type": "event"
    },
    {
      "inputs": [],
      "name": "LOCK",
      "outputs": [
        {
          "internalType": "bytes4",
          "name": "",
          "type": "bytes4"
        }
      ],
      "stateMutability": "view",
      "type": "function"
    },
    {
      "inputs": [],
      "name": "ROOT",
      "outputs": [
        {
          "internalType": "bytes4",
          "name": "",
          "type": "bytes4"
        }
      ],
      "stateMutability": "view",
      "type": "function"
    },
    {
      "inputs": [
        {
          "internalType": "bytes4",
          "name": "role",
          "type": "bytes4"
        },
        {
          "internalType": "address",
          "name": "account",
          "type": "address"
        }
      ],
      "name": "hasRole",
      "outputs": [
        {
          "internalType": "bool",
          "name": "",
          "type": "bool"
        }
      ],
      "stateMutability": "view",
      "type": "function"
    },
    {
      "inputs": [
        {
          "internalType": "bytes4",
          "name": "role",
          "type": "bytes4"
        }
      ],
      "name": "getRoleAdmin",
      "outputs": [
        {
          "internalType": "bytes4",
          "name": "",
          "type": "bytes4"
        }
      ],
      "stateMutability": "view",
      "type": "function"
    },
    {
      "inputs": [
        {
          "internalType": "bytes4",
          "name": "role",
          "type": "bytes4"
        },
        {
          "internalType": "bytes4",
          "name": "adminRole",
          "type": "bytes4"
        }
      ],
      "name": "setRoleAdmin",
      "outputs": [],
      "stateMutability": "nonpayable",
      "type": "function"
    },
    {
      "inputs": [
        {
          "internalType": "bytes4",
          "name": "role",
          "type": "bytes4"
        },
        {
          "internalType": "address",
          "name": "account",
          "type": "address"
        }
      ],
      "name": "grantRole",
      "outputs": [],
      "stateMutability": "nonpayable",
      "type": "function"
    },
    {
      "inputs": [
        {
          "internalType": "bytes4[]",
          "name": "roles",
          "type": "bytes4[]"
        },
        {
          "internalType": "address",
          "name": "account",
          "type": "address"
        }
      ],
      "name": "grantRoles",
      "outputs": [],
      "stateMutability": "nonpayable",
      "type": "function"
    },
    {
      "inputs": [
        {
          "internalType": "bytes4",
          "name": "role",
          "type": "bytes4"
        }
      ],
      "name": "lockRole",
      "outputs": [],
      "stateMutability": "nonpayable",
      "type": "function"
    },
    {
      "inputs": [
        {
          "internalType": "bytes4",
          "name": "role",
          "type": "bytes4"
        },
        {
          "internalType": "address",
          "name": "account",
          "type": "address"
        }
      ],
      "name": "revokeRole",
      "outputs": [],
      "stateMutability": "nonpayable",
      "type": "function"
    },
    {
      "inputs": [
        {
          "internalType": "bytes4[]",
          "name": "roles",
          "type": "bytes4[]"
        },
        {
          "internalType": "address",
          "name": "account",
          "type": "address"
        }
      ],
      "name": "revokeRoles",
      "outputs": [],
      "stateMutability": "nonpayable",
      "type": "function"
    },
    {
      "inputs": [
        {
          "internalType": "bytes4",
          "name": "role",
          "type": "bytes4"
        },
        {
          "internalType": "address",
          "name": "account",
          "type": "address"
        }
      ],
      "name": "renounceRole",
      "outputs": [],
      "stateMutability": "nonpayable",
      "type": "function"
    }
  ],
  "bytecode": "0x608060405234801561001057600080fd5b50610025600060e01b3361004860201b60201c565b61004363ffffffff60e01b63ffffffff60e01b61018460201b60201c565b6103c9565b61005882826102b760201b60201c565b610180576001600080847bffffffffffffffffffffffffffffffffffffffffffffffffffffffff19167bffffffffffffffffffffffffffffffffffffffffffffffffffffffff1916815260200190815260200160002060000160008373ffffffffffffffffffffffffffffffffffffffff1673ffffffffffffffffffffffffffffffffffffffff16815260200190815260200160002060006101000a81548160ff0219169083151502179055503373ffffffffffffffffffffffffffffffffffffffff168173ffffffffffffffffffffffffffffffffffffffff16837bffffffffffffffffffffffffffffffffffffffffffffffffffffffff19167fe6231789d19137da31d0550f4ba9ee379020a8cfb64cb79bf1790c996d2e616560405160405180910390a45b5050565b807bffffffffffffffffffffffffffffffffffffffffffffffffffffffff19166101b38361035f60201b60201c565b7bffffffffffffffffffffffffffffffffffffffffffffffffffffffff1916146102b35780600080847bffffffffffffffffffffffffffffffffffffffffffffffffffffffff19167bffffffffffffffffffffffffffffffffffffffffffffffffffffffff1916815260200190815260200160002060010160006101000a81548163ffffffff021916908360e01c0217905550807bffffffffffffffffffffffffffffffffffffffffffffffffffffffff1916827bffffffffffffffffffffffffffffffffffffffffffffffffffffffff19167fd348e2220a50b4500ec353f6e802d2f14dd1b5d6786148fd1bbcc570bf92d47360405160405180910390a35b5050565b6000806000847bffffffffffffffffffffffffffffffffffffffffffffffffffffffff19167bffffffffffffffffffffffffffffffffffffffffffffffffffffffff1916815260200190815260200160002060000160008373ffffffffffffffffffffffffffffffffffffffff1673ffffffffffffffffffffffffffffffffffffffff16815260200190815260200160002060009054906101000a900460ff16905092915050565b6000806000837bffffffffffffffffffffffffffffffffffffffffffffffffffffffff19167bffffffffffffffffffffffffffffffffffffffffffffffffffffffff1916815260200190815260200160002060010160009054906101000a900460e01b9050919050565b610fad806103d86000396000f3fe608060405234801561001057600080fd5b50600436106100a95760003560e01c8063687f0e4c11610071578063687f0e4c14610164578063a4f0d7d014610180578063ad82110f1461019e578063ae93c1b5146101ba578063de02cde7146101d6578063effae353146101f2576100a9565b806310ab9432146100ae57806344faded0146100de578063559742d9146100fa5780635909c12f146101165780635ba5e9f014610134575b600080fd5b6100c860048036038101906100c39190610c34565b61020e565b6040516100d59190610d4a565b60405180910390f35b6100f860048036038101906100f39190610c34565b610222565b005b610114600480360381019061010f9190610c0b565b610283565b005b61011e6102ea565b60405161012b9190610d65565b60405180910390f35b61014e60048036038101906101499190610c0b565b6102f2565b60405161015b9190610d65565b60405180910390f35b61017e60048036038101906101799190610c34565b610304565b005b610188610380565b6040516101959190610d65565b60405180910390f35b6101b860048036038101906101b39190610bb7565b61038b565b005b6101d460048036038101906101cf9190610c70565b61048a565b005b6101f060048036038101906101eb9190610c34565b6104eb565b005b61020c60048036038101906102079190610bb7565b61054c565b005b600061021a838361064b565b905092915050565b8161023561022f826106f3565b3361064b565b610274576040517f08c379a000000000000000000000000000000000000000000000000000000000815260040161026b90610d80565b60405180910390fd5b61027e838361075d565b505050565b80610296610290826106f3565b3361064b565b6102d5576040517f08c379a00000000000000000000000000000000000000000000000000000000081526004016102cc90610d80565b60405180910390fd5b6102e68263ffffffff60e01b610894565b5050565b600060e01b81565b60006102fd826106f3565b9050919050565b3373ffffffffffffffffffffffffffffffffffffffff168173ffffffffffffffffffffffffffffffffffffffff1614610372576040517f08c379a000000000000000000000000000000000000000000000000000000000815260040161036990610da0565b60405180910390fd5b61037c828261075d565b5050565b63ffffffff60e01b81565b60005b8251811015610485576103e96103e38483815181106103d6577f4e487b7100000000000000000000000000000000000000000000000000000000600052603260045260246000fd5b60200260200101516106f3565b3361064b565b610428576040517f08c379a000000000000000000000000000000000000000000000000000000000815260040161041f90610d80565b60405180910390fd5b610472838281518110610464577f4e487b7100000000000000000000000000000000000000000000000000000000600052603260045260246000fd5b60200260200101518361075d565b808061047d90610ea2565b91505061038e565b505050565b8161049d610497826106f3565b3361064b565b6104dc576040517f08c379a00000000000000000000000000000000000000000000000000000000081526004016104d390610d80565b60405180910390fd5b6104e68383610894565b505050565b816104fe6104f8826106f3565b3361064b565b61053d576040517f08c379a000000000000000000000000000000000000000000000000000000000815260040161053490610d80565b60405180910390fd5b61054783836109c1565b505050565b60005b8251811015610646576105aa6105a4848381518110610597577f4e487b7100000000000000000000000000000000000000000000000000000000600052603260045260246000fd5b60200260200101516106f3565b3361064b565b6105e9576040517f08c379a00000000000000000000000000000000000000000000000000000000081526004016105e090610d80565b60405180910390fd5b610633838281518110610625577f4e487b7100000000000000000000000000000000000000000000000000000000600052603260045260246000fd5b6020026020010151836109c1565b808061063e90610ea2565b91505061054f565b505050565b6000806000847bffffffffffffffffffffffffffffffffffffffffffffffffffffffff19167bffffffffffffffffffffffffffffffffffffffffffffffffffffffff1916815260200190815260200160002060000160008373ffffffffffffffffffffffffffffffffffffffff1673ffffffffffffffffffffffffffffffffffffffff16815260200190815260200160002060009054906101000a900460ff16905092915050565b6000806000837bffffffffffffffffffffffffffffffffffffffffffffffffffffffff19167bffffffffffffffffffffffffffffffffffffffffffffffffffffffff1916815260200190815260200160002060010160009054906101000a900460e01b9050919050565b610767828261064b565b15610890576000806000847bffffffffffffffffffffffffffffffffffffffffffffffffffffffff19167bffffffffffffffffffffffffffffffffffffffffffffffffffffffff1916815260200190815260200160002060000160008373ffffffffffffffffffffffffffffffffffffffff1673ffffffffffffffffffffffffffffffffffffffff16815260200190815260200160002060006101000a81548160ff0219169083151502179055503373ffffffffffffffffffffffffffffffffffffffff168173ffffffffffffffffffffffffffffffffffffffff16837bffffffffffffffffffffffffffffffffffffffffffffffffffffffff19167f4ddc7b757e7bdd7254a9cd39452d307a52761bc824625c6a33104a075d8099e660405160405180910390a45b5050565b807bffffffffffffffffffffffffffffffffffffffffffffffffffffffff19166108bd836106f3565b7bffffffffffffffffffffffffffffffffffffffffffffffffffffffff1916146109bd5780600080847bffffffffffffffffffffffffffffffffffffffffffffffffffffffff19167bffffffffffffffffffffffffffffffffffffffffffffffffffffffff1916815260200190815260200160002060010160006101000a81548163ffffffff021916908360e01c0217905550807bffffffffffffffffffffffffffffffffffffffffffffffffffffffff1916827bffffffffffffffffffffffffffffffffffffffffffffffffffffffff19167fd348e2220a50b4500ec353f6e802d2f14dd1b5d6786148fd1bbcc570bf92d47360405160405180910390a35b5050565b6109cb828261064b565b610af3576001600080847bffffffffffffffffffffffffffffffffffffffffffffffffffffffff19167bffffffffffffffffffffffffffffffffffffffffffffffffffffffff1916815260200190815260200160002060000160008373ffffffffffffffffffffffffffffffffffffffff1673ffffffffffffffffffffffffffffffffffffffff16815260200190815260200160002060006101000a81548160ff0219169083151502179055503373ffffffffffffffffffffffffffffffffffffffff168173ffffffffffffffffffffffffffffffffffffffff16837bffffffffffffffffffffffffffffffffffffffffffffffffffffffff19167fe6231789d19137da31d0550f4ba9ee379020a8cfb64cb79bf1790c996d2e616560405160405180910390a45b5050565b6000610b0a610b0584610df1565b610dc0565b90508083825260208201905082856020860282011115610b2957600080fd5b60005b85811015610b595781610b3f8882610ba2565b845260208401935060208301925050600181019050610b2c565b5050509392505050565b600081359050610b7281610f49565b92915050565b600082601f830112610b8957600080fd5b8135610b99848260208601610af7565b91505092915050565b600081359050610bb181610f60565b92915050565b60008060408385031215610bca57600080fd5b600083013567ffffffffffffffff811115610be457600080fd5b610bf085828601610b78565b9250506020610c0185828601610b63565b9150509250929050565b600060208284031215610c1d57600080fd5b6000610c2b84828501610ba2565b91505092915050565b60008060408385031215610c4757600080fd5b6000610c5585828601610ba2565b9250506020610c6685828601610b63565b9150509250929050565b60008060408385031215610c8357600080fd5b6000610c9185828601610ba2565b9250506020610ca285828601610ba2565b9150509250929050565b610cb581610e40565b82525050565b610cc481610e4c565b82525050565b6000610cd7600a83610e1d565b91507f4f6e6c792061646d696e000000000000000000000000000000000000000000006000830152602082019050919050565b6000610d17601683610e1d565b91507f52656e6f756e6365206f6e6c7920666f722073656c66000000000000000000006000830152602082019050919050565b6000602082019050610d5f6000830184610cac565b92915050565b6000602082019050610d7a6000830184610cbb565b92915050565b60006020820190508181036000830152610d9981610cca565b9050919050565b60006020820190508181036000830152610db981610d0a565b9050919050565b6000604051905081810181811067ffffffffffffffff82111715610de757610de6610f1a565b5b8060405250919050565b600067ffffffffffffffff821115610e0c57610e0b610f1a565b5b602082029050602081019050919050565b600082825260208201905092915050565b6000610e3982610e78565b9050919050565b60008115159050919050565b60007fffffffff0000000000000000000000000000000000000000000000000000000082169050919050565b600073ffffffffffffffffffffffffffffffffffffffff82169050919050565b6000819050919050565b6000610ead82610e98565b91507fffffffffffffffffffffffffffffffffffffffffffffffffffffffffffffffff821415610ee057610edf610eeb565b5b600182019050919050565b7f4e487b7100000000000000000000000000000000000000000000000000000000600052601160045260246000fd5b7f4e487b7100000000000000000000000000000000000000000000000000000000600052604160045260246000fd5b610f5281610e2e565b8114610f5d57600080fd5b50565b610f6981610e4c565b8114610f7457600080fd5b5056fea2646970667358221220e5ce2a3cafdac27bb5dde534ce54d6faab2ef793015f00d17322c9f81224f78a64736f6c63430008000033",
  "immutableReferences": {},
  "source": "// SPDX-License-Identifier: MIT\n\npragma solidity ^0.8.0;\n\n/**\n * @dev Contract module that allows children to implement role-based access\n * control mechanisms.\n *\n * Roles are referred to by their `bytes4` identifier. These are expected to be the \n * signatures for all the functions in the contract. Special roles should be exposed\n * in the external API and be unique:\n *\n * ```\n * bytes4 public constant ROOT = 0x00000000;\n * ```\n *\n * Roles represent restricted access to a function call. For that purpose, use {auth}:\n *\n * ```\n * function foo() public auth {\n *     ...\n * }\n * ```\n *\n * Roles can be granted and revoked dynamically via the {grantRole} and\n * {revokeRole} functions. Each role has an associated admin role, and only\n * accounts that have a role's admin role can call {grantRole} and {revokeRole}.\n *\n * By default, the admin role for all roles is `ROOT`, which means\n * that only accounts with this role will be able to grant or revoke other\n * roles. More complex role relationships can be created by using\n * {setRoleAdmin}.\n *\n * WARNING: The `ROOT` is also its own admin: it has permission to\n * grant and revoke this role. Extra precautions should be taken to secure\n * accounts that have been granted it.\n */\ncontract AccessControl {\n    struct RoleData {\n        mapping (address => bool) members;\n        bytes4 adminRole;\n    }\n\n    mapping (bytes4 => RoleData) private _roles;\n\n    bytes4 public constant ROOT = 0x00000000;\n    bytes4 public constant LOCK = 0xFFFFFFFF; // Used to disable further permissioning of a function\n\n    /**\n     * @dev Emitted when `newAdminRole` is set as ``role``'s admin role\n     *\n     * `ROOT` is the starting admin for all roles, despite\n     * {RoleAdminChanged} not being emitted signaling this.\n     *\n     * _Available since v3.1._\n     */\n    event RoleAdminChanged(bytes4 indexed role, bytes4 indexed newAdminRole);\n\n    /**\n     * @dev Emitted when `account` is granted `role`.\n     *\n     * `sender` is the account that originated the contract call.\n     */\n    event RoleGranted(bytes4 indexed role, address indexed account, address indexed sender);\n\n    /**\n     * @dev Emitted when `account` is revoked `role`.\n     *\n     * `sender` is the account that originated the contract call:\n     *   - if using `revokeRole`, it is the admin role bearer\n     *   - if using `renounceRole`, it is the role bearer (i.e. `account`)\n     */\n    event RoleRevoked(bytes4 indexed role, address indexed account, address indexed sender);\n\n    /**\n     * @dev Give msg.sender the ROOT role and create a LOCK role with itself as the admin role and no members. \n     * Calling setRoleAdmin(msg.sig, LOCK) means no one can grant that msg.sig role anymore.\n     */\n    constructor () {\n        _grantRole(ROOT, msg.sender);   // Grant ROOT to msg.sender\n        _setRoleAdmin(LOCK, LOCK);      // Create the LOCK role by setting itself as its own admin, creating an independent role tree\n    }\n\n    /**\n     * @dev Each function in the contract has its own role, identified by their msg.sig signature.\n     * ROOT can give and remove access to each function, lock any further access being granted to\n     * a specific action, or even create other roles to delegate admin control over a function.\n     */\n    modifier auth() {\n        require (_hasRole(msg.sig, msg.sender), \"Access denied\");\n        _;\n    }\n\n    /**\n     * @dev Allow only if the caller has been granted the admin role of `role`.\n     */\n    modifier admin(bytes4 role) {\n        require (_hasRole(_getRoleAdmin(role), msg.sender), \"Only admin\");\n        _;\n    }\n\n    /**\n     * @dev Returns `true` if `account` has been granted `role`.\n     */\n    function hasRole(bytes4 role, address account) external view returns (bool) {\n        return _hasRole(role, account);\n    }\n\n    /**\n     * @dev Returns the admin role that controls `role`. See {grantRole} and\n     * {revokeRole}.\n     *\n     * To change a role's admin, use {_setRoleAdmin}.\n     */\n    function getRoleAdmin(bytes4 role) external view returns (bytes4) {\n        return _getRoleAdmin(role);\n    }\n\n    /**\n     * @dev Sets `adminRole` as ``role``'s admin role.\n\n     * If ``role``'s admin role is not `adminRole` emits a {RoleAdminChanged} event.\n     *\n     * Requirements:\n     *\n     * - the caller must have ``role``'s admin role.\n     */\n    function setRoleAdmin(bytes4 role, bytes4 adminRole) external virtual admin(role) {\n        _setRoleAdmin(role, adminRole);\n    }\n\n    /**\n     * @dev Grants `role` to `account`.\n     *\n     * If `account` had not been already granted `role`, emits a {RoleGranted}\n     * event.\n     *\n     * Requirements:\n     *\n     * - the caller must have ``role``'s admin role.\n     */\n    function grantRole(bytes4 role, address account) external virtual admin(role) {\n        _grantRole(role, account);\n    }\n\n    \n    /**\n     * @dev Grants all of `role` in `roles` to `account`.\n     *\n     * If `account` had not been already granted `role`, emits a {RoleGranted}\n     * event.\n     *\n     * Requirements:\n     *\n     * - For each `role` in `roles`, the caller must have ``role``'s admin role.\n     */\n    function grantRoles(bytes4[] memory roles, address account) external virtual {\n        for (uint256 i = 0; i < roles.length; i++) {\n            require (_hasRole(_getRoleAdmin(roles[i]), msg.sender), \"Only admin\");\n            _grantRole(roles[i], account);\n        }\n    }\n\n    /**\n     * @dev Sets LOCK as ``role``'s admin role. LOCK has no members, so this disables admin management of ``role``.\n\n     * Emits a {RoleAdminChanged} event.\n     *\n     * Requirements:\n     *\n     * - the caller must have ``role``'s admin role.\n     */\n    function lockRole(bytes4 role) external virtual admin(role) {\n        _setRoleAdmin(role, LOCK);\n    }\n\n    /**\n     * @dev Revokes `role` from `account`.\n     *\n     * If `account` had been granted `role`, emits a {RoleRevoked} event.\n     *\n     * Requirements:\n     *\n     * - the caller must have ``role``'s admin role.\n     */\n    function revokeRole(bytes4 role, address account) external virtual admin(role) {\n        _revokeRole(role, account);\n    }\n\n    /**\n     * @dev Revokes all of `role` in `roles` from `account`.\n     *\n     * If `account` had been granted `role`, emits a {RoleRevoked} event.\n     *\n     * Requirements:\n     *\n     * - For each `role` in `roles`, the caller must have ``role``'s admin role.\n     */\n    function revokeRoles(bytes4[] memory roles, address account) external virtual {\n        for (uint256 i = 0; i < roles.length; i++) {\n            require (_hasRole(_getRoleAdmin(roles[i]), msg.sender), \"Only admin\");\n            _revokeRole(roles[i], account);\n        }\n    }\n\n    /**\n     * @dev Revokes `role` from the calling account.\n     *\n     * Roles are often managed via {grantRole} and {revokeRole}: this function's\n     * purpose is to provide a mechanism for accounts to lose their privileges\n     * if they are compromised (such as when a trusted device is misplaced).\n     *\n     * If the calling account had been granted `role`, emits a {RoleRevoked}\n     * event.\n     *\n     * Requirements:\n     *\n     * - the caller must be `account`.\n     */\n    function renounceRole(bytes4 role, address account) external virtual {\n        require(account == msg.sender, \"Renounce only for self\");\n\n        _revokeRole(role, account);\n    }\n\n    function _hasRole(bytes4 role, address account) internal view returns (bool) {\n        return _roles[role].members[account];\n    }\n\n    function _getRoleAdmin(bytes4 role) internal view returns (bytes4) {\n        return _roles[role].adminRole;\n    }\n\n    function _setRoleAdmin(bytes4 role, bytes4 adminRole) internal virtual {\n        if (_getRoleAdmin(role) != adminRole) {\n            _roles[role].adminRole = adminRole;\n            emit RoleAdminChanged(role, adminRole);\n        }\n    }\n\n    function _grantRole(bytes4 role, address account) internal {\n        if (!_hasRole(role, account)) {\n            _roles[role].members[account] = true;\n            emit RoleGranted(role, account, msg.sender);\n        }\n    }\n\n    function _revokeRole(bytes4 role, address account) internal {\n        if (_hasRole(role, account)) {\n            _roles[role].members[account] = false;\n            emit RoleRevoked(role, account, msg.sender);\n        }\n    }\n}",
  "sourcePath": "/home/vladimirdjukic/Documents/staked/tokens/contracts/yields-utils-v2/access/AccessControl.sol",
  "compiler": {
    "name": "solc",
    "version": "0.8.0+commit.c7dfd78e.Emscripten.clang"
  },
  "schemaVersion": "3.4.3",
  "updatedAt": "2021-08-29T11:51:08.923Z",
  "devdoc": {
    "details": "Contract module that allows children to implement role-based access control mechanisms. Roles are referred to by their `bytes4` identifier. These are expected to be the  signatures for all the functions in the contract. Special roles should be exposed in the external API and be unique: ``` bytes4 public constant ROOT = 0x00000000; ``` Roles represent restricted access to a function call. For that purpose, use {auth}: ``` function foo() public auth {     ... } ``` Roles can be granted and revoked dynamically via the {grantRole} and {revokeRole} functions. Each role has an associated admin role, and only accounts that have a role's admin role can call {grantRole} and {revokeRole}. By default, the admin role for all roles is `ROOT`, which means that only accounts with this role will be able to grant or revoke other roles. More complex role relationships can be created by using {setRoleAdmin}. WARNING: The `ROOT` is also its own admin: it has permission to grant and revoke this role. Extra precautions should be taken to secure accounts that have been granted it.",
    "events": {
      "RoleAdminChanged(bytes4,bytes4)": {
        "details": "Emitted when `newAdminRole` is set as ``role``'s admin role `ROOT` is the starting admin for all roles, despite {RoleAdminChanged} not being emitted signaling this. _Available since v3.1._"
      },
      "RoleGranted(bytes4,address,address)": {
        "details": "Emitted when `account` is granted `role`. `sender` is the account that originated the contract call."
      },
      "RoleRevoked(bytes4,address,address)": {
        "details": "Emitted when `account` is revoked `role`. `sender` is the account that originated the contract call:   - if using `revokeRole`, it is the admin role bearer   - if using `renounceRole`, it is the role bearer (i.e. `account`)"
      }
    },
    "kind": "dev",
    "methods": {
      "constructor": {
        "details": "Give msg.sender the ROOT role and create a LOCK role with itself as the admin role and no members.  Calling setRoleAdmin(msg.sig, LOCK) means no one can grant that msg.sig role anymore."
      },
      "getRoleAdmin(bytes4)": {
        "details": "Returns the admin role that controls `role`. See {grantRole} and {revokeRole}. To change a role's admin, use {_setRoleAdmin}."
      },
      "grantRole(bytes4,address)": {
        "details": "Grants `role` to `account`. If `account` had not been already granted `role`, emits a {RoleGranted} event. Requirements: - the caller must have ``role``'s admin role."
      },
      "grantRoles(bytes4[],address)": {
        "details": "Grants all of `role` in `roles` to `account`. If `account` had not been already granted `role`, emits a {RoleGranted} event. Requirements: - For each `role` in `roles`, the caller must have ``role``'s admin role."
      },
      "hasRole(bytes4,address)": {
        "details": "Returns `true` if `account` has been granted `role`."
      },
      "lockRole(bytes4)": {
        "details": "Sets LOCK as ``role``'s admin role. LOCK has no members, so this disables admin management of ``role``. Emits a {RoleAdminChanged} event. Requirements: - the caller must have ``role``'s admin role."
      },
      "renounceRole(bytes4,address)": {
        "details": "Revokes `role` from the calling account. Roles are often managed via {grantRole} and {revokeRole}: this function's purpose is to provide a mechanism for accounts to lose their privileges if they are compromised (such as when a trusted device is misplaced). If the calling account had been granted `role`, emits a {RoleRevoked} event. Requirements: - the caller must be `account`."
      },
      "revokeRole(bytes4,address)": {
        "details": "Revokes `role` from `account`. If `account` had been granted `role`, emits a {RoleRevoked} event. Requirements: - the caller must have ``role``'s admin role."
      },
      "revokeRoles(bytes4[],address)": {
        "details": "Revokes all of `role` in `roles` from `account`. If `account` had been granted `role`, emits a {RoleRevoked} event. Requirements: - For each `role` in `roles`, the caller must have ``role``'s admin role."
      },
      "setRoleAdmin(bytes4,bytes4)": {
        "details": "Sets `adminRole` as ``role``'s admin role. If ``role``'s admin role is not `adminRole` emits a {RoleAdminChanged} event. Requirements: - the caller must have ``role``'s admin role."
      }
    },
    "version": 1
  },
  "userdoc": {
    "kind": "user",
    "methods": {},
    "version": 1
  }
}