{
  "contractName": "EmergencyBrake",
  "abi": [
    {
      "inputs": [
        {
          "internalType": "address",
          "name": "planner",
          "type": "address"
        },
        {
          "internalType": "address",
          "name": "executor",
          "type": "address"
        }
      ],
      "stateMutability": "nonpayable",
      "type": "constructor"
    },
    {
      "anonymous": false,
      "inputs": [
        {
          "indexed": true,
          "internalType": "bytes32",
          "name": "txHash",
          "type": "bytes32"
        }
      ],
      "name": "Cancelled",
      "type": "event"
    },
    {
      "anonymous": false,
      "inputs": [
        {
          "indexed": true,
          "internalType": "bytes32",
          "name": "txHash",
          "type": "bytes32"
        },
        {
          "indexed": false,
          "internalType": "address",
          "name": "target",
          "type": "address"
        },
        {
          "indexed": false,
          "internalType": "address[]",
          "name": "contacts",
          "type": "address[]"
        },
        {
          "indexed": false,
          "internalType": "bytes4[][]",
          "name": "permissions",
          "type": "bytes4[][]"
        }
      ],
      "name": "Executed",
      "type": "event"
    },
    {
      "anonymous": false,
      "inputs": [
        {
          "indexed": true,
          "internalType": "bytes32",
          "name": "txHash",
          "type": "bytes32"
        },
        {
          "indexed": false,
          "internalType": "address",
          "name": "target",
          "type": "address"
        },
        {
          "indexed": false,
          "internalType": "address[]",
          "name": "contacts",
          "type": "address[]"
        },
        {
          "indexed": false,
          "internalType": "bytes4[][]",
          "name": "permissions",
          "type": "bytes4[][]"
        }
      ],
      "name": "Planned",
      "type": "event"
    },
    {
      "anonymous": false,
      "inputs": [
        {
          "indexed": true,
          "internalType": "bytes32",
          "name": "txHash",
          "type": "bytes32"
        },
        {
          "indexed": false,
          "internalType": "address",
          "name": "target",
          "type": "address"
        },
        {
          "indexed": false,
          "internalType": "address[]",
          "name": "contacts",
          "type": "address[]"
        },
        {
          "indexed": false,
          "internalType": "bytes4[][]",
          "name": "permissions",
          "type": "bytes4[][]"
        }
      ],
      "name": "Restored",
      "type": "event"
    },
    {
      "anonymous": false,
      "inputs": [
        {
          "indexed": true,
          "internalType": "bytes4",
          "name": "role",
          "type": "bytes4"
        },
        {
          "indexed": true,
          "internalType": "bytes4",
          "name": "newAdminRole",
          "type": "bytes4"
        }
      ],
      "name": "RoleAdminChanged",
      "type": "event"
    },
    {
      "anonymous": false,
      "inputs": [
        {
          "indexed": true,
          "internalType": "bytes4",
          "name": "role",
          "type": "bytes4"
        },
        {
          "indexed": true,
          "internalType": "address",
          "name": "account",
          "type": "address"
        },
        {
          "indexed": true,
          "internalType": "address",
          "name": "sender",
          "type": "address"
        }
      ],
      "name": "RoleGranted",
      "type": "event"
    },
    {
      "anonymous": false,
      "inputs": [
        {
          "indexed": true,
          "internalType": "bytes4",
          "name": "role",
          "type": "bytes4"
        },
        {
          "indexed": true,
          "internalType": "address",
          "name": "account",
          "type": "address"
        },
        {
          "indexed": true,
          "internalType": "address",
          "name": "sender",
          "type": "address"
        }
      ],
      "name": "RoleRevoked",
      "type": "event"
    },
    {
      "anonymous": false,
      "inputs": [
        {
          "indexed": true,
          "internalType": "bytes32",
          "name": "txHash",
          "type": "bytes32"
        }
      ],
      "name": "Terminated",
      "type": "event"
    },
    {
      "inputs": [],
      "name": "LOCK",
      "outputs": [
        {
          "internalType": "bytes4",
          "name": "",
          "type": "bytes4"
        }
      ],
      "stateMutability": "view",
      "type": "function"
    },
    {
      "inputs": [],
      "name": "ROOT",
      "outputs": [
        {
          "internalType": "bytes4",
          "name": "",
          "type": "bytes4"
        }
      ],
      "stateMutability": "view",
      "type": "function"
    },
    {
      "inputs": [
        {
          "internalType": "bytes4",
          "name": "role",
          "type": "bytes4"
        }
      ],
      "name": "getRoleAdmin",
      "outputs": [
        {
          "internalType": "bytes4",
          "name": "",
          "type": "bytes4"
        }
      ],
      "stateMutability": "view",
      "type": "function"
    },
    {
      "inputs": [
        {
          "internalType": "bytes4",
          "name": "role",
          "type": "bytes4"
        },
        {
          "internalType": "address",
          "name": "account",
          "type": "address"
        }
      ],
      "name": "grantRole",
      "outputs": [],
      "stateMutability": "nonpayable",
      "type": "function"
    },
    {
      "inputs": [
        {
          "internalType": "bytes4[]",
          "name": "roles",
          "type": "bytes4[]"
        },
        {
          "internalType": "address",
          "name": "account",
          "type": "address"
        }
      ],
      "name": "grantRoles",
      "outputs": [],
      "stateMutability": "nonpayable",
      "type": "function"
    },
    {
      "inputs": [
        {
          "internalType": "bytes4",
          "name": "role",
          "type": "bytes4"
        },
        {
          "internalType": "address",
          "name": "account",
          "type": "address"
        }
      ],
      "name": "hasRole",
      "outputs": [
        {
          "internalType": "bool",
          "name": "",
          "type": "bool"
        }
      ],
      "stateMutability": "view",
      "type": "function"
    },
    {
      "inputs": [
        {
          "internalType": "bytes4",
          "name": "role",
          "type": "bytes4"
        }
      ],
      "name": "lockRole",
      "outputs": [],
      "stateMutability": "nonpayable",
      "type": "function"
    },
    {
      "inputs": [
        {
          "internalType": "bytes32",
          "name": "",
          "type": "bytes32"
        }
      ],
      "name": "plans",
      "outputs": [
        {
          "internalType": "enum EmergencyBrake.State",
          "name": "",
          "type": "uint8"
        }
      ],
      "stateMutability": "view",
      "type": "function"
    },
    {
      "inputs": [
        {
          "internalType": "bytes4",
          "name": "role",
          "type": "bytes4"
        },
        {
          "internalType": "address",
          "name": "account",
          "type": "address"
        }
      ],
      "name": "renounceRole",
      "outputs": [],
      "stateMutability": "nonpayable",
      "type": "function"
    },
    {
      "inputs": [
        {
          "internalType": "bytes4",
          "name": "role",
          "type": "bytes4"
        },
        {
          "internalType": "address",
          "name": "account",
          "type": "address"
        }
      ],
      "name": "revokeRole",
      "outputs": [],
      "stateMutability": "nonpayable",
      "type": "function"
    },
    {
      "inputs": [
        {
          "internalType": "bytes4[]",
          "name": "roles",
          "type": "bytes4[]"
        },
        {
          "internalType": "address",
          "name": "account",
          "type": "address"
        }
      ],
      "name": "revokeRoles",
      "outputs": [],
      "stateMutability": "nonpayable",
      "type": "function"
    },
    {
      "inputs": [
        {
          "internalType": "bytes4",
          "name": "role",
          "type": "bytes4"
        },
        {
          "internalType": "bytes4",
          "name": "adminRole",
          "type": "bytes4"
        }
      ],
      "name": "setRoleAdmin",
      "outputs": [],
      "stateMutability": "nonpayable",
      "type": "function"
    },
    {
      "inputs": [
        {
          "internalType": "address",
          "name": "target",
          "type": "address"
        },
        {
          "internalType": "address[]",
          "name": "contacts",
          "type": "address[]"
        },
        {
          "internalType": "bytes4[][]",
          "name": "permissions",
          "type": "bytes4[][]"
        }
      ],
      "name": "plan",
      "outputs": [
        {
          "internalType": "bytes32",
          "name": "txHash",
          "type": "bytes32"
        }
      ],
      "stateMutability": "nonpayable",
      "type": "function"
    },
    {
      "inputs": [
        {
          "internalType": "bytes32",
          "name": "txHash",
          "type": "bytes32"
        }
      ],
      "name": "cancel",
      "outputs": [],
      "stateMutability": "nonpayable",
      "type": "function"
    },
    {
      "inputs": [
        {
          "internalType": "address",
          "name": "target",
          "type": "address"
        },
        {
          "internalType": "address[]",
          "name": "contacts",
          "type": "address[]"
        },
        {
          "internalType": "bytes4[][]",
          "name": "permissions",
          "type": "bytes4[][]"
        }
      ],
      "name": "execute",
      "outputs": [],
      "stateMutability": "nonpayable",
      "type": "function"
    },
    {
      "inputs": [
        {
          "internalType": "address",
          "name": "target",
          "type": "address"
        },
        {
          "internalType": "address[]",
          "name": "contacts",
          "type": "address[]"
        },
        {
          "internalType": "bytes4[][]",
          "name": "permissions",
          "type": "bytes4[][]"
        }
      ],
      "name": "restore",
      "outputs": [],
      "stateMutability": "nonpayable",
      "type": "function"
    },
    {
      "inputs": [
        {
          "internalType": "bytes32",
          "name": "txHash",
          "type": "bytes32"
        }
      ],
      "name": "terminate",
      "outputs": [],
      "stateMutability": "nonpayable",
      "type": "function"
    }
  ],
  "bytecode": "0x60806040523480156200001157600080fd5b5060405162002fdb38038062002fdb833981810160405281019062000037919062000490565b6200004d600060e01b33620000f260201b60201c565b6200006d63ffffffff60e01b63ffffffff60e01b6200023160201b60201c565b6200008663c153378c60e01b83620000f260201b60201c565b6200009f63c4d252f560e01b83620000f260201b60201c565b620000b8639a6ac7e060e01b82620000f260201b60201c565b620000d163a065a87e60e01b83620000f260201b60201c565b620000ea6387b1002a60e01b83620000f260201b60201c565b50506200051f565b6200010482826200036760201b60201c565b6200022d576001600080847bffffffffffffffffffffffffffffffffffffffffffffffffffffffff19167bffffffffffffffffffffffffffffffffffffffffffffffffffffffff1916815260200190815260200160002060000160008373ffffffffffffffffffffffffffffffffffffffff1673ffffffffffffffffffffffffffffffffffffffff16815260200190815260200160002060006101000a81548160ff0219169083151502179055503373ffffffffffffffffffffffffffffffffffffffff168173ffffffffffffffffffffffffffffffffffffffff16837bffffffffffffffffffffffffffffffffffffffffffffffffffffffff19167fe6231789d19137da31d0550f4ba9ee379020a8cfb64cb79bf1790c996d2e616560405160405180910390a45b5050565b807bffffffffffffffffffffffffffffffffffffffffffffffffffffffff191662000262836200040f60201b60201c565b7bffffffffffffffffffffffffffffffffffffffffffffffffffffffff191614620003635780600080847bffffffffffffffffffffffffffffffffffffffffffffffffffffffff19167bffffffffffffffffffffffffffffffffffffffffffffffffffffffff1916815260200190815260200160002060010160006101000a81548163ffffffff021916908360e01c0217905550807bffffffffffffffffffffffffffffffffffffffffffffffffffffffff1916827bffffffffffffffffffffffffffffffffffffffffffffffffffffffff19167fd348e2220a50b4500ec353f6e802d2f14dd1b5d6786148fd1bbcc570bf92d47360405160405180910390a35b5050565b6000806000847bffffffffffffffffffffffffffffffffffffffffffffffffffffffff19167bffffffffffffffffffffffffffffffffffffffffffffffffffffffff1916815260200190815260200160002060000160008373ffffffffffffffffffffffffffffffffffffffff1673ffffffffffffffffffffffffffffffffffffffff16815260200190815260200160002060009054906101000a900460ff16905092915050565b6000806000837bffffffffffffffffffffffffffffffffffffffffffffffffffffffff19167bffffffffffffffffffffffffffffffffffffffffffffffffffffffff1916815260200190815260200160002060010160009054906101000a900460e01b9050919050565b6000815190506200048a8162000505565b92915050565b60008060408385031215620004a457600080fd5b6000620004b48582860162000479565b9250506020620004c78582860162000479565b9150509250929050565b6000620004de82620004e5565b9050919050565b600073ffffffffffffffffffffffffffffffffffffffff82169050919050565b6200051081620004d1565b81146200051c57600080fd5b50565b612aac806200052f6000396000f3fe608060405234801561001057600080fd5b506004361061010b5760003560e01c8063a065a87e116100a2578063ae93c1b511610071578063ae93c1b5146102a0578063c153378c146102bc578063c4d252f5146102ec578063de02cde714610308578063effae353146103245761010b565b8063a065a87e1461021a578063a4f0d7d014610236578063aa4f265314610254578063ad82110f146102845761010b565b80635ba5e9f0116100de5780635ba5e9f014610196578063687f0e4c146101c657806387b1002a146101e25780639a6ac7e0146101fe5761010b565b806310ab94321461011057806344faded014610140578063559742d91461015c5780635909c12f14610178575b600080fd5b61012a60048036038101906101259190611f96565b610340565b6040516101379190612505565b60405180910390f35b61015a60048036038101906101559190611f96565b610354565b005b61017660048036038101906101719190611f6d565b6103b5565b005b61018061041c565b60405161018d919061253b565b60405180910390f35b6101b060048036038101906101ab9190611f6d565b610424565b6040516101bd919061253b565b60405180910390f35b6101e060048036038101906101db9190611f96565b610436565b005b6101fc60048036038101906101f79190611f44565b6104b2565b005b61021860048036038101906102139190611e3e565b610683565b005b610234600480360381019061022f9190611e3e565b610bdf565b005b61023e610f21565b60405161024b919061253b565b60405180910390f35b61026e60048036038101906102699190611f44565b610f2c565b60405161027b919061257f565b60405180910390f35b61029e60048036038101906102999190611ec7565b610f4c565b005b6102ba60048036038101906102b59190611fd2565b61104b565b005b6102d660048036038101906102d19190611e3e565b6110ac565b6040516102e39190612520565b60405180910390f35b61030660048036038101906103019190611f44565b6114b9565b005b610322600480360381019061031d9190611f96565b61168b565b005b61033e60048036038101906103399190611ec7565b6116ec565b005b600061034c83836117eb565b905092915050565b8161036761036182611893565b336117eb565b6103a6576040517f08c379a000000000000000000000000000000000000000000000000000000000815260040161039d906125fa565b60405180910390fd5b6103b083836118fd565b505050565b806103c86103c282611893565b336117eb565b610407576040517f08c379a00000000000000000000000000000000000000000000000000000000081526004016103fe906125fa565b60405180910390fd5b6104188263ffffffff60e01b611a34565b5050565b600060e01b81565b600061042f82611893565b9050919050565b3373ffffffffffffffffffffffffffffffffffffffff168173ffffffffffffffffffffffffffffffffffffffff16146104a4576040517f08c379a000000000000000000000000000000000000000000000000000000000815260040161049b9061265a565b60405180910390fd5b6104ae82826118fd565b5050565b6104e06000357fffffffff0000000000000000000000000000000000000000000000000000000016336117eb565b61051f576040517f08c379a00000000000000000000000000000000000000000000000000000000081526004016105169061269a565b60405180910390fd5b600280811115610558577f4e487b7100000000000000000000000000000000000000000000000000000000600052602160045260246000fd5b6001600083815260200190815260200160002060009054906101000a900460ff1660028111156105b1577f4e487b7100000000000000000000000000000000000000000000000000000000600052602160045260246000fd5b146105f1576040517f08c379a00000000000000000000000000000000000000000000000000000000081526004016105e89061267a565b60405180910390fd5b60006001600083815260200190815260200160002060006101000a81548160ff0219169083600281111561064e577f4e487b7100000000000000000000000000000000000000000000000000000000600052602160045260246000fd5b0217905550807fb8c11d8ef6be70179d02ea6530a02546efc66e7888ef8a597dd0dc5a28847b4560405160405180910390a250565b6106b16000357fffffffff0000000000000000000000000000000000000000000000000000000016336117eb565b6106f0576040517f08c379a00000000000000000000000000000000000000000000000000000000081526004016106e79061269a565b60405180910390fd5b6000858585858560405160200161070b95949392919061248a565b6040516020818303038152906040528051906020012090506001600281111561075d577f4e487b7100000000000000000000000000000000000000000000000000000000600052602160045260246000fd5b6001600083815260200190815260200160002060009054906101000a900460ff1660028111156107b6577f4e487b7100000000000000000000000000000000000000000000000000000000600052602160045260246000fd5b146107f6576040517f08c379a00000000000000000000000000000000000000000000000000000000081526004016107ed906125ba565b60405180910390fd5b60026001600083815260200190815260200160002060006101000a81548160ff02191690836002811115610853577f4e487b7100000000000000000000000000000000000000000000000000000000600052602160045260246000fd5b021790555060005b85859050811015610b965760005b8484838181106108a2577f4e487b7100000000000000000000000000000000000000000000000000000000600052603260045260246000fd5b90506020028101906108b491906126ba565b9050811015610a7d578686838181106108f6577f4e487b7100000000000000000000000000000000000000000000000000000000600052603260045260246000fd5b905060200201602081019061090b9190611e15565b73ffffffffffffffffffffffffffffffffffffffff166310ab943286868581811061095f577f4e487b7100000000000000000000000000000000000000000000000000000000600052603260045260246000fd5b905060200281019061097191906126ba565b848181106109a8577f4e487b7100000000000000000000000000000000000000000000000000000000600052603260045260246000fd5b90506020020160208101906109bd9190611f6d565b8a6040518363ffffffff1660e01b81526004016109db929190612556565b60206040518083038186803b1580156109f357600080fd5b505afa158015610a07573d6000803e3d6000fd5b505050506040513d601f19601f82011682018060405250810190610a2b9190611f1b565b610a6a576040517f08c379a0000000000000000000000000000000000000000000000000000000008152600401610a619061261a565b60405180910390fd5b8080610a7590612930565b915050610869565b50858582818110610ab7577f4e487b7100000000000000000000000000000000000000000000000000000000600052603260045260246000fd5b9050602002016020810190610acc9190611e15565b73ffffffffffffffffffffffffffffffffffffffff1663ad82110f858584818110610b20577f4e487b7100000000000000000000000000000000000000000000000000000000600052603260045260246000fd5b9050602002810190610b3291906126ba565b8a6040518463ffffffff1660e01b8152600401610b51939291906124d3565b600060405180830381600087803b158015610b6b57600080fd5b505af1158015610b7f573d6000803e3d6000fd5b505050508080610b8e90612930565b91505061085b565b50807f3739bf7eb4c264612869bcfbfe250ea35b9b8b293bcbd871b488d4fd998457368787878787604051610bcf95949392919061248a565b60405180910390a2505050505050565b610c0d6000357fffffffff0000000000000000000000000000000000000000000000000000000016336117eb565b610c4c576040517f08c379a0000000000000000000000000000000000000000000000000000000008152600401610c439061269a565b60405180910390fd5b60008585858585604051602001610c6795949392919061248a565b604051602081830303815290604052805190602001209050600280811115610cb8577f4e487b7100000000000000000000000000000000000000000000000000000000600052602160045260246000fd5b6001600083815260200190815260200160002060009054906101000a900460ff166002811115610d11577f4e487b7100000000000000000000000000000000000000000000000000000000600052602160045260246000fd5b14610d51576040517f08c379a0000000000000000000000000000000000000000000000000000000008152600401610d489061267a565b60405180910390fd5b600180600083815260200190815260200160002060006101000a81548160ff02191690836002811115610dad577f4e487b7100000000000000000000000000000000000000000000000000000000600052602160045260246000fd5b021790555060005b85859050811015610ed857858582818110610df9577f4e487b7100000000000000000000000000000000000000000000000000000000600052603260045260246000fd5b9050602002016020810190610e0e9190611e15565b73ffffffffffffffffffffffffffffffffffffffff1663effae353858584818110610e62577f4e487b7100000000000000000000000000000000000000000000000000000000600052603260045260246000fd5b9050602002810190610e7491906126ba565b8a6040518463ffffffff1660e01b8152600401610e93939291906124d3565b600060405180830381600087803b158015610ead57600080fd5b505af1158015610ec1573d6000803e3d6000fd5b505050508080610ed090612930565b915050610db5565b50807fb661465c26bfd665edf102c6bb282720923d05f10de40339a5283e03b98c88d38787878787604051610f1195949392919061248a565b60405180910390a2505050505050565b63ffffffff60e01b81565b60016020528060005260406000206000915054906101000a900460ff1681565b60005b825181101561104657610faa610fa4848381518110610f97577f4e487b7100000000000000000000000000000000000000000000000000000000600052603260045260246000fd5b6020026020010151611893565b336117eb565b610fe9576040517f08c379a0000000000000000000000000000000000000000000000000000000008152600401610fe0906125fa565b60405180910390fd5b611033838281518110611025577f4e487b7100000000000000000000000000000000000000000000000000000000600052603260045260246000fd5b6020026020010151836118fd565b808061103e90612930565b915050610f4f565b505050565b8161105e61105882611893565b336117eb565b61109d576040517f08c379a0000000000000000000000000000000000000000000000000000000008152600401611094906125fa565b60405180910390fd5b6110a78383611a34565b505050565b60006110dc6000357fffffffff0000000000000000000000000000000000000000000000000000000016336117eb565b61111b576040517f08c379a00000000000000000000000000000000000000000000000000000000081526004016111129061269a565b60405180910390fd5b828290508585905014611163576040517f08c379a000000000000000000000000000000000000000000000000000000000815260040161115a9061263a565b60405180910390fd5b60005b8585905081101561130a5760005b8484838181106111ad577f4e487b7100000000000000000000000000000000000000000000000000000000600052603260045260246000fd5b90506020028101906111bf91906126ba565b90508110156112f657600060e01b7bffffffffffffffffffffffffffffffffffffffffffffffffffffffff1916858584818110611225577f4e487b7100000000000000000000000000000000000000000000000000000000600052603260045260246000fd5b905060200281019061123791906126ba565b8381811061126e577f4e487b7100000000000000000000000000000000000000000000000000000000600052603260045260246000fd5b90506020020160208101906112839190611f6d565b7bffffffffffffffffffffffffffffffffffffffffffffffffffffffff191614156112e3576040517f08c379a00000000000000000000000000000000000000000000000000000000081526004016112da906125da565b60405180910390fd5b80806112ee90612930565b915050611174565b50808061130290612930565b915050611166565b50858585858560405160200161132495949392919061248a565b60405160208183030381529060405280519060200120905060006002811115611376577f4e487b7100000000000000000000000000000000000000000000000000000000600052602160045260246000fd5b6001600083815260200190815260200160002060009054906101000a900460ff1660028111156113cf577f4e487b7100000000000000000000000000000000000000000000000000000000600052602160045260246000fd5b1461140f576040517f08c379a00000000000000000000000000000000000000000000000000000000081526004016114069061259a565b60405180910390fd5b600180600083815260200190815260200160002060006101000a81548160ff0219169083600281111561146b577f4e487b7100000000000000000000000000000000000000000000000000000000600052602160045260246000fd5b0217905550807fa93bd59db25414193373e8960bac5adb3ab0518b19664d32cdf059fa5f7749df87878787876040516114a895949392919061248a565b60405180910390a295945050505050565b6114e76000357fffffffff0000000000000000000000000000000000000000000000000000000016336117eb565b611526576040517f08c379a000000000000000000000000000000000000000000000000000000000815260040161151d9061269a565b60405180910390fd5b60016002811115611560577f4e487b7100000000000000000000000000000000000000000000000000000000600052602160045260246000fd5b6001600083815260200190815260200160002060009054906101000a900460ff1660028111156115b9577f4e487b7100000000000000000000000000000000000000000000000000000000600052602160045260246000fd5b146115f9576040517f08c379a00000000000000000000000000000000000000000000000000000000081526004016115f0906125ba565b60405180910390fd5b60006001600083815260200190815260200160002060006101000a81548160ff02191690836002811115611656577f4e487b7100000000000000000000000000000000000000000000000000000000600052602160045260246000fd5b0217905550807fbaa1eb22f2a492ba1a5fea61b8df4d27c6c8b5f3971e63bb58fa14ff72eedb7060405160405180910390a250565b8161169e61169882611893565b336117eb565b6116dd576040517f08c379a00000000000000000000000000000000000000000000000000000000081526004016116d4906125fa565b60405180910390fd5b6116e78383611b61565b505050565b60005b82518110156117e65761174a611744848381518110611737577f4e487b7100000000000000000000000000000000000000000000000000000000600052603260045260246000fd5b6020026020010151611893565b336117eb565b611789576040517f08c379a0000000000000000000000000000000000000000000000000000000008152600401611780906125fa565b60405180910390fd5b6117d38382815181106117c5577f4e487b7100000000000000000000000000000000000000000000000000000000600052603260045260246000fd5b602002602001015183611b61565b80806117de90612930565b9150506116ef565b505050565b6000806000847bffffffffffffffffffffffffffffffffffffffffffffffffffffffff19167bffffffffffffffffffffffffffffffffffffffffffffffffffffffff1916815260200190815260200160002060000160008373ffffffffffffffffffffffffffffffffffffffff1673ffffffffffffffffffffffffffffffffffffffff16815260200190815260200160002060009054906101000a900460ff16905092915050565b6000806000837bffffffffffffffffffffffffffffffffffffffffffffffffffffffff19167bffffffffffffffffffffffffffffffffffffffffffffffffffffffff1916815260200190815260200160002060010160009054906101000a900460e01b9050919050565b61190782826117eb565b15611a30576000806000847bffffffffffffffffffffffffffffffffffffffffffffffffffffffff19167bffffffffffffffffffffffffffffffffffffffffffffffffffffffff1916815260200190815260200160002060000160008373ffffffffffffffffffffffffffffffffffffffff1673ffffffffffffffffffffffffffffffffffffffff16815260200190815260200160002060006101000a81548160ff0219169083151502179055503373ffffffffffffffffffffffffffffffffffffffff168173ffffffffffffffffffffffffffffffffffffffff16837bffffffffffffffffffffffffffffffffffffffffffffffffffffffff19167f4ddc7b757e7bdd7254a9cd39452d307a52761bc824625c6a33104a075d8099e660405160405180910390a45b5050565b807bffffffffffffffffffffffffffffffffffffffffffffffffffffffff1916611a5d83611893565b7bffffffffffffffffffffffffffffffffffffffffffffffffffffffff191614611b5d5780600080847bffffffffffffffffffffffffffffffffffffffffffffffffffffffff19167bffffffffffffffffffffffffffffffffffffffffffffffffffffffff1916815260200190815260200160002060010160006101000a81548163ffffffff021916908360e01c0217905550807bffffffffffffffffffffffffffffffffffffffffffffffffffffffff1916827bffffffffffffffffffffffffffffffffffffffffffffffffffffffff19167fd348e2220a50b4500ec353f6e802d2f14dd1b5d6786148fd1bbcc570bf92d47360405160405180910390a35b5050565b611b6b82826117eb565b611c93576001600080847bffffffffffffffffffffffffffffffffffffffffffffffffffffffff19167bffffffffffffffffffffffffffffffffffffffffffffffffffffffff1916815260200190815260200160002060000160008373ffffffffffffffffffffffffffffffffffffffff1673ffffffffffffffffffffffffffffffffffffffff16815260200190815260200160002060006101000a81548160ff0219169083151502179055503373ffffffffffffffffffffffffffffffffffffffff168173ffffffffffffffffffffffffffffffffffffffff16837bffffffffffffffffffffffffffffffffffffffffffffffffffffffff19167fe6231789d19137da31d0550f4ba9ee379020a8cfb64cb79bf1790c996d2e616560405160405180910390a45b5050565b6000611caa611ca584612742565b612711565b90508083825260208201905082856020860282011115611cc957600080fd5b60005b85811015611cf95781611cdf8882611e00565b845260208401935060208301925050600181019050611ccc565b5050509392505050565b600081359050611d1281612a1a565b92915050565b60008083601f840112611d2a57600080fd5b8235905067ffffffffffffffff811115611d4357600080fd5b602083019150836020820283011115611d5b57600080fd5b9250929050565b60008083601f840112611d7457600080fd5b8235905067ffffffffffffffff811115611d8d57600080fd5b602083019150836020820283011115611da557600080fd5b9250929050565b600082601f830112611dbd57600080fd5b8135611dcd848260208601611c97565b91505092915050565b600081519050611de581612a31565b92915050565b600081359050611dfa81612a48565b92915050565b600081359050611e0f81612a5f565b92915050565b600060208284031215611e2757600080fd5b6000611e3584828501611d03565b91505092915050565b600080600080600060608688031215611e5657600080fd5b6000611e6488828901611d03565b955050602086013567ffffffffffffffff811115611e8157600080fd5b611e8d88828901611d18565b9450945050604086013567ffffffffffffffff811115611eac57600080fd5b611eb888828901611d62565b92509250509295509295909350565b60008060408385031215611eda57600080fd5b600083013567ffffffffffffffff811115611ef457600080fd5b611f0085828601611dac565b9250506020611f1185828601611d03565b9150509250929050565b600060208284031215611f2d57600080fd5b6000611f3b84828501611dd6565b91505092915050565b600060208284031215611f5657600080fd5b6000611f6484828501611deb565b91505092915050565b600060208284031215611f7f57600080fd5b6000611f8d84828501611e00565b91505092915050565b60008060408385031215611fa957600080fd5b6000611fb785828601611e00565b9250506020611fc885828601611d03565b9150509250929050565b60008060408385031215611fe557600080fd5b6000611ff385828601611e00565b925050602061200485828601611e00565b9150509250929050565b600061201a8383612054565b60208301905092915050565b6000612033848484612145565b90509392505050565b6000612048838361221d565b60208301905092915050565b61205d8161288d565b82525050565b61206c8161288d565b82525050565b600061207e83856127b3565b93506120898261276e565b8060005b858110156120c25761209f8284612808565b6120a9888261200e565b97506120b48361278c565b92505060018101905061208d565b5085925050509392505050565b60006120db83856127c4565b9350836020840285016120ed84612778565b8060005b87811015612133578484038952612108828461281f565b612113868284612026565b955061211e84612799565b935060208b019a5050506001810190506120f1565b50829750879450505050509392505050565b600061215183856127d5565b935061215c82612782565b8060005b85811015612195576121728284612876565b61217c888261203c565b9750612187836127a6565b925050600181019050612160565b5085925050509392505050565b60006121ae83856127e6565b93506121b982612782565b8060005b858110156121f2576121cf8284612876565b6121d9888261203c565b97506121e4836127a6565b9250506001810190506121bd565b5085925050509392505050565b6122088161289f565b82525050565b612217816128ab565b82525050565b612226816128b5565b82525050565b612235816128b5565b82525050565b6122448161291e565b82525050565b6000612257601e836127f7565b91507f456d657267656e637920616c726561647920706c616e6e656420666f722e00006000830152602082019050919050565b6000612297601a836127f7565b91507f456d657267656e6379206e6f7420706c616e6e656420666f722e0000000000006000830152602082019050919050565b60006122d76011836127f7565b91507f43616e27742072656d6f766520524f4f540000000000000000000000000000006000830152602082019050919050565b6000612317600a836127f7565b91507f4f6e6c792061646d696e000000000000000000000000000000000000000000006000830152602082019050919050565b60006123576014836127f7565b91507f5065726d697373696f6e206e6f7420666f756e640000000000000000000000006000830152602082019050919050565b60006123976011836127f7565b91507f4d69736d61746368656420696e707574730000000000000000000000000000006000830152602082019050919050565b60006123d76016836127f7565b91507f52656e6f756e6365206f6e6c7920666f722073656c66000000000000000000006000830152602082019050919050565b6000612417601c836127f7565b91507f456d657267656e637920706c616e206e6f742065786563757465642e000000006000830152602082019050919050565b6000612457600d836127f7565b91507f4163636573732064656e696564000000000000000000000000000000000000006000830152602082019050919050565b600060608201905061249f6000830188612063565b81810360208301526124b2818688612072565b905081810360408301526124c78184866120cf565b90509695505050505050565b600060408201905081810360008301526124ee8185876121a2565b90506124fd6020830184612063565b949350505050565b600060208201905061251a60008301846121ff565b92915050565b6000602082019050612535600083018461220e565b92915050565b6000602082019050612550600083018461222c565b92915050565b600060408201905061256b600083018561222c565b6125786020830184612063565b9392505050565b6000602082019050612594600083018461223b565b92915050565b600060208201905081810360008301526125b38161224a565b9050919050565b600060208201905081810360008301526125d38161228a565b9050919050565b600060208201905081810360008301526125f3816122ca565b9050919050565b600060208201905081810360008301526126138161230a565b9050919050565b600060208201905081810360008301526126338161234a565b9050919050565b600060208201905081810360008301526126538161238a565b9050919050565b60006020820190508181036000830152612673816123ca565b9050919050565b600060208201905081810360008301526126938161240a565b9050919050565b600060208201905081810360008301526126b38161244a565b9050919050565b600080833560016020038436030381126126d357600080fd5b80840192508235915067ffffffffffffffff8211156126f157600080fd5b60208301925060208202360383131561270957600080fd5b509250929050565b6000604051905081810181811067ffffffffffffffff82111715612738576127376129d7565b5b8060405250919050565b600067ffffffffffffffff82111561275d5761275c6129d7565b5b602082029050602081019050919050565b6000819050919050565b6000819050919050565b6000819050919050565b6000602082019050919050565b6000602082019050919050565b6000602082019050919050565b600082825260208201905092915050565b600082825260208201905092915050565b600082825260208201905092915050565b600082825260208201905092915050565b600082825260208201905092915050565b60006128176020840184611d03565b905092915050565b6000808335600160200384360303811261283857600080fd5b83810192508235915060208301925067ffffffffffffffff82111561285c57600080fd5b60208202360384131561286e57600080fd5b509250929050565b60006128856020840184611e00565b905092915050565b6000612898826128f4565b9050919050565b60008115159050919050565b6000819050919050565b60007fffffffff0000000000000000000000000000000000000000000000000000000082169050919050565b60008190506128ef82612a06565b919050565b600073ffffffffffffffffffffffffffffffffffffffff82169050919050565b6000819050919050565b6000612929826128e1565b9050919050565b600061293b82612914565b91507fffffffffffffffffffffffffffffffffffffffffffffffffffffffffffffffff82141561296e5761296d612979565b5b600182019050919050565b7f4e487b7100000000000000000000000000000000000000000000000000000000600052601160045260246000fd5b7f4e487b7100000000000000000000000000000000000000000000000000000000600052602160045260246000fd5b7f4e487b7100000000000000000000000000000000000000000000000000000000600052604160045260246000fd5b60038110612a1757612a166129a8565b5b50565b612a238161288d565b8114612a2e57600080fd5b50565b612a3a8161289f565b8114612a4557600080fd5b50565b612a51816128ab565b8114612a5c57600080fd5b50565b612a68816128b5565b8114612a7357600080fd5b5056fea26469706673582212200fb1e939d3134a0104ad4daa1a372b5a3309583d77c6c316ce1114265393784664736f6c63430008000033",
  "immutableReferences": {},
  "source": "// SPDX-License-Identifier: MIT\n\npragma solidity ^0.8.0;\nimport \"../access/AccessControl.sol\";\n\n\ninterface IEmergencyBrake {\n    function plan(address target, address[] calldata contacts, bytes4[][] calldata permissions) external returns (bytes32 txHash);\n    function cancel(bytes32 txHash) external;\n    function execute(address target, address[] calldata contacts, bytes4[][] calldata permissions) external;\n    function restore(address target, address[] calldata contacts, bytes4[][] calldata permissions) external;\n    function terminate(bytes32 txHash) external;\n}\n\n/// @dev EmergencyBrake allows to plan for and execute transactions that remove access permissions for a target\n/// contract. In an permissioned environment this can be used for pausing components.\n/// All contracts in scope of emergency plans must grant ROOT permissions to EmergencyBrake. To mitigate the risk\n/// of governance capture, EmergencyBrake has very limited functionality, being able only to revoke existing roles\n/// and to restore previously revoked roles. Thus EmergencyBrake cannot grant permissions that weren't there in the \n/// first place. As an additional safeguard, EmergencyBrake cannot revoke or grant ROOT roles.\n/// In addition, there is a separation of concerns between the planner and the executor accounts, so that both of them\n/// must be compromised simultaneously to execute non-approved emergency plans, and then only creating a denial of service.\ncontract EmergencyBrake is AccessControl, IEmergencyBrake {\n    enum State {UNPLANNED, PLANNED, EXECUTED}\n\n    event Planned(bytes32 indexed txHash, address target, address[] contacts, bytes4[][] permissions);\n    event Cancelled(bytes32 indexed txHash);\n    event Executed(bytes32 indexed txHash, address target, address[] contacts, bytes4[][] permissions);\n    event Restored(bytes32 indexed txHash, address target, address[] contacts, bytes4[][] permissions);\n    event Terminated(bytes32 indexed txHash);\n\n    mapping (bytes32 => State) public plans;\n\n    constructor(address planner, address executor) AccessControl() {\n        _grantRole(IEmergencyBrake.plan.selector, planner);\n        _grantRole(IEmergencyBrake.cancel.selector, planner);\n        _grantRole(IEmergencyBrake.execute.selector, executor);\n        _grantRole(IEmergencyBrake.restore.selector, planner);\n        _grantRole(IEmergencyBrake.terminate.selector, planner);\n\n        // Granting roles (plan, cancel, execute, restore, terminate) is reserved to ROOT\n    }\n\n    /// @dev Register an access removal transaction\n    function plan(address target, address[] calldata contacts, bytes4[][] calldata permissions)\n        external override auth\n        returns (bytes32 txHash)\n    {\n        require(contacts.length == permissions.length, \"Mismatched inputs\");\n        // Removing or granting ROOT permissions is out of bounds for EmergencyBrake\n        for (uint256 i = 0; i < contacts.length; i++){\n            for (uint256 j = 0; j < permissions[i].length; j++){\n                require(\n                    permissions[i][j] != ROOT,\n                    \"Can't remove ROOT\"\n                );\n            }\n        }\n        txHash = keccak256(abi.encode(target, contacts, permissions));\n        require(plans[txHash] == State.UNPLANNED, \"Emergency already planned for.\");\n        plans[txHash] = State.PLANNED;\n        emit Planned(txHash, target, contacts, permissions);\n    }\n\n    /// @dev Erase a planned access removal transaction\n    function cancel(bytes32 txHash)\n        external override auth\n    {\n        require(plans[txHash] == State.PLANNED, \"Emergency not planned for.\");\n        plans[txHash] = State.UNPLANNED;\n        emit Cancelled(txHash);\n    }\n\n    /// @dev Execute an access removal transaction\n    function execute(address target, address[] calldata contacts, bytes4[][] calldata permissions)\n        external override auth\n    {\n        bytes32 txHash = keccak256(abi.encode(target, contacts, permissions));\n        require(plans[txHash] == State.PLANNED, \"Emergency not planned for.\");\n        plans[txHash] = State.EXECUTED;\n\n        for (uint256 i = 0; i < contacts.length; i++){\n            // AccessControl.sol doesn't revert if revoking permissions that haven't been granted\n            // If we don't check, planner and executor can collude to gain access to contacts\n            for (uint256 j = 0; j < permissions[i].length; j++){\n                require(\n                    AccessControl(contacts[i]).hasRole(permissions[i][j], target),\n                    \"Permission not found\"\n                );\n            }\n            // Now revoke the permissions\n            AccessControl(contacts[i]).revokeRoles(permissions[i], target);\n        }\n        emit Executed(txHash, target, contacts, permissions);\n    }\n\n    /// @dev Restore the orchestration from an isolated target\n    function restore(address target, address[] calldata contacts, bytes4[][] calldata permissions)\n        external override auth\n    {\n        bytes32 txHash = keccak256(abi.encode(target, contacts, permissions));\n        require(plans[txHash] == State.EXECUTED, \"Emergency plan not executed.\");\n        plans[txHash] = State.PLANNED;\n\n        for (uint256 i = 0; i < contacts.length; i++){\n            AccessControl(contacts[i]).grantRoles(permissions[i], target);\n        }\n        emit Restored(txHash, target, contacts, permissions);\n    }\n\n    /// @dev Remove the restoring option from an isolated target\n    function terminate(bytes32 txHash)\n        external override auth\n    {\n        require(plans[txHash] == State.EXECUTED, \"Emergency plan not executed.\");\n        plans[txHash] = State.UNPLANNED;\n        emit Terminated(txHash);\n    }\n}",
  "sourcePath": "/home/vladimirdjukic/Documents/staked/tokens/contracts/yields-utils-v2/utils/EmergencyBrake.sol",
  "compiler": {
    "name": "solc",
    "version": "0.8.0+commit.c7dfd78e.Emscripten.clang"
  },
  "schemaVersion": "3.4.3",
  "updatedAt": "2021-08-29T11:51:09.061Z",
  "devdoc": {
    "details": "EmergencyBrake allows to plan for and execute transactions that remove access permissions for a target contract. In an permissioned environment this can be used for pausing components. All contracts in scope of emergency plans must grant ROOT permissions to EmergencyBrake. To mitigate the risk of governance capture, EmergencyBrake has very limited functionality, being able only to revoke existing roles and to restore previously revoked roles. Thus EmergencyBrake cannot grant permissions that weren't there in the  first place. As an additional safeguard, EmergencyBrake cannot revoke or grant ROOT roles. In addition, there is a separation of concerns between the planner and the executor accounts, so that both of them must be compromised simultaneously to execute non-approved emergency plans, and then only creating a denial of service.",
    "kind": "dev",
    "methods": {
      "cancel(bytes32)": {
        "details": "Erase a planned access removal transaction"
      },
      "execute(address,address[],bytes4[][])": {
        "details": "Execute an access removal transaction"
      },
      "getRoleAdmin(bytes4)": {
        "details": "Returns the admin role that controls `role`. See {grantRole} and {revokeRole}. To change a role's admin, use {_setRoleAdmin}."
      },
      "grantRole(bytes4,address)": {
        "details": "Grants `role` to `account`. If `account` had not been already granted `role`, emits a {RoleGranted} event. Requirements: - the caller must have ``role``'s admin role."
      },
      "grantRoles(bytes4[],address)": {
        "details": "Grants all of `role` in `roles` to `account`. If `account` had not been already granted `role`, emits a {RoleGranted} event. Requirements: - For each `role` in `roles`, the caller must have ``role``'s admin role."
      },
      "hasRole(bytes4,address)": {
        "details": "Returns `true` if `account` has been granted `role`."
      },
      "lockRole(bytes4)": {
        "details": "Sets LOCK as ``role``'s admin role. LOCK has no members, so this disables admin management of ``role``. Emits a {RoleAdminChanged} event. Requirements: - the caller must have ``role``'s admin role."
      },
      "plan(address,address[],bytes4[][])": {
        "details": "Register an access removal transaction"
      },
      "renounceRole(bytes4,address)": {
        "details": "Revokes `role` from the calling account. Roles are often managed via {grantRole} and {revokeRole}: this function's purpose is to provide a mechanism for accounts to lose their privileges if they are compromised (such as when a trusted device is misplaced). If the calling account had been granted `role`, emits a {RoleRevoked} event. Requirements: - the caller must be `account`."
      },
      "restore(address,address[],bytes4[][])": {
        "details": "Restore the orchestration from an isolated target"
      },
      "revokeRole(bytes4,address)": {
        "details": "Revokes `role` from `account`. If `account` had been granted `role`, emits a {RoleRevoked} event. Requirements: - the caller must have ``role``'s admin role."
      },
      "revokeRoles(bytes4[],address)": {
        "details": "Revokes all of `role` in `roles` from `account`. If `account` had been granted `role`, emits a {RoleRevoked} event. Requirements: - For each `role` in `roles`, the caller must have ``role``'s admin role."
      },
      "setRoleAdmin(bytes4,bytes4)": {
        "details": "Sets `adminRole` as ``role``'s admin role. If ``role``'s admin role is not `adminRole` emits a {RoleAdminChanged} event. Requirements: - the caller must have ``role``'s admin role."
      },
      "terminate(bytes32)": {
        "details": "Remove the restoring option from an isolated target"
      }
    },
    "version": 1
  },
  "userdoc": {
    "kind": "user",
    "methods": {},
    "version": 1
  }
}