{
  "contractName": "ERC20Mock",
  "abi": [
    {
      "inputs": [
        {
          "internalType": "string",
          "name": "name",
          "type": "string"
        },
        {
          "internalType": "string",
          "name": "symbol",
          "type": "string"
        }
      ],
      "stateMutability": "nonpayable",
      "type": "constructor"
    },
    {
      "anonymous": false,
      "inputs": [
        {
          "indexed": true,
          "internalType": "address",
          "name": "owner",
          "type": "address"
        },
        {
          "indexed": true,
          "internalType": "address",
          "name": "spender",
          "type": "address"
        },
        {
          "indexed": false,
          "internalType": "uint256",
          "name": "value",
          "type": "uint256"
        }
      ],
      "name": "Approval",
      "type": "event"
    },
    {
      "anonymous": false,
      "inputs": [
        {
          "indexed": true,
          "internalType": "address",
          "name": "from",
          "type": "address"
        },
        {
          "indexed": true,
          "internalType": "address",
          "name": "to",
          "type": "address"
        },
        {
          "indexed": false,
          "internalType": "uint256",
          "name": "value",
          "type": "uint256"
        }
      ],
      "name": "Transfer",
      "type": "event"
    },
    {
      "inputs": [],
      "name": "DOMAIN_SEPARATOR",
      "outputs": [
        {
          "internalType": "bytes32",
          "name": "",
          "type": "bytes32"
        }
      ],
      "stateMutability": "view",
      "type": "function"
    },
    {
      "inputs": [],
      "name": "PERMIT_TYPEHASH",
      "outputs": [
        {
          "internalType": "bytes32",
          "name": "",
          "type": "bytes32"
        }
      ],
      "stateMutability": "view",
      "type": "function"
    },
    {
      "inputs": [
        {
          "internalType": "address",
          "name": "owner",
          "type": "address"
        },
        {
          "internalType": "address",
          "name": "spender",
          "type": "address"
        }
      ],
      "name": "allowance",
      "outputs": [
        {
          "internalType": "uint256",
          "name": "",
          "type": "uint256"
        }
      ],
      "stateMutability": "view",
      "type": "function"
    },
    {
      "inputs": [
        {
          "internalType": "address",
          "name": "spender",
          "type": "address"
        },
        {
          "internalType": "uint256",
          "name": "wad",
          "type": "uint256"
        }
      ],
      "name": "approve",
      "outputs": [
        {
          "internalType": "bool",
          "name": "",
          "type": "bool"
        }
      ],
      "stateMutability": "nonpayable",
      "type": "function"
    },
    {
      "inputs": [
        {
          "internalType": "address",
          "name": "guy",
          "type": "address"
        }
      ],
      "name": "balanceOf",
      "outputs": [
        {
          "internalType": "uint256",
          "name": "",
          "type": "uint256"
        }
      ],
      "stateMutability": "view",
      "type": "function"
    },
    {
      "inputs": [],
      "name": "decimals",
      "outputs": [
        {
          "internalType": "uint8",
          "name": "",
          "type": "uint8"
        }
      ],
      "stateMutability": "view",
      "type": "function"
    },
    {
      "inputs": [],
      "name": "deploymentChainId",
      "outputs": [
        {
          "internalType": "uint256",
          "name": "",
          "type": "uint256"
        }
      ],
      "stateMutability": "view",
      "type": "function"
    },
    {
      "inputs": [],
      "name": "name",
      "outputs": [
        {
          "internalType": "string",
          "name": "",
          "type": "string"
        }
      ],
      "stateMutability": "view",
      "type": "function"
    },
    {
      "inputs": [
        {
          "internalType": "address",
          "name": "",
          "type": "address"
        }
      ],
      "name": "nonces",
      "outputs": [
        {
          "internalType": "uint256",
          "name": "",
          "type": "uint256"
        }
      ],
      "stateMutability": "view",
      "type": "function"
    },
    {
      "inputs": [
        {
          "internalType": "address",
          "name": "owner",
          "type": "address"
        },
        {
          "internalType": "address",
          "name": "spender",
          "type": "address"
        },
        {
          "internalType": "uint256",
          "name": "amount",
          "type": "uint256"
        },
        {
          "internalType": "uint256",
          "name": "deadline",
          "type": "uint256"
        },
        {
          "internalType": "uint8",
          "name": "v",
          "type": "uint8"
        },
        {
          "internalType": "bytes32",
          "name": "r",
          "type": "bytes32"
        },
        {
          "internalType": "bytes32",
          "name": "s",
          "type": "bytes32"
        }
      ],
      "name": "permit",
      "outputs": [],
      "stateMutability": "nonpayable",
      "type": "function"
    },
    {
      "inputs": [],
      "name": "symbol",
      "outputs": [
        {
          "internalType": "string",
          "name": "",
          "type": "string"
        }
      ],
      "stateMutability": "view",
      "type": "function"
    },
    {
      "inputs": [],
      "name": "totalSupply",
      "outputs": [
        {
          "internalType": "uint256",
          "name": "",
          "type": "uint256"
        }
      ],
      "stateMutability": "view",
      "type": "function"
    },
    {
      "inputs": [
        {
          "internalType": "address",
          "name": "dst",
          "type": "address"
        },
        {
          "internalType": "uint256",
          "name": "wad",
          "type": "uint256"
        }
      ],
      "name": "transfer",
      "outputs": [
        {
          "internalType": "bool",
          "name": "",
          "type": "bool"
        }
      ],
      "stateMutability": "nonpayable",
      "type": "function"
    },
    {
      "inputs": [
        {
          "internalType": "address",
          "name": "src",
          "type": "address"
        },
        {
          "internalType": "address",
          "name": "dst",
          "type": "address"
        },
        {
          "internalType": "uint256",
          "name": "wad",
          "type": "uint256"
        }
      ],
      "name": "transferFrom",
      "outputs": [
        {
          "internalType": "bool",
          "name": "",
          "type": "bool"
        }
      ],
      "stateMutability": "nonpayable",
      "type": "function"
    },
    {
      "inputs": [],
      "name": "version",
      "outputs": [
        {
          "internalType": "string",
          "name": "",
          "type": "string"
        }
      ],
      "stateMutability": "pure",
      "type": "function"
    },
    {
      "inputs": [
        {
          "internalType": "address",
          "name": "to",
          "type": "address"
        },
        {
          "internalType": "uint256",
          "name": "amount",
          "type": "uint256"
        }
      ],
      "name": "mint",
      "outputs": [],
      "stateMutability": "nonpayable",
      "type": "function"
    },
    {
      "inputs": [
        {
          "internalType": "address",
          "name": "from",
          "type": "address"
        },
        {
          "internalType": "uint256",
          "name": "amount",
          "type": "uint256"
        }
      ],
      "name": "burn",
      "outputs": [],
      "stateMutability": "nonpayable",
      "type": "function"
    }
  ],
  "bytecode": "0x60e06040526040518060400160405280600381526020017f3f3f3f0000000000000000000000000000000000000000000000000000000000815250600390805190602001906200005192919062000263565b506040518060400160405280600381526020017f3f3f3f0000000000000000000000000000000000000000000000000000000000815250600490805190602001906200009f92919062000263565b506012600560006101000a81548160ff021916908360ff1602179055507f6e71edae12b1b97f4d1f60370fef10105fa2faae0126114a169c64845d6126c9608090815250348015620000f057600080fd5b506040516200210b3803806200210b833981810160405281019062000116919062000385565b8181601282828282600390805190602001906200013592919062000263565b5081600490805190602001906200014e92919062000263565b5080600560006101000a81548160ff021916908360ff16021790555050505060004690508060c081815250506200018b816200019e60201b60201c565b60a08181525050505050505050620006c5565b60007f8b73c3c69bb8fe3d512ecc4cf759cc79239f7b179b0ffacaa9a75d522b39400f6003604051620001d29190620004b6565b6040518091039020620001ea6200022660201b60201c565b80519060200120843060405160200162000209959493929190620004cf565b604051602081830303815290604052805190602001209050919050565b60606040518060400160405280600181526020017f3100000000000000000000000000000000000000000000000000000000000000815250905090565b828054620002719062000631565b90600052602060002090601f016020900481019282620002955760008555620002e1565b82601f10620002b057805160ff1916838001178555620002e1565b82800160010185558215620002e1579182015b82811115620002e0578251825591602001919060010190620002c3565b5b509050620002f09190620002f4565b5090565b5b808211156200030f576000816000905550600101620002f5565b5090565b60006200032a620003248462000560565b6200052c565b9050828152602081018484840111156200034357600080fd5b62000350848285620005fb565b509392505050565b600082601f8301126200036a57600080fd5b81516200037c84826020860162000313565b91505092915050565b600080604083850312156200039957600080fd5b600083015167ffffffffffffffff811115620003b457600080fd5b620003c28582860162000358565b925050602083015167ffffffffffffffff811115620003e057600080fd5b620003ee8582860162000358565b9150509250929050565b6200040381620005b3565b82525050565b6200041481620005c7565b82525050565b60008154620004298162000631565b620004358186620005a8565b9450600182166000811462000453576001811462000465576200049c565b60ff198316865281860193506200049c565b620004708562000593565b60005b83811015620004945781548189015260018201915060208101905062000473565b838801955050505b50505092915050565b620004b081620005f1565b82525050565b6000620004c482846200041a565b915081905092915050565b600060a082019050620004e6600083018862000409565b620004f5602083018762000409565b62000504604083018662000409565b620005136060830185620004a5565b620005226080830184620003f8565b9695505050505050565b6000604051905081810181811067ffffffffffffffff8211171562000556576200055562000696565b5b8060405250919050565b600067ffffffffffffffff8211156200057e576200057d62000696565b5b601f19601f8301169050602081019050919050565b60008190508160005260206000209050919050565b600081905092915050565b6000620005c082620005d1565b9050919050565b6000819050919050565b600073ffffffffffffffffffffffffffffffffffffffff82169050919050565b6000819050919050565b60005b838110156200061b578082015181840152602081019050620005fe565b838111156200062b576000848401525b50505050565b600060028204905060018216806200064a57607f821691505b6020821081141562000661576200066062000667565b5b50919050565b7f4e487b7100000000000000000000000000000000000000000000000000000000600052602260045260246000fd5b7f4e487b7100000000000000000000000000000000000000000000000000000000600052604160045260246000fd5b60805160a05160c0516119fa62000711600039600081816104800152818161063c01526107520152600081816104b5015261078701526000818161044301526106aa01526119fa6000f3fe608060405234801561001057600080fd5b506004361061010b5760003560e01c806354fd4d50116100a25780639dc29fac116100715780639dc29fac146102be578063a9059cbb146102da578063cd0d00961461030a578063d505accf14610328578063dd62ed3e146103445761010b565b806354fd4d501461022257806370a08231146102405780637ecebe001461027057806395d89b41146102a05761010b565b806330adf81f116100de57806330adf81f146101ac578063313ce567146101ca5780633644e515146101e857806340c10f19146102065761010b565b806306fdde0314610110578063095ea7b31461012e57806318160ddd1461015e57806323b872dd1461017c575b600080fd5b610118610374565b604051610125919061166d565b60405180910390f35b6101486004803603810190610143919061125a565b610402565b604051610155919061153e565b60405180910390f35b610166610417565b604051610173919061170f565b60405180910390f35b6101966004803603810190610191919061116d565b610420565b6040516101a3919061153e565b60405180910390f35b6101b4610441565b6040516101c19190611559565b60405180910390f35b6101d2610465565b6040516101df919061172a565b60405180910390f35b6101f0610478565b6040516101fd9190611559565b60405180910390f35b610220600480360381019061021b919061125a565b6104db565b005b61022a6104ea565b604051610237919061166d565b60405180910390f35b61025a60048036038101906102559190611108565b610527565b604051610267919061170f565b60405180910390f35b61028a60048036038101906102859190611108565b610570565b604051610297919061170f565b60405180910390f35b6102a8610588565b6040516102b5919061166d565b60405180910390f35b6102d860048036038101906102d3919061125a565b610616565b005b6102f460048036038101906102ef919061125a565b610625565b604051610301919061153e565b60405180910390f35b61031261063a565b60405161031f919061170f565b60405180910390f35b610342600480360381019061033d91906111bc565b61065e565b005b61035e60048036038101906103599190611131565b6108e4565b60405161036b919061170f565b60405180910390f35b6003805461038190611874565b80601f01602080910402602001604051908101604052809291908181526020018280546103ad90611874565b80156103fa5780601f106103cf576101008083540402835291602001916103fa565b820191906000526020600020905b8154815290600101906020018083116103dd57829003601f168201915b505050505081565b600061040f33848461096b565b905092915050565b60008054905090565b600061042c8483610a5e565b50610438848484610b99565b90509392505050565b7f000000000000000000000000000000000000000000000000000000000000000081565b600560009054906101000a900460ff1681565b6000804690507f000000000000000000000000000000000000000000000000000000000000000081146104b3576104ae81610da0565b6104d5565b7f00000000000000000000000000000000000000000000000000000000000000005b91505090565b6104e58282610e1c565b505050565b60606040518060400160405280600181526020017f3100000000000000000000000000000000000000000000000000000000000000815250905090565b6000600160008373ffffffffffffffffffffffffffffffffffffffff1673ffffffffffffffffffffffffffffffffffffffff168152602001908152602001600020549050919050565b60066020528060005260406000206000915090505481565b6004805461059590611874565b80601f01602080910402602001604051908101604052809291908181526020018280546105c190611874565b801561060e5780601f106105e35761010080835404028352916020019161060e565b820191906000526020600020905b8154815290600101906020018083116105f157829003601f168201915b505050505081565b6106208282610f30565b505050565b6000610632338484610b99565b905092915050565b7f000000000000000000000000000000000000000000000000000000000000000081565b428410156106a1576040517f08c379a00000000000000000000000000000000000000000000000000000000081526004016106989061168f565b60405180910390fd5b600046905060007f0000000000000000000000000000000000000000000000000000000000000000898989600660008e73ffffffffffffffffffffffffffffffffffffffff1673ffffffffffffffffffffffffffffffffffffffff168152602001908152602001600020600081548092919061071c906118a6565b919050558a60405160200161073696959493929190611574565b60405160208183030381529060405280519060200120905060007f000000000000000000000000000000000000000000000000000000000000000083146107855761078083610da0565b6107a7565b7f00000000000000000000000000000000000000000000000000000000000000005b826040516020016107b9929190611507565b6040516020818303038152906040528051906020012090506000600182888888604051600081526020016040526040516107f69493929190611628565b6020604051602081039080840390855afa158015610818573d6000803e3d6000fd5b505050602060405103519050600073ffffffffffffffffffffffffffffffffffffffff168173ffffffffffffffffffffffffffffffffffffffff161415801561088c57508a73ffffffffffffffffffffffffffffffffffffffff168173ffffffffffffffffffffffffffffffffffffffff16145b6108cb576040517f08c379a00000000000000000000000000000000000000000000000000000000081526004016108c2906116ef565b60405180910390fd5b6108d68b8b8b61096b565b505050505050505050505050565b6000600260008473ffffffffffffffffffffffffffffffffffffffff1673ffffffffffffffffffffffffffffffffffffffff16815260200190815260200160002060008373ffffffffffffffffffffffffffffffffffffffff1673ffffffffffffffffffffffffffffffffffffffff16815260200190815260200160002054905092915050565b600081600260008673ffffffffffffffffffffffffffffffffffffffff1673ffffffffffffffffffffffffffffffffffffffff16815260200190815260200160002060008573ffffffffffffffffffffffffffffffffffffffff1673ffffffffffffffffffffffffffffffffffffffff168152602001908152602001600020819055508273ffffffffffffffffffffffffffffffffffffffff168473ffffffffffffffffffffffffffffffffffffffff167f8c5be1e5ebec7d5bd14f71427d1e84f3dd0314c0f7b2291e5b200ac8c7c3b92584604051610a4b919061170f565b60405180910390a3600190509392505050565b60003373ffffffffffffffffffffffffffffffffffffffff168373ffffffffffffffffffffffffffffffffffffffff1614610b8f576000600260008573ffffffffffffffffffffffffffffffffffffffff1673ffffffffffffffffffffffffffffffffffffffff16815260200190815260200160002060003373ffffffffffffffffffffffffffffffffffffffff1673ffffffffffffffffffffffffffffffffffffffff1681526020019081526020016000205490507fffffffffffffffffffffffffffffffffffffffffffffffffffffffffffffffff8114610b8d5782811015610b7e576040517f08c379a0000000000000000000000000000000000000000000000000000000008152600401610b75906116af565b60405180910390fd5b610b8b843385840361096b565b505b505b6001905092915050565b600081600160008673ffffffffffffffffffffffffffffffffffffffff1673ffffffffffffffffffffffffffffffffffffffff168152602001908152602001600020541015610c1d576040517f08c379a0000000000000000000000000000000000000000000000000000000008152600401610c14906116cf565b60405180910390fd5b81600160008673ffffffffffffffffffffffffffffffffffffffff1673ffffffffffffffffffffffffffffffffffffffff1681526020019081526020016000205403600160008673ffffffffffffffffffffffffffffffffffffffff1673ffffffffffffffffffffffffffffffffffffffff1681526020019081526020016000208190555081600160008573ffffffffffffffffffffffffffffffffffffffff1673ffffffffffffffffffffffffffffffffffffffff16815260200190815260200160002054610ced919061178c565b600160008573ffffffffffffffffffffffffffffffffffffffff1673ffffffffffffffffffffffffffffffffffffffff168152602001908152602001600020819055508273ffffffffffffffffffffffffffffffffffffffff168473ffffffffffffffffffffffffffffffffffffffff167fddf252ad1be2c89b69c2b068fc378daa952ba7f163c4a11628f55a4df523b3ef84604051610d8d919061170f565b60405180910390a3600190509392505050565b60007f8b73c3c69bb8fe3d512ecc4cf759cc79239f7b179b0ffacaa9a75d522b39400f6003604051610dd291906114f0565b6040518091039020610de26104ea565b805190602001208430604051602001610dff9594939291906115d5565b604051602081830303815290604052805190602001209050919050565b600081600160008573ffffffffffffffffffffffffffffffffffffffff1673ffffffffffffffffffffffffffffffffffffffff16815260200190815260200160002054610e69919061178c565b600160008573ffffffffffffffffffffffffffffffffffffffff1673ffffffffffffffffffffffffffffffffffffffff1681526020019081526020016000208190555081600054610eba919061178c565b6000819055508273ffffffffffffffffffffffffffffffffffffffff16600073ffffffffffffffffffffffffffffffffffffffff167fddf252ad1be2c89b69c2b068fc378daa952ba7f163c4a11628f55a4df523b3ef84604051610f1e919061170f565b60405180910390a36001905092915050565b600081600160008573ffffffffffffffffffffffffffffffffffffffff1673ffffffffffffffffffffffffffffffffffffffff168152602001908152602001600020541015610fb4576040517f08c379a0000000000000000000000000000000000000000000000000000000008152600401610fab906116cf565b60405180910390fd5b81600160008573ffffffffffffffffffffffffffffffffffffffff1673ffffffffffffffffffffffffffffffffffffffff1681526020019081526020016000205403600160008573ffffffffffffffffffffffffffffffffffffffff1673ffffffffffffffffffffffffffffffffffffffff168152602001908152602001600020819055508160005403600081905550600073ffffffffffffffffffffffffffffffffffffffff168373ffffffffffffffffffffffffffffffffffffffff167fddf252ad1be2c89b69c2b068fc378daa952ba7f163c4a11628f55a4df523b3ef846040516110a2919061170f565b60405180910390a36001905092915050565b6000813590506110c381611968565b92915050565b6000813590506110d88161197f565b92915050565b6000813590506110ed81611996565b92915050565b600081359050611102816119ad565b92915050565b60006020828403121561111a57600080fd5b6000611128848285016110b4565b91505092915050565b6000806040838503121561114457600080fd5b6000611152858286016110b4565b9250506020611163858286016110b4565b9150509250929050565b60008060006060848603121561118257600080fd5b6000611190868287016110b4565b93505060206111a1868287016110b4565b92505060406111b2868287016110de565b9150509250925092565b600080600080600080600060e0888a0312156111d757600080fd5b60006111e58a828b016110b4565b97505060206111f68a828b016110b4565b96505060406112078a828b016110de565b95505060606112188a828b016110de565b94505060806112298a828b016110f3565b93505060a061123a8a828b016110c9565b92505060c061124b8a828b016110c9565b91505092959891949750929550565b6000806040838503121561126d57600080fd5b600061127b858286016110b4565b925050602061128c858286016110de565b9150509250929050565b61129f816117e2565b82525050565b6112ae816117f4565b82525050565b6112bd81611800565b82525050565b6112d46112cf82611800565b6118ef565b82525050565b600081546112e781611874565b6112f18186611765565b9450600182166000811461130c576001811461131d57611350565b60ff19831686528186019350611350565b61132685611745565b60005b8381101561134857815481890152600182019150602081019050611329565b838801955050505b50505092915050565b60006113648261175a565b61136e8185611770565b935061137e818560208601611841565b61138781611957565b840191505092915050565b600061139f600283611781565b91507f19010000000000000000000000000000000000000000000000000000000000006000830152600282019050919050565b60006113df601d83611770565b91507f45524332305065726d69743a206578706972656420646561646c696e650000006000830152602082019050919050565b600061141f601c83611770565b91507f45524332303a20496e73756666696369656e7420617070726f76616c000000006000830152602082019050919050565b600061145f601b83611770565b91507f45524332303a20496e73756666696369656e742062616c616e636500000000006000830152602082019050919050565b600061149f601e83611770565b91507f45524332305065726d69743a20696e76616c6964207369676e617475726500006000830152602082019050919050565b6114db8161182a565b82525050565b6114ea81611834565b82525050565b60006114fc82846112da565b915081905092915050565b600061151282611392565b915061151e82856112c3565b60208201915061152e82846112c3565b6020820191508190509392505050565b600060208201905061155360008301846112a5565b92915050565b600060208201905061156e60008301846112b4565b92915050565b600060c08201905061158960008301896112b4565b6115966020830188611296565b6115a36040830187611296565b6115b060608301866114d2565b6115bd60808301856114d2565b6115ca60a08301846114d2565b979650505050505050565b600060a0820190506115ea60008301886112b4565b6115f760208301876112b4565b61160460408301866112b4565b61161160608301856114d2565b61161e6080830184611296565b9695505050505050565b600060808201905061163d60008301876112b4565b61164a60208301866114e1565b61165760408301856112b4565b61166460608301846112b4565b95945050505050565b600060208201905081810360008301526116878184611359565b905092915050565b600060208201905081810360008301526116a8816113d2565b9050919050565b600060208201905081810360008301526116c881611412565b9050919050565b600060208201905081810360008301526116e881611452565b9050919050565b6000602082019050818103600083015261170881611492565b9050919050565b600060208201905061172460008301846114d2565b92915050565b600060208201905061173f60008301846114e1565b92915050565b60008190508160005260206000209050919050565b600081519050919050565b600081905092915050565b600082825260208201905092915050565b600081905092915050565b60006117978261182a565b91506117a28361182a565b9250827fffffffffffffffffffffffffffffffffffffffffffffffffffffffffffffffff038211156117d7576117d66118f9565b5b828201905092915050565b60006117ed8261180a565b9050919050565b60008115159050919050565b6000819050919050565b600073ffffffffffffffffffffffffffffffffffffffff82169050919050565b6000819050919050565b600060ff82169050919050565b60005b8381101561185f578082015181840152602081019050611844565b8381111561186e576000848401525b50505050565b6000600282049050600182168061188c57607f821691505b602082108114156118a05761189f611928565b5b50919050565b60006118b18261182a565b91507fffffffffffffffffffffffffffffffffffffffffffffffffffffffffffffffff8214156118e4576118e36118f9565b5b600182019050919050565b6000819050919050565b7f4e487b7100000000000000000000000000000000000000000000000000000000600052601160045260246000fd5b7f4e487b7100000000000000000000000000000000000000000000000000000000600052602260045260246000fd5b6000601f19601f8301169050919050565b611971816117e2565b811461197c57600080fd5b50565b61198881611800565b811461199357600080fd5b50565b61199f8161182a565b81146119aa57600080fd5b50565b6119b681611834565b81146119c157600080fd5b5056fea26469706673582212202469510ccb754a0fe8a7671ecfd4e673bea249a5bf089e01e840fb145add8ddd64736f6c63430008000033",
  "immutableReferences": {
    "2025": [
      {
        "length": 32,
        "start": 1091
      },
      {
        "length": 32,
        "start": 1706
      }
    ],
    "2027": [
      {
        "length": 32,
        "start": 1205
      },
      {
        "length": 32,
        "start": 1927
      }
    ],
    "2029": [
      {
        "length": 32,
        "start": 1152
      },
      {
        "length": 32,
        "start": 1596
      },
      {
        "length": 32,
        "start": 1874
      }
    ]
  },
  "source": "// SPDX-License-Identifier: MIT\npragma solidity ^0.8.0;\nimport \"../token/ERC20Permit.sol\";\n\n\ncontract ERC20Mock is ERC20Permit  {\n\n    constructor(\n        string memory name,\n        string memory symbol\n    ) ERC20Permit(name, symbol, 18) { }\n\n    /// @dev Give tokens to whoever asks for them.\n    function mint(address to, uint256 amount) public virtual {\n        _mint(to, amount);\n    }\n\n    /// @dev Burn tokens from whoever.\n    function burn(address from, uint256 amount) public virtual {\n        _burn(from, amount);\n    }\n}\n",
  "sourcePath": "/home/vladimirdjukic/Documents/staked/tokens/contracts/yields-utils-v2/mocks/ERC20Mock.sol",
  "compiler": {
    "name": "solc",
    "version": "0.8.0+commit.c7dfd78e.Emscripten.clang"
  },
  "schemaVersion": "3.4.3",
  "updatedAt": "2021-08-29T11:51:08.949Z",
  "devdoc": {
    "kind": "dev",
    "methods": {
      "DOMAIN_SEPARATOR()": {
        "details": "Return the DOMAIN_SEPARATOR."
      },
      "allowance(address,address)": {
        "details": "See {IERC20-allowance}."
      },
      "approve(address,uint256)": {
        "details": "See {IERC20-approve}."
      },
      "balanceOf(address)": {
        "details": "See {IERC20-balanceOf}."
      },
      "burn(address,uint256)": {
        "details": "Burn tokens from whoever."
      },
      "mint(address,uint256)": {
        "details": "Give tokens to whoever asks for them."
      },
      "permit(address,address,uint256,uint256,uint8,bytes32,bytes32)": {
        "details": "See {IERC2612-permit}. In cases where the free option is not a concern, deadline can simply be set to uint(-1), so it should be seen as an optional parameter"
      },
      "totalSupply()": {
        "details": "See {IERC20-totalSupply}."
      },
      "transfer(address,uint256)": {
        "details": "See {IERC20-transfer}. Requirements: - the caller must have a balance of at least `wad`."
      },
      "version()": {
        "details": "Setting the version as a function so that it can be overriden"
      }
    },
    "version": 1
  },
  "userdoc": {
    "kind": "user",
    "methods": {
      "transferFrom(address,address,uint256)": {
        "notice": "if_succeeds {:msg \"TransferFrom - decrease allowance\"} msg.sender != src ==> old(_allowance[src][msg.sender]) >= wad;"
      }
    },
    "version": 1
  }
}