{
  "contractName": "FlashBorrower",
  "abi": [
    {
      "inputs": [
        {
          "internalType": "contract IERC3156FlashLender",
          "name": "lender_",
          "type": "address"
        }
      ],
      "stateMutability": "nonpayable",
      "type": "constructor"
    },
    {
      "inputs": [],
      "name": "flashAmount",
      "outputs": [
        {
          "internalType": "uint256",
          "name": "",
          "type": "uint256"
        }
      ],
      "stateMutability": "view",
      "type": "function"
    },
    {
      "inputs": [],
      "name": "flashBalance",
      "outputs": [
        {
          "internalType": "uint256",
          "name": "",
          "type": "uint256"
        }
      ],
      "stateMutability": "view",
      "type": "function"
    },
    {
      "inputs": [],
      "name": "flashFee",
      "outputs": [
        {
          "internalType": "uint256",
          "name": "",
          "type": "uint256"
        }
      ],
      "stateMutability": "view",
      "type": "function"
    },
    {
      "inputs": [],
      "name": "flashInitiator",
      "outputs": [
        {
          "internalType": "address",
          "name": "",
          "type": "address"
        }
      ],
      "stateMutability": "view",
      "type": "function"
    },
    {
      "inputs": [],
      "name": "flashToken",
      "outputs": [
        {
          "internalType": "address",
          "name": "",
          "type": "address"
        }
      ],
      "stateMutability": "view",
      "type": "function"
    },
    {
      "inputs": [],
      "name": "lender",
      "outputs": [
        {
          "internalType": "contract IERC3156FlashLender",
          "name": "",
          "type": "address"
        }
      ],
      "stateMutability": "view",
      "type": "function"
    },
    {
      "inputs": [
        {
          "internalType": "address",
          "name": "initiator",
          "type": "address"
        },
        {
          "internalType": "address",
          "name": "token",
          "type": "address"
        },
        {
          "internalType": "uint256",
          "name": "amount",
          "type": "uint256"
        },
        {
          "internalType": "uint256",
          "name": "fee",
          "type": "uint256"
        },
        {
          "internalType": "bytes",
          "name": "data",
          "type": "bytes"
        }
      ],
      "name": "onFlashLoan",
      "outputs": [
        {
          "internalType": "bytes32",
          "name": "",
          "type": "bytes32"
        }
      ],
      "stateMutability": "nonpayable",
      "type": "function"
    },
    {
      "inputs": [
        {
          "internalType": "address",
          "name": "token",
          "type": "address"
        },
        {
          "internalType": "uint256",
          "name": "amount",
          "type": "uint256"
        },
        {
          "internalType": "enum FlashBorrower.Action",
          "name": "action",
          "type": "uint8"
        }
      ],
      "name": "flashBorrow",
      "outputs": [],
      "stateMutability": "nonpayable",
      "type": "function"
    }
  ],
  "bytecode": "0x60806040523480156200001157600080fd5b506040516200131738038062001317833981810160405281019062000037919062000095565b806000806101000a81548173ffffffffffffffffffffffffffffffffffffffff021916908373ffffffffffffffffffffffffffffffffffffffff1602179055505062000123565b6000815190506200008f8162000109565b92915050565b600060208284031215620000a857600080fd5b6000620000b8848285016200007e565b91505092915050565b6000620000ce82620000e9565b9050919050565b6000620000e282620000c1565b9050919050565b600073ffffffffffffffffffffffffffffffffffffffff82169050919050565b6200011481620000d5565b81146200012057600080fd5b50565b6111e480620001336000396000f3fe608060405234801561001057600080fd5b50600436106100885760003560e01c8063dc4a79001161005b578063dc4a790014610117578063e07df5b414610133578063ebbc8d2414610151578063ffe8c8c51461016f57610088565b806323e30c8b1461008d57806377ee0855146100bd578063b570137a146100db578063bcead63e146100f9575b600080fd5b6100a760048036038101906100a29190610b93565b61018d565b6040516100b49190610e2f565b60405180910390f35b6100c5610764565b6040516100d29190610dc2565b60405180910390f35b6100e361078a565b6040516100f09190610eec565b60405180910390f35b610101610790565b60405161010e9190610e96565b60405180910390f35b610131600480360381019061012c9190610c25565b6107b4565b005b61013b610aae565b6040516101489190610eec565b60405180910390f35b610159610ab4565b6040516101669190610eec565b60405180910390f35b610177610aba565b6040516101849190610dc2565b60405180910390f35b60008060009054906101000a900473ffffffffffffffffffffffffffffffffffffffff1673ffffffffffffffffffffffffffffffffffffffff163373ffffffffffffffffffffffffffffffffffffffff161461021e576040517f08c379a000000000000000000000000000000000000000000000000000000000815260040161021590610ecc565b60405180910390fd5b6000838381019061022f9190610c9d565b905087600260006101000a81548173ffffffffffffffffffffffffffffffffffffffff021916908373ffffffffffffffffffffffffffffffffffffffff16021790555086600360006101000a81548173ffffffffffffffffffffffffffffffffffffffff021916908373ffffffffffffffffffffffffffffffffffffffff1602179055508560048190555084600581905550600060048111156102fb577f4e487b7100000000000000000000000000000000000000000000000000000000600052602160045260246000fd5b816004811115610334577f4e487b7100000000000000000000000000000000000000000000000000000000600052602160045260246000fd5b14156103ce578673ffffffffffffffffffffffffffffffffffffffff166370a08231306040518263ffffffff1660e01b81526004016103739190610dc2565b60206040518083038186803b15801561038b57600080fd5b505afa15801561039f573d6000803e3d6000fd5b505050506040513d601f19601f820116820180604052508101906103c39190610cc6565b600181905550610736565b60016004811115610408577f4e487b7100000000000000000000000000000000000000000000000000000000600052602160045260246000fd5b816004811115610441577f4e487b7100000000000000000000000000000000000000000000000000000000600052602160045260246000fd5b1415610594578673ffffffffffffffffffffffffffffffffffffffff166370a08231306040518263ffffffff1660e01b81526004016104809190610dc2565b60206040518083038186803b15801561049857600080fd5b505afa1580156104ac573d6000803e3d6000fd5b505050506040513d601f19601f820116820180604052508101906104d09190610cc6565b6001819055508673ffffffffffffffffffffffffffffffffffffffff1663a9059cbb60008054906101000a900473ffffffffffffffffffffffffffffffffffffffff16878961051f9190610f34565b6040518363ffffffff1660e01b815260040161053c929190610e06565b602060405180830381600087803b15801561055657600080fd5b505af115801561056a573d6000803e3d6000fd5b505050506040513d601f19601f8201168201806040525081019061058e9190610c74565b50610735565b600260048111156105ce577f4e487b7100000000000000000000000000000000000000000000000000000000600052602160045260246000fd5b816004811115610607577f4e487b7100000000000000000000000000000000000000000000000000000000600052602160045260246000fd5b14156106a1578673ffffffffffffffffffffffffffffffffffffffff1663a9059cbb6000886040518363ffffffff1660e01b8152600401610649929190610e06565b602060405180830381600087803b15801561066357600080fd5b505af1158015610677573d6000803e3d6000fd5b505050506040513d601f19601f8201168201806040525081019061069b9190610c74565b50610734565b600360048111156106db577f4e487b7100000000000000000000000000000000000000000000000000000000600052602160045260246000fd5b816004811115610714577f4e487b7100000000000000000000000000000000000000000000000000000000600052602160045260246000fd5b1415610733576107328760028861072b9190610f8a565b60006107b4565b5b5b5b5b7f439148f0bbc682ca079e46d6e2c2f0c1e3b820f1a291b069d8882abf8cf18dd99150509695505050505050565b600360009054906101000a900473ffffffffffffffffffffffffffffffffffffffff1681565b60045481565b60008054906101000a900473ffffffffffffffffffffffffffffffffffffffff1681565b6000816040516020016107c79190610eb1565b604051602081830303815290604052905060008473ffffffffffffffffffffffffffffffffffffffff1663dd62ed3e3060008054906101000a900473ffffffffffffffffffffffffffffffffffffffff166040518363ffffffff1660e01b8152600401610835929190610ddd565b60206040518083038186803b15801561084d57600080fd5b505afa158015610861573d6000803e3d6000fd5b505050506040513d601f19601f820116820180604052508101906108859190610cc6565b90508473ffffffffffffffffffffffffffffffffffffffff1663095ea7b360008054906101000a900473ffffffffffffffffffffffffffffffffffffffff1660008054906101000a900473ffffffffffffffffffffffffffffffffffffffff1673ffffffffffffffffffffffffffffffffffffffff1663d9d98ce489896040518363ffffffff1660e01b815260040161091f929190610e06565b60206040518083038186803b15801561093757600080fd5b505afa15801561094b573d6000803e3d6000fd5b505050506040513d601f19601f8201168201806040525081019061096f9190610cc6565b878561097b9190610f34565b6109859190610f34565b6040518363ffffffff1660e01b81526004016109a2929190610e06565b602060405180830381600087803b1580156109bc57600080fd5b505af11580156109d0573d6000803e3d6000fd5b505050506040513d601f19601f820116820180604052508101906109f49190610c74565b5060008054906101000a900473ffffffffffffffffffffffffffffffffffffffff1673ffffffffffffffffffffffffffffffffffffffff16635cffe9de308787866040518563ffffffff1660e01b8152600401610a549493929190610e4a565b602060405180830381600087803b158015610a6e57600080fd5b505af1158015610a82573d6000803e3d6000fd5b505050506040513d601f19601f82011682018060405250810190610aa69190610c74565b505050505050565b60055481565b60015481565b600260009054906101000a900473ffffffffffffffffffffffffffffffffffffffff1681565b600081359050610aef81611159565b92915050565b600081519050610b0481611170565b92915050565b60008083601f840112610b1c57600080fd5b8235905067ffffffffffffffff811115610b3557600080fd5b602083019150836001820283011115610b4d57600080fd5b9250929050565b600081359050610b6381611187565b92915050565b600081359050610b7881611197565b92915050565b600081519050610b8d81611197565b92915050565b60008060008060008060a08789031215610bac57600080fd5b6000610bba89828a01610ae0565b9650506020610bcb89828a01610ae0565b9550506040610bdc89828a01610b69565b9450506060610bed89828a01610b69565b935050608087013567ffffffffffffffff811115610c0a57600080fd5b610c1689828a01610b0a565b92509250509295509295509295565b600080600060608486031215610c3a57600080fd5b6000610c4886828701610ae0565b9350506020610c5986828701610b69565b9250506040610c6a86828701610b54565b9150509250925092565b600060208284031215610c8657600080fd5b6000610c9484828501610af5565b91505092915050565b600060208284031215610caf57600080fd5b6000610cbd84828501610b54565b91505092915050565b600060208284031215610cd857600080fd5b6000610ce684828501610b7e565b91505092915050565b610cf881610fe4565b82525050565b610d0781611002565b82525050565b6000610d1882610f07565b610d228185610f12565b9350610d328185602086016110a3565b610d3b81611134565b840191505092915050565b610d4f81611049565b82525050565b610d5e8161106d565b82525050565b610d6d81611091565b82525050565b6000610d80601f83610f23565b91507f466c617368426f72726f7765723a20556e74727573746564206c656e646572006000830152602082019050919050565b610dbc8161103f565b82525050565b6000602082019050610dd76000830184610cef565b92915050565b6000604082019050610df26000830185610cef565b610dff6020830184610cef565b9392505050565b6000604082019050610e1b6000830185610cef565b610e286020830184610db3565b9392505050565b6000602082019050610e446000830184610cfe565b92915050565b6000608082019050610e5f6000830187610d46565b610e6c6020830186610cef565b610e796040830185610db3565b8181036060830152610e8b8184610d0d565b905095945050505050565b6000602082019050610eab6000830184610d55565b92915050565b6000602082019050610ec66000830184610d64565b92915050565b60006020820190508181036000830152610ee581610d73565b9050919050565b6000602082019050610f016000830184610db3565b92915050565b600081519050919050565b600082825260208201905092915050565b600082825260208201905092915050565b6000610f3f8261103f565b9150610f4a8361103f565b9250827fffffffffffffffffffffffffffffffffffffffffffffffffffffffffffffffff03821115610f7f57610f7e6110d6565b5b828201905092915050565b6000610f958261103f565b9150610fa08361103f565b9250817fffffffffffffffffffffffffffffffffffffffffffffffffffffffffffffffff0483118215151615610fd957610fd86110d6565b5b828202905092915050565b6000610fef8261101f565b9050919050565b60008115159050919050565b6000819050919050565b600081905061101a82611145565b919050565b600073ffffffffffffffffffffffffffffffffffffffff82169050919050565b6000819050919050565b60006110548261105b565b9050919050565b60006110668261101f565b9050919050565b60006110788261107f565b9050919050565b600061108a8261101f565b9050919050565b600061109c8261100c565b9050919050565b60005b838110156110c15780820151818401526020810190506110a6565b838111156110d0576000848401525b50505050565b7f4e487b7100000000000000000000000000000000000000000000000000000000600052601160045260246000fd5b7f4e487b7100000000000000000000000000000000000000000000000000000000600052602160045260246000fd5b6000601f19601f8301169050919050565b6005811061115657611155611105565b5b50565b61116281610fe4565b811461116d57600080fd5b50565b61117981610ff6565b811461118457600080fd5b50565b6005811061119457600080fd5b50565b6111a08161103f565b81146111ab57600080fd5b5056fea264697066735822122087cc32c42d6170306c46a24cfc79c7180c54d99bbf7e1dbb485bb3f83dd1c1c164736f6c63430008000033",
  "immutableReferences": {},
  "source": "// SPDX-License-Identifier: MIT\npragma solidity ^0.8.0;\n\nimport \"../token/IERC20.sol\";\nimport \"erc3156/contracts/interfaces/IERC3156FlashBorrower.sol\";\nimport \"erc3156/contracts/interfaces/IERC3156FlashLender.sol\";\n\n\ncontract FlashBorrower is IERC3156FlashBorrower {\n    enum Action {NORMAL, TRANSFER, STEAL, REENTER, APPROVE}\n\n    IERC3156FlashLender public lender;\n\n    uint256 public flashBalance;\n    address public flashInitiator;\n    address public flashToken;\n    uint256 public flashAmount;\n    uint256 public flashFee;\n\n    constructor (IERC3156FlashLender lender_) {\n        lender = lender_;\n    }\n\n    /// @dev ERC-3156 Flash loan callback\n    function onFlashLoan(address initiator, address token, uint256 amount, uint256 fee, bytes calldata data) external override returns(bytes32) {\n        require(msg.sender == address(lender), \"FlashBorrower: Untrusted lender\");\n        (Action action) = abi.decode(data, (Action)); // Use this to unpack arbitrary data\n        flashInitiator = initiator;\n        flashToken = token;\n        flashAmount = amount;\n        flashFee = fee;\n        if (action == Action.NORMAL) {\n            flashBalance = IERC20(token).balanceOf(address(this));\n        } else if (action == Action.TRANSFER) {\n            flashBalance = IERC20(token).balanceOf(address(this));\n            IERC20(token).transfer(address(lender), amount + fee);\n        } else if (action == Action.STEAL) {\n            IERC20(token).transfer(address(0), amount);\n        } else if (action == Action.REENTER) {    \n            flashBorrow(token, amount * 2, Action.NORMAL);\n        }\n        return keccak256(\"ERC3156FlashBorrower.onFlashLoan\");\n    }\n\n    function flashBorrow(address token, uint256 amount, Action action) public {\n        bytes memory data = abi.encode(action);\n        uint256 allowance = IERC20(token).allowance(address(this), address(lender));\n        IERC20(token).approve(address(lender), allowance + amount + lender.flashFee(token, amount));\n        lender.flashLoan(this, token, amount, data);\n    }\n}\n",
  "sourcePath": "/home/vladimirdjukic/Documents/staked/tokens/contracts/yields-utils-v2/mocks/FlashBorrower.sol",
  "compiler": {
    "name": "solc",
    "version": "0.8.0+commit.c7dfd78e.Emscripten.clang"
  },
  "schemaVersion": "3.4.3",
  "updatedAt": "2021-08-29T11:51:08.974Z",
  "devdoc": {
    "kind": "dev",
    "methods": {
      "onFlashLoan(address,address,uint256,uint256,bytes)": {
        "details": "ERC-3156 Flash loan callback"
      }
    },
    "version": 1
  },
  "userdoc": {
    "kind": "user",
    "methods": {},
    "version": 1
  }
}