{
  "contractName": "Gold",
  "abi": [
    {
      "inputs": [],
      "stateMutability": "nonpayable",
      "type": "constructor"
    },
    {
      "anonymous": false,
      "inputs": [
        {
          "indexed": true,
          "internalType": "address",
          "name": "owner",
          "type": "address"
        },
        {
          "indexed": true,
          "internalType": "address",
          "name": "spender",
          "type": "address"
        },
        {
          "indexed": false,
          "internalType": "uint256",
          "name": "value",
          "type": "uint256"
        }
      ],
      "name": "Approval",
      "type": "event"
    },
    {
      "anonymous": false,
      "inputs": [
        {
          "indexed": true,
          "internalType": "bytes4",
          "name": "role",
          "type": "bytes4"
        },
        {
          "indexed": true,
          "internalType": "bytes4",
          "name": "newAdminRole",
          "type": "bytes4"
        }
      ],
      "name": "RoleAdminChanged",
      "type": "event"
    },
    {
      "anonymous": false,
      "inputs": [
        {
          "indexed": true,
          "internalType": "bytes4",
          "name": "role",
          "type": "bytes4"
        },
        {
          "indexed": true,
          "internalType": "address",
          "name": "account",
          "type": "address"
        },
        {
          "indexed": true,
          "internalType": "address",
          "name": "sender",
          "type": "address"
        }
      ],
      "name": "RoleGranted",
      "type": "event"
    },
    {
      "anonymous": false,
      "inputs": [
        {
          "indexed": true,
          "internalType": "bytes4",
          "name": "role",
          "type": "bytes4"
        },
        {
          "indexed": true,
          "internalType": "address",
          "name": "account",
          "type": "address"
        },
        {
          "indexed": true,
          "internalType": "address",
          "name": "sender",
          "type": "address"
        }
      ],
      "name": "RoleRevoked",
      "type": "event"
    },
    {
      "anonymous": false,
      "inputs": [
        {
          "indexed": true,
          "internalType": "address",
          "name": "from",
          "type": "address"
        },
        {
          "indexed": true,
          "internalType": "address",
          "name": "to",
          "type": "address"
        },
        {
          "indexed": false,
          "internalType": "uint256",
          "name": "value",
          "type": "uint256"
        }
      ],
      "name": "Transfer",
      "type": "event"
    },
    {
      "inputs": [],
      "name": "DOMAIN_SEPARATOR",
      "outputs": [
        {
          "internalType": "bytes32",
          "name": "",
          "type": "bytes32"
        }
      ],
      "stateMutability": "view",
      "type": "function"
    },
    {
      "inputs": [],
      "name": "LOCK",
      "outputs": [
        {
          "internalType": "bytes4",
          "name": "",
          "type": "bytes4"
        }
      ],
      "stateMutability": "view",
      "type": "function"
    },
    {
      "inputs": [],
      "name": "PERMIT_TYPEHASH",
      "outputs": [
        {
          "internalType": "bytes32",
          "name": "",
          "type": "bytes32"
        }
      ],
      "stateMutability": "view",
      "type": "function"
    },
    {
      "inputs": [],
      "name": "ROOT",
      "outputs": [
        {
          "internalType": "bytes4",
          "name": "",
          "type": "bytes4"
        }
      ],
      "stateMutability": "view",
      "type": "function"
    },
    {
      "inputs": [
        {
          "internalType": "address",
          "name": "owner",
          "type": "address"
        },
        {
          "internalType": "address",
          "name": "spender",
          "type": "address"
        }
      ],
      "name": "allowance",
      "outputs": [
        {
          "internalType": "uint256",
          "name": "",
          "type": "uint256"
        }
      ],
      "stateMutability": "view",
      "type": "function"
    },
    {
      "inputs": [
        {
          "internalType": "address",
          "name": "spender",
          "type": "address"
        },
        {
          "internalType": "uint256",
          "name": "wad",
          "type": "uint256"
        }
      ],
      "name": "approve",
      "outputs": [
        {
          "internalType": "bool",
          "name": "",
          "type": "bool"
        }
      ],
      "stateMutability": "nonpayable",
      "type": "function"
    },
    {
      "inputs": [
        {
          "internalType": "address",
          "name": "guy",
          "type": "address"
        }
      ],
      "name": "balanceOf",
      "outputs": [
        {
          "internalType": "uint256",
          "name": "",
          "type": "uint256"
        }
      ],
      "stateMutability": "view",
      "type": "function"
    },
    {
      "inputs": [],
      "name": "decimals",
      "outputs": [
        {
          "internalType": "uint8",
          "name": "",
          "type": "uint8"
        }
      ],
      "stateMutability": "view",
      "type": "function"
    },
    {
      "inputs": [],
      "name": "deploymentChainId",
      "outputs": [
        {
          "internalType": "uint256",
          "name": "",
          "type": "uint256"
        }
      ],
      "stateMutability": "view",
      "type": "function"
    },
    {
      "inputs": [
        {
          "internalType": "bytes4",
          "name": "role",
          "type": "bytes4"
        }
      ],
      "name": "getRoleAdmin",
      "outputs": [
        {
          "internalType": "bytes4",
          "name": "",
          "type": "bytes4"
        }
      ],
      "stateMutability": "view",
      "type": "function"
    },
    {
      "inputs": [
        {
          "internalType": "bytes4",
          "name": "role",
          "type": "bytes4"
        },
        {
          "internalType": "address",
          "name": "account",
          "type": "address"
        }
      ],
      "name": "grantRole",
      "outputs": [],
      "stateMutability": "nonpayable",
      "type": "function"
    },
    {
      "inputs": [
        {
          "internalType": "bytes4[]",
          "name": "roles",
          "type": "bytes4[]"
        },
        {
          "internalType": "address",
          "name": "account",
          "type": "address"
        }
      ],
      "name": "grantRoles",
      "outputs": [],
      "stateMutability": "nonpayable",
      "type": "function"
    },
    {
      "inputs": [
        {
          "internalType": "bytes4",
          "name": "role",
          "type": "bytes4"
        },
        {
          "internalType": "address",
          "name": "account",
          "type": "address"
        }
      ],
      "name": "hasRole",
      "outputs": [
        {
          "internalType": "bool",
          "name": "",
          "type": "bool"
        }
      ],
      "stateMutability": "view",
      "type": "function"
    },
    {
      "inputs": [
        {
          "internalType": "bytes4",
          "name": "role",
          "type": "bytes4"
        }
      ],
      "name": "lockRole",
      "outputs": [],
      "stateMutability": "nonpayable",
      "type": "function"
    },
    {
      "inputs": [],
      "name": "name",
      "outputs": [
        {
          "internalType": "string",
          "name": "",
          "type": "string"
        }
      ],
      "stateMutability": "view",
      "type": "function"
    },
    {
      "inputs": [
        {
          "internalType": "address",
          "name": "",
          "type": "address"
        }
      ],
      "name": "nonces",
      "outputs": [
        {
          "internalType": "uint256",
          "name": "",
          "type": "uint256"
        }
      ],
      "stateMutability": "view",
      "type": "function"
    },
    {
      "inputs": [
        {
          "internalType": "address",
          "name": "owner",
          "type": "address"
        },
        {
          "internalType": "address",
          "name": "spender",
          "type": "address"
        },
        {
          "internalType": "uint256",
          "name": "amount",
          "type": "uint256"
        },
        {
          "internalType": "uint256",
          "name": "deadline",
          "type": "uint256"
        },
        {
          "internalType": "uint8",
          "name": "v",
          "type": "uint8"
        },
        {
          "internalType": "bytes32",
          "name": "r",
          "type": "bytes32"
        },
        {
          "internalType": "bytes32",
          "name": "s",
          "type": "bytes32"
        }
      ],
      "name": "permit",
      "outputs": [],
      "stateMutability": "nonpayable",
      "type": "function"
    },
    {
      "inputs": [
        {
          "internalType": "bytes4",
          "name": "role",
          "type": "bytes4"
        },
        {
          "internalType": "address",
          "name": "account",
          "type": "address"
        }
      ],
      "name": "renounceRole",
      "outputs": [],
      "stateMutability": "nonpayable",
      "type": "function"
    },
    {
      "inputs": [
        {
          "internalType": "bytes4",
          "name": "role",
          "type": "bytes4"
        },
        {
          "internalType": "address",
          "name": "account",
          "type": "address"
        }
      ],
      "name": "revokeRole",
      "outputs": [],
      "stateMutability": "nonpayable",
      "type": "function"
    },
    {
      "inputs": [
        {
          "internalType": "bytes4[]",
          "name": "roles",
          "type": "bytes4[]"
        },
        {
          "internalType": "address",
          "name": "account",
          "type": "address"
        }
      ],
      "name": "revokeRoles",
      "outputs": [],
      "stateMutability": "nonpayable",
      "type": "function"
    },
    {
      "inputs": [
        {
          "internalType": "bytes4",
          "name": "role",
          "type": "bytes4"
        },
        {
          "internalType": "bytes4",
          "name": "adminRole",
          "type": "bytes4"
        }
      ],
      "name": "setRoleAdmin",
      "outputs": [],
      "stateMutability": "nonpayable",
      "type": "function"
    },
    {
      "inputs": [],
      "name": "symbol",
      "outputs": [
        {
          "internalType": "string",
          "name": "",
          "type": "string"
        }
      ],
      "stateMutability": "view",
      "type": "function"
    },
    {
      "inputs": [],
      "name": "totalSupply",
      "outputs": [
        {
          "internalType": "uint256",
          "name": "",
          "type": "uint256"
        }
      ],
      "stateMutability": "view",
      "type": "function"
    },
    {
      "inputs": [
        {
          "internalType": "address",
          "name": "dst",
          "type": "address"
        },
        {
          "internalType": "uint256",
          "name": "wad",
          "type": "uint256"
        }
      ],
      "name": "transfer",
      "outputs": [
        {
          "internalType": "bool",
          "name": "",
          "type": "bool"
        }
      ],
      "stateMutability": "nonpayable",
      "type": "function"
    },
    {
      "inputs": [
        {
          "internalType": "address",
          "name": "src",
          "type": "address"
        },
        {
          "internalType": "address",
          "name": "dst",
          "type": "address"
        },
        {
          "internalType": "uint256",
          "name": "wad",
          "type": "uint256"
        }
      ],
      "name": "transferFrom",
      "outputs": [
        {
          "internalType": "bool",
          "name": "",
          "type": "bool"
        }
      ],
      "stateMutability": "nonpayable",
      "type": "function"
    },
    {
      "inputs": [],
      "name": "version",
      "outputs": [
        {
          "internalType": "string",
          "name": "",
          "type": "string"
        }
      ],
      "stateMutability": "pure",
      "type": "function"
    },
    {
      "inputs": [
        {
          "internalType": "address",
          "name": "dst",
          "type": "address"
        },
        {
          "internalType": "uint256",
          "name": "wad",
          "type": "uint256"
        }
      ],
      "name": "mint",
      "outputs": [
        {
          "internalType": "bool",
          "name": "",
          "type": "bool"
        }
      ],
      "stateMutability": "nonpayable",
      "type": "function"
    },
    {
      "inputs": [
        {
          "internalType": "address",
          "name": "dst",
          "type": "address"
        },
        {
          "internalType": "uint256",
          "name": "wad",
          "type": "uint256"
        }
      ],
      "name": "burn",
      "outputs": [
        {
          "internalType": "bool",
          "name": "",
          "type": "bool"
        }
      ],
      "stateMutability": "nonpayable",
      "type": "function"
    }
  ],
  "bytecode": "0x60e06040526040518060400160405280600381526020017f3f3f3f000000000000000000000000000000000000000000000000000000000081525060039080519060200190620000519291906200079f565b506040518060400160405280600381526020017f3f3f3f0000000000000000000000000000000000000000000000000000000000815250600490805190602001906200009f9291906200079f565b506012600560006101000a81548160ff021916908360ff1602179055507f6e71edae12b1b97f4d1f60370fef10105fa2faae0126114a169c64845d6126c9608090815250348015620000f057600080fd5b506040518060400160405280600481526020017f476f6c64000000000000000000000000000000000000000000000000000000008152506040518060400160405280600481526020017f476f6c6400000000000000000000000000000000000000000000000000000000815250601282828282600390805190602001906200017a9291906200079f565b508160049080519060200190620001939291906200079f565b5080600560006101000a81548160ff021916908360ff16021790555050505060004690508060c08181525050620001d0816200023560201b60201c565b60a0818152505050505050620001f1600060e01b33620002bd60201b60201c565b6200021163ffffffff60e01b63ffffffff60e01b620003fd60201b60201c565b6200022e336a01a784379d99db420000006200053460201b60201c565b5062000af9565b60007f8b73c3c69bb8fe3d512ecc4cf759cc79239f7b179b0ffacaa9a75d522b39400f60036040516200026991906200090d565b6040518091039020620002816200064e60201b60201c565b805190602001208430604051602001620002a095949392919062000926565b604051602081830303815290604052805190602001209050919050565b620002cf82826200068b60201b60201c565b620003f957600160076000847bffffffffffffffffffffffffffffffffffffffffffffffffffffffff19167bffffffffffffffffffffffffffffffffffffffffffffffffffffffff1916815260200190815260200160002060000160008373ffffffffffffffffffffffffffffffffffffffff1673ffffffffffffffffffffffffffffffffffffffff16815260200190815260200160002060006101000a81548160ff0219169083151502179055503373ffffffffffffffffffffffffffffffffffffffff168173ffffffffffffffffffffffffffffffffffffffff16837bffffffffffffffffffffffffffffffffffffffffffffffffffffffff19167fe6231789d19137da31d0550f4ba9ee379020a8cfb64cb79bf1790c996d2e616560405160405180910390a45b5050565b807bffffffffffffffffffffffffffffffffffffffffffffffffffffffff19166200042e836200073460201b60201c565b7bffffffffffffffffffffffffffffffffffffffffffffffffffffffff19161462000530578060076000847bffffffffffffffffffffffffffffffffffffffffffffffffffffffff19167bffffffffffffffffffffffffffffffffffffffffffffffffffffffff1916815260200190815260200160002060010160006101000a81548163ffffffff021916908360e01c0217905550807bffffffffffffffffffffffffffffffffffffffffffffffffffffffff1916827bffffffffffffffffffffffffffffffffffffffffffffffffffffffff19167fd348e2220a50b4500ec353f6e802d2f14dd1b5d6786148fd1bbcc570bf92d47360405160405180910390a35b5050565b600081600160008573ffffffffffffffffffffffffffffffffffffffff1673ffffffffffffffffffffffffffffffffffffffff16815260200190815260200160002054620005839190620009c0565b600160008573ffffffffffffffffffffffffffffffffffffffff1673ffffffffffffffffffffffffffffffffffffffff1681526020019081526020016000208190555081600054620005d69190620009c0565b6000819055508273ffffffffffffffffffffffffffffffffffffffff16600073ffffffffffffffffffffffffffffffffffffffff167fddf252ad1be2c89b69c2b068fc378daa952ba7f163c4a11628f55a4df523b3ef846040516200063c919062000983565b60405180910390a36001905092915050565b60606040518060400160405280600181526020017f3100000000000000000000000000000000000000000000000000000000000000815250905090565b600060076000847bffffffffffffffffffffffffffffffffffffffffffffffffffffffff19167bffffffffffffffffffffffffffffffffffffffffffffffffffffffff1916815260200190815260200160002060000160008373ffffffffffffffffffffffffffffffffffffffff1673ffffffffffffffffffffffffffffffffffffffff16815260200190815260200160002060009054906101000a900460ff16905092915050565b600060076000837bffffffffffffffffffffffffffffffffffffffffffffffffffffffff19167bffffffffffffffffffffffffffffffffffffffffffffffffffffffff1916815260200190815260200160002060010160009054906101000a900460e01b9050919050565b828054620007ad9062000a65565b90600052602060002090601f016020900481019282620007d157600085556200081d565b82601f10620007ec57805160ff19168380011785556200081d565b828001600101855582156200081d579182015b828111156200081c578251825591602001919060010190620007ff565b5b5090506200082c919062000830565b5090565b5b808211156200084b57600081600090555060010162000831565b5090565b6200085a8162000a1d565b82525050565b6200086b8162000a31565b82525050565b60008154620008808162000a65565b6200088c8186620009b5565b94506001821660008114620008aa5760018114620008bc57620008f3565b60ff19831686528186019350620008f3565b620008c785620009a0565b60005b83811015620008eb57815481890152600182019150602081019050620008ca565b838801955050505b50505092915050565b620009078162000a5b565b82525050565b60006200091b828462000871565b915081905092915050565b600060a0820190506200093d600083018862000860565b6200094c602083018762000860565b6200095b604083018662000860565b6200096a6060830185620008fc565b6200097960808301846200084f565b9695505050505050565b60006020820190506200099a6000830184620008fc565b92915050565b60008190508160005260206000209050919050565b600081905092915050565b6000620009cd8262000a5b565b9150620009da8362000a5b565b9250827fffffffffffffffffffffffffffffffffffffffffffffffffffffffffffffffff0382111562000a125762000a1162000a9b565b5b828201905092915050565b600062000a2a8262000a3b565b9050919050565b6000819050919050565b600073ffffffffffffffffffffffffffffffffffffffff82169050919050565b6000819050919050565b6000600282049050600182168062000a7e57607f821691505b6020821081141562000a955762000a9462000aca565b5b50919050565b7f4e487b7100000000000000000000000000000000000000000000000000000000600052601160045260246000fd5b7f4e487b7100000000000000000000000000000000000000000000000000000000600052602260045260246000fd5b60805160a05160c0516129c662000b45600039600081816106d501528181610c3e0152610d5401526000818161070a0152610d890152600081816106980152610cac01526129c66000f3fe608060405234801561001057600080fd5b50600436106101c45760003560e01c8063687f0e4c116100f9578063ad82110f11610097578063d505accf11610071578063d505accf14610531578063dd62ed3e1461054d578063de02cde71461057d578063effae35314610599576101c4565b8063ad82110f146104db578063ae93c1b5146104f7578063cd0d009614610513576101c4565b806395d89b41116100d357806395d89b411461043f5780639dc29fac1461045d578063a4f0d7d01461048d578063a9059cbb146104ab576101c4565b8063687f0e4c146103c357806370a08231146103df5780637ecebe001461040f576101c4565b80633644e5151161016657806354fd4d501161014057806354fd4d501461033b578063559742d9146103595780635909c12f146103755780635ba5e9f014610393576101c4565b80633644e515146102d157806340c10f19146102ef57806344faded01461031f576101c4565b806318160ddd116101a257806318160ddd1461024757806323b872dd1461026557806330adf81f14610295578063313ce567146102b3576101c4565b806306fdde03146101c9578063095ea7b3146101e757806310ab943214610217575b600080fd5b6101d16105b5565b6040516101de919061250a565b60405180910390f35b61020160048036038101906101fc9190611f18565b610643565b60405161020e91906123c0565b60405180910390f35b610231600480360381019061022c9190611fd1565b610658565b60405161023e91906123c0565b60405180910390f35b61024f61066c565b60405161025c919061260c565b60405180910390f35b61027f600480360381019061027a9190611e2b565b610675565b60405161028c91906123c0565b60405180910390f35b61029d610696565b6040516102aa91906123db565b60405180910390f35b6102bb6106ba565b6040516102c89190612627565b60405180910390f35b6102d96106cd565b6040516102e691906123db565b60405180910390f35b61030960048036038101906103049190611f18565b610730565b60405161031691906123c0565b60405180910390f35b61033960048036038101906103349190611fd1565b6107b1565b005b610343610812565b604051610350919061250a565b60405180910390f35b610373600480360381019061036e9190611fa8565b61084f565b005b61037d6108b6565b60405161038a91906124ef565b60405180910390f35b6103ad60048036038101906103a89190611fa8565b6108be565b6040516103ba91906124ef565b60405180910390f35b6103dd60048036038101906103d89190611fd1565b6108d0565b005b6103f960048036038101906103f49190611dc6565b61094c565b604051610406919061260c565b60405180910390f35b61042960048036038101906104249190611dc6565b610995565b604051610436919061260c565b60405180910390f35b6104476109ad565b604051610454919061250a565b60405180910390f35b61047760048036038101906104729190611f18565b610a3b565b60405161048491906123c0565b60405180910390f35b610495610abc565b6040516104a291906124ef565b60405180910390f35b6104c560048036038101906104c09190611f18565b610ac7565b6040516104d291906123c0565b60405180910390f35b6104f560048036038101906104f09190611f54565b610adc565b005b610511600480360381019061050c919061200d565b610bdb565b005b61051b610c3c565b604051610528919061260c565b60405180910390f35b61054b60048036038101906105469190611e7a565b610c60565b005b61056760048036038101906105629190611def565b610ee6565b604051610574919061260c565b60405180910390f35b61059760048036038101906105929190611fd1565b610f6d565b005b6105b360048036038101906105ae9190611f54565b610fce565b005b600380546105c2906127fa565b80601f01602080910402602001604051908101604052809291908181526020018280546105ee906127fa565b801561063b5780601f106106105761010080835404028352916020019161063b565b820191906000526020600020905b81548152906001019060200180831161061e57829003601f168201915b505050505081565b60006106503384846110cd565b905092915050565b600061066483836111c0565b905092915050565b60008054905090565b60006106818483611269565b5061068d8484846113a4565b90509392505050565b7f000000000000000000000000000000000000000000000000000000000000000081565b600560009054906101000a900460ff1681565b6000804690507f0000000000000000000000000000000000000000000000000000000000000000811461070857610703816115ab565b61072a565b7f00000000000000000000000000000000000000000000000000000000000000005b91505090565b60006107606000357fffffffff0000000000000000000000000000000000000000000000000000000016336111c0565b61079f576040517f08c379a0000000000000000000000000000000000000000000000000000000008152600401610796906125ec565b60405180910390fd5b6107a98383611627565b905092915050565b816107c46107be8261173b565b336111c0565b610803576040517f08c379a00000000000000000000000000000000000000000000000000000000081526004016107fa9061256c565b60405180910390fd5b61080d83836117a6565b505050565b60606040518060400160405280600181526020017f3100000000000000000000000000000000000000000000000000000000000000815250905090565b8061086261085c8261173b565b336111c0565b6108a1576040517f08c379a00000000000000000000000000000000000000000000000000000000081526004016108989061256c565b60405180910390fd5b6108b28263ffffffff60e01b6118de565b5050565b600060e01b81565b60006108c98261173b565b9050919050565b3373ffffffffffffffffffffffffffffffffffffffff168173ffffffffffffffffffffffffffffffffffffffff161461093e576040517f08c379a0000000000000000000000000000000000000000000000000000000008152600401610935906125cc565b60405180910390fd5b61094882826117a6565b5050565b6000600160008373ffffffffffffffffffffffffffffffffffffffff1673ffffffffffffffffffffffffffffffffffffffff168152602001908152602001600020549050919050565b60066020528060005260406000206000915090505481565b600480546109ba906127fa565b80601f01602080910402602001604051908101604052809291908181526020018280546109e6906127fa565b8015610a335780601f10610a0857610100808354040283529160200191610a33565b820191906000526020600020905b815481529060010190602001808311610a1657829003601f168201915b505050505081565b6000610a6b6000357fffffffff0000000000000000000000000000000000000000000000000000000016336111c0565b610aaa576040517f08c379a0000000000000000000000000000000000000000000000000000000008152600401610aa1906125ec565b60405180910390fd5b610ab48383611a0c565b905092915050565b63ffffffff60e01b81565b6000610ad43384846113a4565b905092915050565b60005b8251811015610bd657610b3a610b34848381518110610b27577f4e487b7100000000000000000000000000000000000000000000000000000000600052603260045260246000fd5b602002602001015161173b565b336111c0565b610b79576040517f08c379a0000000000000000000000000000000000000000000000000000000008152600401610b709061256c565b60405180910390fd5b610bc3838281518110610bb5577f4e487b7100000000000000000000000000000000000000000000000000000000600052603260045260246000fd5b6020026020010151836117a6565b8080610bce9061282c565b915050610adf565b505050565b81610bee610be88261173b565b336111c0565b610c2d576040517f08c379a0000000000000000000000000000000000000000000000000000000008152600401610c249061256c565b60405180910390fd5b610c3783836118de565b505050565b7f000000000000000000000000000000000000000000000000000000000000000081565b42841015610ca3576040517f08c379a0000000000000000000000000000000000000000000000000000000008152600401610c9a9061252c565b60405180910390fd5b600046905060007f0000000000000000000000000000000000000000000000000000000000000000898989600660008e73ffffffffffffffffffffffffffffffffffffffff1673ffffffffffffffffffffffffffffffffffffffff1681526020019081526020016000206000815480929190610d1e9061282c565b919050558a604051602001610d38969594939291906123f6565b60405160208183030381529060405280519060200120905060007f00000000000000000000000000000000000000000000000000000000000000008314610d8757610d82836115ab565b610da9565b7f00000000000000000000000000000000000000000000000000000000000000005b82604051602001610dbb929190612389565b604051602081830303815290604052805190602001209050600060018288888860405160008152602001604052604051610df894939291906124aa565b6020604051602081039080840390855afa158015610e1a573d6000803e3d6000fd5b505050602060405103519050600073ffffffffffffffffffffffffffffffffffffffff168173ffffffffffffffffffffffffffffffffffffffff1614158015610e8e57508a73ffffffffffffffffffffffffffffffffffffffff168173ffffffffffffffffffffffffffffffffffffffff16145b610ecd576040517f08c379a0000000000000000000000000000000000000000000000000000000008152600401610ec4906125ac565b60405180910390fd5b610ed88b8b8b6110cd565b505050505050505050505050565b6000600260008473ffffffffffffffffffffffffffffffffffffffff1673ffffffffffffffffffffffffffffffffffffffff16815260200190815260200160002060008373ffffffffffffffffffffffffffffffffffffffff1673ffffffffffffffffffffffffffffffffffffffff16815260200190815260200160002054905092915050565b81610f80610f7a8261173b565b336111c0565b610fbf576040517f08c379a0000000000000000000000000000000000000000000000000000000008152600401610fb69061256c565b60405180910390fd5b610fc98383611b90565b505050565b60005b82518110156110c85761102c611026848381518110611019577f4e487b7100000000000000000000000000000000000000000000000000000000600052603260045260246000fd5b602002602001015161173b565b336111c0565b61106b576040517f08c379a00000000000000000000000000000000000000000000000000000000081526004016110629061256c565b60405180910390fd5b6110b58382815181106110a7577f4e487b7100000000000000000000000000000000000000000000000000000000600052603260045260246000fd5b602002602001015183611b90565b80806110c09061282c565b915050610fd1565b505050565b600081600260008673ffffffffffffffffffffffffffffffffffffffff1673ffffffffffffffffffffffffffffffffffffffff16815260200190815260200160002060008573ffffffffffffffffffffffffffffffffffffffff1673ffffffffffffffffffffffffffffffffffffffff168152602001908152602001600020819055508273ffffffffffffffffffffffffffffffffffffffff168473ffffffffffffffffffffffffffffffffffffffff167f8c5be1e5ebec7d5bd14f71427d1e84f3dd0314c0f7b2291e5b200ac8c7c3b925846040516111ad919061260c565b60405180910390a3600190509392505050565b600060076000847bffffffffffffffffffffffffffffffffffffffffffffffffffffffff19167bffffffffffffffffffffffffffffffffffffffffffffffffffffffff1916815260200190815260200160002060000160008373ffffffffffffffffffffffffffffffffffffffff1673ffffffffffffffffffffffffffffffffffffffff16815260200190815260200160002060009054906101000a900460ff16905092915050565b60003373ffffffffffffffffffffffffffffffffffffffff168373ffffffffffffffffffffffffffffffffffffffff161461139a576000600260008573ffffffffffffffffffffffffffffffffffffffff1673ffffffffffffffffffffffffffffffffffffffff16815260200190815260200160002060003373ffffffffffffffffffffffffffffffffffffffff1673ffffffffffffffffffffffffffffffffffffffff1681526020019081526020016000205490507fffffffffffffffffffffffffffffffffffffffffffffffffffffffffffffffff81146113985782811015611389576040517f08c379a00000000000000000000000000000000000000000000000000000000081526004016113809061254c565b60405180910390fd5b61139684338584036110cd565b505b505b6001905092915050565b600081600160008673ffffffffffffffffffffffffffffffffffffffff1673ffffffffffffffffffffffffffffffffffffffff168152602001908152602001600020541015611428576040517f08c379a000000000000000000000000000000000000000000000000000000000815260040161141f9061258c565b60405180910390fd5b81600160008673ffffffffffffffffffffffffffffffffffffffff1673ffffffffffffffffffffffffffffffffffffffff1681526020019081526020016000205403600160008673ffffffffffffffffffffffffffffffffffffffff1673ffffffffffffffffffffffffffffffffffffffff1681526020019081526020016000208190555081600160008573ffffffffffffffffffffffffffffffffffffffff1673ffffffffffffffffffffffffffffffffffffffff168152602001908152602001600020546114f891906126e6565b600160008573ffffffffffffffffffffffffffffffffffffffff1673ffffffffffffffffffffffffffffffffffffffff168152602001908152602001600020819055508273ffffffffffffffffffffffffffffffffffffffff168473ffffffffffffffffffffffffffffffffffffffff167fddf252ad1be2c89b69c2b068fc378daa952ba7f163c4a11628f55a4df523b3ef84604051611598919061260c565b60405180910390a3600190509392505050565b60007f8b73c3c69bb8fe3d512ecc4cf759cc79239f7b179b0ffacaa9a75d522b39400f60036040516115dd9190612372565b60405180910390206115ed610812565b80519060200120843060405160200161160a959493929190612457565b604051602081830303815290604052805190602001209050919050565b600081600160008573ffffffffffffffffffffffffffffffffffffffff1673ffffffffffffffffffffffffffffffffffffffff1681526020019081526020016000205461167491906126e6565b600160008573ffffffffffffffffffffffffffffffffffffffff1673ffffffffffffffffffffffffffffffffffffffff16815260200190815260200160002081905550816000546116c591906126e6565b6000819055508273ffffffffffffffffffffffffffffffffffffffff16600073ffffffffffffffffffffffffffffffffffffffff167fddf252ad1be2c89b69c2b068fc378daa952ba7f163c4a11628f55a4df523b3ef84604051611729919061260c565b60405180910390a36001905092915050565b600060076000837bffffffffffffffffffffffffffffffffffffffffffffffffffffffff19167bffffffffffffffffffffffffffffffffffffffffffffffffffffffff1916815260200190815260200160002060010160009054906101000a900460e01b9050919050565b6117b082826111c0565b156118da57600060076000847bffffffffffffffffffffffffffffffffffffffffffffffffffffffff19167bffffffffffffffffffffffffffffffffffffffffffffffffffffffff1916815260200190815260200160002060000160008373ffffffffffffffffffffffffffffffffffffffff1673ffffffffffffffffffffffffffffffffffffffff16815260200190815260200160002060006101000a81548160ff0219169083151502179055503373ffffffffffffffffffffffffffffffffffffffff168173ffffffffffffffffffffffffffffffffffffffff16837bffffffffffffffffffffffffffffffffffffffffffffffffffffffff19167f4ddc7b757e7bdd7254a9cd39452d307a52761bc824625c6a33104a075d8099e660405160405180910390a45b5050565b807bffffffffffffffffffffffffffffffffffffffffffffffffffffffff19166119078361173b565b7bffffffffffffffffffffffffffffffffffffffffffffffffffffffff191614611a08578060076000847bffffffffffffffffffffffffffffffffffffffffffffffffffffffff19167bffffffffffffffffffffffffffffffffffffffffffffffffffffffff1916815260200190815260200160002060010160006101000a81548163ffffffff021916908360e01c0217905550807bffffffffffffffffffffffffffffffffffffffffffffffffffffffff1916827bffffffffffffffffffffffffffffffffffffffffffffffffffffffff19167fd348e2220a50b4500ec353f6e802d2f14dd1b5d6786148fd1bbcc570bf92d47360405160405180910390a35b5050565b600081600160008573ffffffffffffffffffffffffffffffffffffffff1673ffffffffffffffffffffffffffffffffffffffff168152602001908152602001600020541015611a90576040517f08c379a0000000000000000000000000000000000000000000000000000000008152600401611a879061258c565b60405180910390fd5b81600160008573ffffffffffffffffffffffffffffffffffffffff1673ffffffffffffffffffffffffffffffffffffffff1681526020019081526020016000205403600160008573ffffffffffffffffffffffffffffffffffffffff1673ffffffffffffffffffffffffffffffffffffffff168152602001908152602001600020819055508160005403600081905550600073ffffffffffffffffffffffffffffffffffffffff168373ffffffffffffffffffffffffffffffffffffffff167fddf252ad1be2c89b69c2b068fc378daa952ba7f163c4a11628f55a4df523b3ef84604051611b7e919061260c565b60405180910390a36001905092915050565b611b9a82826111c0565b611cc357600160076000847bffffffffffffffffffffffffffffffffffffffffffffffffffffffff19167bffffffffffffffffffffffffffffffffffffffffffffffffffffffff1916815260200190815260200160002060000160008373ffffffffffffffffffffffffffffffffffffffff1673ffffffffffffffffffffffffffffffffffffffff16815260200190815260200160002060006101000a81548160ff0219169083151502179055503373ffffffffffffffffffffffffffffffffffffffff168173ffffffffffffffffffffffffffffffffffffffff16837bffffffffffffffffffffffffffffffffffffffffffffffffffffffff19167fe6231789d19137da31d0550f4ba9ee379020a8cfb64cb79bf1790c996d2e616560405160405180910390a45b5050565b6000611cda611cd584612673565b612642565b90508083825260208201905082856020860282011115611cf957600080fd5b60005b85811015611d295781611d0f8882611d87565b845260208401935060208301925050600181019050611cfc565b5050509392505050565b600081359050611d428161291d565b92915050565b600082601f830112611d5957600080fd5b8135611d69848260208601611cc7565b91505092915050565b600081359050611d8181612934565b92915050565b600081359050611d968161294b565b92915050565b600081359050611dab81612962565b92915050565b600081359050611dc081612979565b92915050565b600060208284031215611dd857600080fd5b6000611de684828501611d33565b91505092915050565b60008060408385031215611e0257600080fd5b6000611e1085828601611d33565b9250506020611e2185828601611d33565b9150509250929050565b600080600060608486031215611e4057600080fd5b6000611e4e86828701611d33565b9350506020611e5f86828701611d33565b9250506040611e7086828701611d9c565b9150509250925092565b600080600080600080600060e0888a031215611e9557600080fd5b6000611ea38a828b01611d33565b9750506020611eb48a828b01611d33565b9650506040611ec58a828b01611d9c565b9550506060611ed68a828b01611d9c565b9450506080611ee78a828b01611db1565b93505060a0611ef88a828b01611d72565b92505060c0611f098a828b01611d72565b91505092959891949750929550565b60008060408385031215611f2b57600080fd5b6000611f3985828601611d33565b9250506020611f4a85828601611d9c565b9150509250929050565b60008060408385031215611f6757600080fd5b600083013567ffffffffffffffff811115611f8157600080fd5b611f8d85828601611d48565b9250506020611f9e85828601611d33565b9150509250929050565b600060208284031215611fba57600080fd5b6000611fc884828501611d87565b91505092915050565b60008060408385031215611fe457600080fd5b6000611ff285828601611d87565b925050602061200385828601611d33565b9150509250929050565b6000806040838503121561202057600080fd5b600061202e85828601611d87565b925050602061203f85828601611d87565b9150509250929050565b6120528161273c565b82525050565b6120618161274e565b82525050565b6120708161275a565b82525050565b6120876120828261275a565b612875565b82525050565b61209681612764565b82525050565b600081546120a9816127fa565b6120b381866126bf565b945060018216600081146120ce57600181146120df57612112565b60ff19831686528186019350612112565b6120e88561269f565b60005b8381101561210a578154818901526001820191506020810190506120eb565b838801955050505b50505092915050565b6000612126826126b4565b61213081856126ca565b93506121408185602086016127c7565b6121498161290c565b840191505092915050565b60006121616002836126db565b91507f19010000000000000000000000000000000000000000000000000000000000006000830152600282019050919050565b60006121a1601d836126ca565b91507f45524332305065726d69743a206578706972656420646561646c696e650000006000830152602082019050919050565b60006121e1601c836126ca565b91507f45524332303a20496e73756666696369656e7420617070726f76616c000000006000830152602082019050919050565b6000612221600a836126ca565b91507f4f6e6c792061646d696e000000000000000000000000000000000000000000006000830152602082019050919050565b6000612261601b836126ca565b91507f45524332303a20496e73756666696369656e742062616c616e636500000000006000830152602082019050919050565b60006122a1601e836126ca565b91507f45524332305065726d69743a20696e76616c6964207369676e617475726500006000830152602082019050919050565b60006122e16016836126ca565b91507f52656e6f756e6365206f6e6c7920666f722073656c66000000000000000000006000830152602082019050919050565b6000612321600d836126ca565b91507f4163636573732064656e696564000000000000000000000000000000000000006000830152602082019050919050565b61235d816127b0565b82525050565b61236c816127ba565b82525050565b600061237e828461209c565b915081905092915050565b600061239482612154565b91506123a08285612076565b6020820191506123b08284612076565b6020820191508190509392505050565b60006020820190506123d56000830184612058565b92915050565b60006020820190506123f06000830184612067565b92915050565b600060c08201905061240b6000830189612067565b6124186020830188612049565b6124256040830187612049565b6124326060830186612354565b61243f6080830185612354565b61244c60a0830184612354565b979650505050505050565b600060a08201905061246c6000830188612067565b6124796020830187612067565b6124866040830186612067565b6124936060830185612354565b6124a06080830184612049565b9695505050505050565b60006080820190506124bf6000830187612067565b6124cc6020830186612363565b6124d96040830185612067565b6124e66060830184612067565b95945050505050565b6000602082019050612504600083018461208d565b92915050565b60006020820190508181036000830152612524818461211b565b905092915050565b6000602082019050818103600083015261254581612194565b9050919050565b60006020820190508181036000830152612565816121d4565b9050919050565b6000602082019050818103600083015261258581612214565b9050919050565b600060208201905081810360008301526125a581612254565b9050919050565b600060208201905081810360008301526125c581612294565b9050919050565b600060208201905081810360008301526125e5816122d4565b9050919050565b6000602082019050818103600083015261260581612314565b9050919050565b60006020820190506126216000830184612354565b92915050565b600060208201905061263c6000830184612363565b92915050565b6000604051905081810181811067ffffffffffffffff82111715612669576126686128dd565b5b8060405250919050565b600067ffffffffffffffff82111561268e5761268d6128dd565b5b602082029050602081019050919050565b60008190508160005260206000209050919050565b600081519050919050565b600081905092915050565b600082825260208201905092915050565b600081905092915050565b60006126f1826127b0565b91506126fc836127b0565b9250827fffffffffffffffffffffffffffffffffffffffffffffffffffffffffffffffff038211156127315761273061287f565b5b828201905092915050565b600061274782612790565b9050919050565b60008115159050919050565b6000819050919050565b60007fffffffff0000000000000000000000000000000000000000000000000000000082169050919050565b600073ffffffffffffffffffffffffffffffffffffffff82169050919050565b6000819050919050565b600060ff82169050919050565b60005b838110156127e55780820151818401526020810190506127ca565b838111156127f4576000848401525b50505050565b6000600282049050600182168061281257607f821691505b60208210811415612826576128256128ae565b5b50919050565b6000612837826127b0565b91507fffffffffffffffffffffffffffffffffffffffffffffffffffffffffffffffff82141561286a5761286961287f565b5b600182019050919050565b6000819050919050565b7f4e487b7100000000000000000000000000000000000000000000000000000000600052601160045260246000fd5b7f4e487b7100000000000000000000000000000000000000000000000000000000600052602260045260246000fd5b7f4e487b7100000000000000000000000000000000000000000000000000000000600052604160045260246000fd5b6000601f19601f8301169050919050565b6129268161273c565b811461293157600080fd5b50565b61293d8161275a565b811461294857600080fd5b50565b61295481612764565b811461295f57600080fd5b50565b61296b816127b0565b811461297657600080fd5b50565b612982816127ba565b811461298d57600080fd5b5056fea26469706673582212203662389f96f7ef1437d213f8129c8df7bab69bef173800df32ece61c5b01d92464736f6c63430008000033",
  "immutableReferences": {
    "1080": [
      {
        "length": 32,
        "start": 1688
      },
      {
        "length": 32,
        "start": 3244
      }
    ],
    "1082": [
      {
        "length": 32,
        "start": 1802
      },
      {
        "length": 32,
        "start": 3465
      }
    ],
    "1084": [
      {
        "length": 32,
        "start": 1749
      },
      {
        "length": 32,
        "start": 3134
      },
      {
        "length": 32,
        "start": 3412
      }
    ]
  },
  "source": "pragma solidity ^0.8.0;\n\nimport \"./yields-utils-v2/token/ERC20Permit.sol\";\nimport \"./yields-utils-v2/access/AccessControl.sol\";\n\ncontract Gold is ERC20Permit, AccessControl {\n    constructor() ERC20Permit(\"Gold\", \"Gold\", 18) {\n        _mint(msg.sender, 2000000 * 10**18);\n    }\n\n    function mint(address dst, uint256 wad) external auth returns (bool) {\n        return _mint(dst, wad);\n    }\n\n    function burn(address dst, uint256 wad) external auth returns (bool) {\n        return _burn(dst, wad);\n    }\n}\n",
  "sourcePath": "/home/vladimirdjukic/Documents/staked/tokens/contracts/Gold.sol",
  "compiler": {
    "name": "solc",
    "version": "0.8.0+commit.c7dfd78e.Emscripten.clang"
  },
  "schemaVersion": "3.4.3",
  "updatedAt": "2021-08-29T12:08:41.889Z",
  "devdoc": {
    "kind": "dev",
    "methods": {
      "DOMAIN_SEPARATOR()": {
        "details": "Return the DOMAIN_SEPARATOR."
      },
      "allowance(address,address)": {
        "details": "See {IERC20-allowance}."
      },
      "approve(address,uint256)": {
        "details": "See {IERC20-approve}."
      },
      "balanceOf(address)": {
        "details": "See {IERC20-balanceOf}."
      },
      "getRoleAdmin(bytes4)": {
        "details": "Returns the admin role that controls `role`. See {grantRole} and {revokeRole}. To change a role's admin, use {_setRoleAdmin}."
      },
      "grantRole(bytes4,address)": {
        "details": "Grants `role` to `account`. If `account` had not been already granted `role`, emits a {RoleGranted} event. Requirements: - the caller must have ``role``'s admin role."
      },
      "grantRoles(bytes4[],address)": {
        "details": "Grants all of `role` in `roles` to `account`. If `account` had not been already granted `role`, emits a {RoleGranted} event. Requirements: - For each `role` in `roles`, the caller must have ``role``'s admin role."
      },
      "hasRole(bytes4,address)": {
        "details": "Returns `true` if `account` has been granted `role`."
      },
      "lockRole(bytes4)": {
        "details": "Sets LOCK as ``role``'s admin role. LOCK has no members, so this disables admin management of ``role``. Emits a {RoleAdminChanged} event. Requirements: - the caller must have ``role``'s admin role."
      },
      "permit(address,address,uint256,uint256,uint8,bytes32,bytes32)": {
        "details": "See {IERC2612-permit}. In cases where the free option is not a concern, deadline can simply be set to uint(-1), so it should be seen as an optional parameter"
      },
      "renounceRole(bytes4,address)": {
        "details": "Revokes `role` from the calling account. Roles are often managed via {grantRole} and {revokeRole}: this function's purpose is to provide a mechanism for accounts to lose their privileges if they are compromised (such as when a trusted device is misplaced). If the calling account had been granted `role`, emits a {RoleRevoked} event. Requirements: - the caller must be `account`."
      },
      "revokeRole(bytes4,address)": {
        "details": "Revokes `role` from `account`. If `account` had been granted `role`, emits a {RoleRevoked} event. Requirements: - the caller must have ``role``'s admin role."
      },
      "revokeRoles(bytes4[],address)": {
        "details": "Revokes all of `role` in `roles` from `account`. If `account` had been granted `role`, emits a {RoleRevoked} event. Requirements: - For each `role` in `roles`, the caller must have ``role``'s admin role."
      },
      "setRoleAdmin(bytes4,bytes4)": {
        "details": "Sets `adminRole` as ``role``'s admin role. If ``role``'s admin role is not `adminRole` emits a {RoleAdminChanged} event. Requirements: - the caller must have ``role``'s admin role."
      },
      "totalSupply()": {
        "details": "See {IERC20-totalSupply}."
      },
      "transfer(address,uint256)": {
        "details": "See {IERC20-transfer}. Requirements: - the caller must have a balance of at least `wad`."
      },
      "version()": {
        "details": "Setting the version as a function so that it can be overriden"
      }
    },
    "version": 1
  },
  "userdoc": {
    "kind": "user",
    "methods": {
      "transferFrom(address,address,uint256)": {
        "notice": "if_succeeds {:msg \"TransferFrom - decrease allowance\"} msg.sender != src ==> old(_allowance[src][msg.sender]) >= wad;"
      }
    },
    "version": 1
  }
}