{
  "contractName": "RestrictedERC20Mock",
  "abi": [
    {
      "inputs": [
        {
          "internalType": "string",
          "name": "name",
          "type": "string"
        },
        {
          "internalType": "string",
          "name": "symbol",
          "type": "string"
        }
      ],
      "stateMutability": "nonpayable",
      "type": "constructor"
    },
    {
      "anonymous": false,
      "inputs": [
        {
          "indexed": true,
          "internalType": "address",
          "name": "owner",
          "type": "address"
        },
        {
          "indexed": true,
          "internalType": "address",
          "name": "spender",
          "type": "address"
        },
        {
          "indexed": false,
          "internalType": "uint256",
          "name": "value",
          "type": "uint256"
        }
      ],
      "name": "Approval",
      "type": "event"
    },
    {
      "anonymous": false,
      "inputs": [
        {
          "indexed": true,
          "internalType": "bytes4",
          "name": "role",
          "type": "bytes4"
        },
        {
          "indexed": true,
          "internalType": "bytes4",
          "name": "newAdminRole",
          "type": "bytes4"
        }
      ],
      "name": "RoleAdminChanged",
      "type": "event"
    },
    {
      "anonymous": false,
      "inputs": [
        {
          "indexed": true,
          "internalType": "bytes4",
          "name": "role",
          "type": "bytes4"
        },
        {
          "indexed": true,
          "internalType": "address",
          "name": "account",
          "type": "address"
        },
        {
          "indexed": true,
          "internalType": "address",
          "name": "sender",
          "type": "address"
        }
      ],
      "name": "RoleGranted",
      "type": "event"
    },
    {
      "anonymous": false,
      "inputs": [
        {
          "indexed": true,
          "internalType": "bytes4",
          "name": "role",
          "type": "bytes4"
        },
        {
          "indexed": true,
          "internalType": "address",
          "name": "account",
          "type": "address"
        },
        {
          "indexed": true,
          "internalType": "address",
          "name": "sender",
          "type": "address"
        }
      ],
      "name": "RoleRevoked",
      "type": "event"
    },
    {
      "anonymous": false,
      "inputs": [
        {
          "indexed": true,
          "internalType": "address",
          "name": "from",
          "type": "address"
        },
        {
          "indexed": true,
          "internalType": "address",
          "name": "to",
          "type": "address"
        },
        {
          "indexed": false,
          "internalType": "uint256",
          "name": "value",
          "type": "uint256"
        }
      ],
      "name": "Transfer",
      "type": "event"
    },
    {
      "inputs": [],
      "name": "DOMAIN_SEPARATOR",
      "outputs": [
        {
          "internalType": "bytes32",
          "name": "",
          "type": "bytes32"
        }
      ],
      "stateMutability": "view",
      "type": "function"
    },
    {
      "inputs": [],
      "name": "LOCK",
      "outputs": [
        {
          "internalType": "bytes4",
          "name": "",
          "type": "bytes4"
        }
      ],
      "stateMutability": "view",
      "type": "function"
    },
    {
      "inputs": [],
      "name": "PERMIT_TYPEHASH",
      "outputs": [
        {
          "internalType": "bytes32",
          "name": "",
          "type": "bytes32"
        }
      ],
      "stateMutability": "view",
      "type": "function"
    },
    {
      "inputs": [],
      "name": "ROOT",
      "outputs": [
        {
          "internalType": "bytes4",
          "name": "",
          "type": "bytes4"
        }
      ],
      "stateMutability": "view",
      "type": "function"
    },
    {
      "inputs": [
        {
          "internalType": "address",
          "name": "owner",
          "type": "address"
        },
        {
          "internalType": "address",
          "name": "spender",
          "type": "address"
        }
      ],
      "name": "allowance",
      "outputs": [
        {
          "internalType": "uint256",
          "name": "",
          "type": "uint256"
        }
      ],
      "stateMutability": "view",
      "type": "function"
    },
    {
      "inputs": [
        {
          "internalType": "address",
          "name": "spender",
          "type": "address"
        },
        {
          "internalType": "uint256",
          "name": "wad",
          "type": "uint256"
        }
      ],
      "name": "approve",
      "outputs": [
        {
          "internalType": "bool",
          "name": "",
          "type": "bool"
        }
      ],
      "stateMutability": "nonpayable",
      "type": "function"
    },
    {
      "inputs": [
        {
          "internalType": "address",
          "name": "guy",
          "type": "address"
        }
      ],
      "name": "balanceOf",
      "outputs": [
        {
          "internalType": "uint256",
          "name": "",
          "type": "uint256"
        }
      ],
      "stateMutability": "view",
      "type": "function"
    },
    {
      "inputs": [],
      "name": "decimals",
      "outputs": [
        {
          "internalType": "uint8",
          "name": "",
          "type": "uint8"
        }
      ],
      "stateMutability": "view",
      "type": "function"
    },
    {
      "inputs": [],
      "name": "deploymentChainId",
      "outputs": [
        {
          "internalType": "uint256",
          "name": "",
          "type": "uint256"
        }
      ],
      "stateMutability": "view",
      "type": "function"
    },
    {
      "inputs": [
        {
          "internalType": "bytes4",
          "name": "role",
          "type": "bytes4"
        }
      ],
      "name": "getRoleAdmin",
      "outputs": [
        {
          "internalType": "bytes4",
          "name": "",
          "type": "bytes4"
        }
      ],
      "stateMutability": "view",
      "type": "function"
    },
    {
      "inputs": [
        {
          "internalType": "bytes4",
          "name": "role",
          "type": "bytes4"
        },
        {
          "internalType": "address",
          "name": "account",
          "type": "address"
        }
      ],
      "name": "grantRole",
      "outputs": [],
      "stateMutability": "nonpayable",
      "type": "function"
    },
    {
      "inputs": [
        {
          "internalType": "bytes4[]",
          "name": "roles",
          "type": "bytes4[]"
        },
        {
          "internalType": "address",
          "name": "account",
          "type": "address"
        }
      ],
      "name": "grantRoles",
      "outputs": [],
      "stateMutability": "nonpayable",
      "type": "function"
    },
    {
      "inputs": [
        {
          "internalType": "bytes4",
          "name": "role",
          "type": "bytes4"
        },
        {
          "internalType": "address",
          "name": "account",
          "type": "address"
        }
      ],
      "name": "hasRole",
      "outputs": [
        {
          "internalType": "bool",
          "name": "",
          "type": "bool"
        }
      ],
      "stateMutability": "view",
      "type": "function"
    },
    {
      "inputs": [
        {
          "internalType": "bytes4",
          "name": "role",
          "type": "bytes4"
        }
      ],
      "name": "lockRole",
      "outputs": [],
      "stateMutability": "nonpayable",
      "type": "function"
    },
    {
      "inputs": [],
      "name": "name",
      "outputs": [
        {
          "internalType": "string",
          "name": "",
          "type": "string"
        }
      ],
      "stateMutability": "view",
      "type": "function"
    },
    {
      "inputs": [
        {
          "internalType": "address",
          "name": "",
          "type": "address"
        }
      ],
      "name": "nonces",
      "outputs": [
        {
          "internalType": "uint256",
          "name": "",
          "type": "uint256"
        }
      ],
      "stateMutability": "view",
      "type": "function"
    },
    {
      "inputs": [
        {
          "internalType": "address",
          "name": "owner",
          "type": "address"
        },
        {
          "internalType": "address",
          "name": "spender",
          "type": "address"
        },
        {
          "internalType": "uint256",
          "name": "amount",
          "type": "uint256"
        },
        {
          "internalType": "uint256",
          "name": "deadline",
          "type": "uint256"
        },
        {
          "internalType": "uint8",
          "name": "v",
          "type": "uint8"
        },
        {
          "internalType": "bytes32",
          "name": "r",
          "type": "bytes32"
        },
        {
          "internalType": "bytes32",
          "name": "s",
          "type": "bytes32"
        }
      ],
      "name": "permit",
      "outputs": [],
      "stateMutability": "nonpayable",
      "type": "function"
    },
    {
      "inputs": [
        {
          "internalType": "bytes4",
          "name": "role",
          "type": "bytes4"
        },
        {
          "internalType": "address",
          "name": "account",
          "type": "address"
        }
      ],
      "name": "renounceRole",
      "outputs": [],
      "stateMutability": "nonpayable",
      "type": "function"
    },
    {
      "inputs": [
        {
          "internalType": "bytes4",
          "name": "role",
          "type": "bytes4"
        },
        {
          "internalType": "address",
          "name": "account",
          "type": "address"
        }
      ],
      "name": "revokeRole",
      "outputs": [],
      "stateMutability": "nonpayable",
      "type": "function"
    },
    {
      "inputs": [
        {
          "internalType": "bytes4[]",
          "name": "roles",
          "type": "bytes4[]"
        },
        {
          "internalType": "address",
          "name": "account",
          "type": "address"
        }
      ],
      "name": "revokeRoles",
      "outputs": [],
      "stateMutability": "nonpayable",
      "type": "function"
    },
    {
      "inputs": [
        {
          "internalType": "bytes4",
          "name": "role",
          "type": "bytes4"
        },
        {
          "internalType": "bytes4",
          "name": "adminRole",
          "type": "bytes4"
        }
      ],
      "name": "setRoleAdmin",
      "outputs": [],
      "stateMutability": "nonpayable",
      "type": "function"
    },
    {
      "inputs": [],
      "name": "symbol",
      "outputs": [
        {
          "internalType": "string",
          "name": "",
          "type": "string"
        }
      ],
      "stateMutability": "view",
      "type": "function"
    },
    {
      "inputs": [],
      "name": "totalSupply",
      "outputs": [
        {
          "internalType": "uint256",
          "name": "",
          "type": "uint256"
        }
      ],
      "stateMutability": "view",
      "type": "function"
    },
    {
      "inputs": [
        {
          "internalType": "address",
          "name": "dst",
          "type": "address"
        },
        {
          "internalType": "uint256",
          "name": "wad",
          "type": "uint256"
        }
      ],
      "name": "transfer",
      "outputs": [
        {
          "internalType": "bool",
          "name": "",
          "type": "bool"
        }
      ],
      "stateMutability": "nonpayable",
      "type": "function"
    },
    {
      "inputs": [
        {
          "internalType": "address",
          "name": "src",
          "type": "address"
        },
        {
          "internalType": "address",
          "name": "dst",
          "type": "address"
        },
        {
          "internalType": "uint256",
          "name": "wad",
          "type": "uint256"
        }
      ],
      "name": "transferFrom",
      "outputs": [
        {
          "internalType": "bool",
          "name": "",
          "type": "bool"
        }
      ],
      "stateMutability": "nonpayable",
      "type": "function"
    },
    {
      "inputs": [],
      "name": "version",
      "outputs": [
        {
          "internalType": "string",
          "name": "",
          "type": "string"
        }
      ],
      "stateMutability": "pure",
      "type": "function"
    },
    {
      "inputs": [
        {
          "internalType": "address",
          "name": "to",
          "type": "address"
        },
        {
          "internalType": "uint256",
          "name": "amount",
          "type": "uint256"
        }
      ],
      "name": "mint",
      "outputs": [],
      "stateMutability": "nonpayable",
      "type": "function"
    },
    {
      "inputs": [
        {
          "internalType": "address",
          "name": "from",
          "type": "address"
        },
        {
          "internalType": "uint256",
          "name": "amount",
          "type": "uint256"
        }
      ],
      "name": "burn",
      "outputs": [],
      "stateMutability": "nonpayable",
      "type": "function"
    }
  ],
  "bytecode": "0x60e06040526040518060400160405280600381526020017f3f3f3f0000000000000000000000000000000000000000000000000000000000815250600490805190602001906200005192919062000620565b506040518060400160405280600381526020017f3f3f3f0000000000000000000000000000000000000000000000000000000000815250600590805190602001906200009f92919062000620565b506012600660006101000a81548160ff021916908360ff1602179055507f6e71edae12b1b97f4d1f60370fef10105fa2faae0126114a169c64845d6126c9608090815250348015620000f057600080fd5b506040516200345e3803806200345e833981810160405281019062000116919062000742565b8181601282828262000133600060e01b33620001d460201b60201c565b6200015363ffffffff60e01b63ffffffff60e01b6200031360201b60201c565b82600490805190602001906200016b92919062000620565b5081600590805190602001906200018492919062000620565b5080600660006101000a81548160ff021916908360ff16021790555050505060004690508060c08181525050620001c1816200044960201b60201c565b60a0818152505050505050505062000a82565b620001e68282620004d160201b60201c565b6200030f576001600080847bffffffffffffffffffffffffffffffffffffffffffffffffffffffff19167bffffffffffffffffffffffffffffffffffffffffffffffffffffffff1916815260200190815260200160002060000160008373ffffffffffffffffffffffffffffffffffffffff1673ffffffffffffffffffffffffffffffffffffffff16815260200190815260200160002060006101000a81548160ff0219169083151502179055503373ffffffffffffffffffffffffffffffffffffffff168173ffffffffffffffffffffffffffffffffffffffff16837bffffffffffffffffffffffffffffffffffffffffffffffffffffffff19167fe6231789d19137da31d0550f4ba9ee379020a8cfb64cb79bf1790c996d2e616560405160405180910390a45b5050565b807bffffffffffffffffffffffffffffffffffffffffffffffffffffffff191662000344836200057960201b60201c565b7bffffffffffffffffffffffffffffffffffffffffffffffffffffffff191614620004455780600080847bffffffffffffffffffffffffffffffffffffffffffffffffffffffff19167bffffffffffffffffffffffffffffffffffffffffffffffffffffffff1916815260200190815260200160002060010160006101000a81548163ffffffff021916908360e01c0217905550807bffffffffffffffffffffffffffffffffffffffffffffffffffffffff1916827bffffffffffffffffffffffffffffffffffffffffffffffffffffffff19167fd348e2220a50b4500ec353f6e802d2f14dd1b5d6786148fd1bbcc570bf92d47360405160405180910390a35b5050565b60007f8b73c3c69bb8fe3d512ecc4cf759cc79239f7b179b0ffacaa9a75d522b39400f60046040516200047d919062000873565b604051809103902062000495620005e360201b60201c565b805190602001208430604051602001620004b49594939291906200088c565b604051602081830303815290604052805190602001209050919050565b6000806000847bffffffffffffffffffffffffffffffffffffffffffffffffffffffff19167bffffffffffffffffffffffffffffffffffffffffffffffffffffffff1916815260200190815260200160002060000160008373ffffffffffffffffffffffffffffffffffffffff1673ffffffffffffffffffffffffffffffffffffffff16815260200190815260200160002060009054906101000a900460ff16905092915050565b6000806000837bffffffffffffffffffffffffffffffffffffffffffffffffffffffff19167bffffffffffffffffffffffffffffffffffffffffffffffffffffffff1916815260200190815260200160002060010160009054906101000a900460e01b9050919050565b60606040518060400160405280600181526020017f3100000000000000000000000000000000000000000000000000000000000000815250905090565b8280546200062e90620009ee565b90600052602060002090601f0160209004810192826200065257600085556200069e565b82601f106200066d57805160ff19168380011785556200069e565b828001600101855582156200069e579182015b828111156200069d57825182559160200191906001019062000680565b5b509050620006ad9190620006b1565b5090565b5b80821115620006cc576000816000905550600101620006b2565b5090565b6000620006e7620006e1846200091d565b620008e9565b9050828152602081018484840111156200070057600080fd5b6200070d848285620009b8565b509392505050565b600082601f8301126200072757600080fd5b815162000739848260208601620006d0565b91505092915050565b600080604083850312156200075657600080fd5b600083015167ffffffffffffffff8111156200077157600080fd5b6200077f8582860162000715565b925050602083015167ffffffffffffffff8111156200079d57600080fd5b620007ab8582860162000715565b9150509250929050565b620007c08162000970565b82525050565b620007d18162000984565b82525050565b60008154620007e681620009ee565b620007f2818662000965565b94506001821660008114620008105760018114620008225762000859565b60ff1983168652818601935062000859565b6200082d8562000950565b60005b83811015620008515781548189015260018201915060208101905062000830565b838801955050505b50505092915050565b6200086d81620009ae565b82525050565b6000620008818284620007d7565b915081905092915050565b600060a082019050620008a36000830188620007c6565b620008b26020830187620007c6565b620008c16040830186620007c6565b620008d0606083018562000862565b620008df6080830184620007b5565b9695505050505050565b6000604051905081810181811067ffffffffffffffff8211171562000913576200091262000a53565b5b8060405250919050565b600067ffffffffffffffff8211156200093b576200093a62000a53565b5b601f19601f8301169050602081019050919050565b60008190508160005260206000209050919050565b600081905092915050565b60006200097d826200098e565b9050919050565b6000819050919050565b600073ffffffffffffffffffffffffffffffffffffffff82169050919050565b6000819050919050565b60005b83811015620009d8578082015181840152602081019050620009bb565b83811115620009e8576000848401525b50505050565b6000600282049050600182168062000a0757607f821691505b6020821081141562000a1e5762000a1d62000a24565b5b50919050565b7f4e487b7100000000000000000000000000000000000000000000000000000000600052602260045260246000fd5b7f4e487b7100000000000000000000000000000000000000000000000000000000600052604160045260246000fd5b60805160a05160c05161299062000ace600039600081816106ae01528181610c0d0152610d230152600081816106e30152610d580152600081816106710152610c7b01526129906000f3fe608060405234801561001057600080fd5b50600436106101c45760003560e01c8063687f0e4c116100f9578063ad82110f11610097578063d505accf11610071578063d505accf14610509578063dd62ed3e14610525578063de02cde714610555578063effae35314610571576101c4565b8063ad82110f146104b3578063ae93c1b5146104cf578063cd0d0096146104eb576101c4565b806395d89b41116100d357806395d89b411461042b5780639dc29fac14610449578063a4f0d7d014610465578063a9059cbb14610483576101c4565b8063687f0e4c146103af57806370a08231146103cb5780637ecebe00146103fb576101c4565b80633644e5151161016657806354fd4d501161014057806354fd4d5014610327578063559742d9146103455780635909c12f146103615780635ba5e9f01461037f576101c4565b80633644e515146102d157806340c10f19146102ef57806344faded01461030b576101c4565b806318160ddd116101a257806318160ddd1461024757806323b872dd1461026557806330adf81f14610295578063313ce567146102b3576101c4565b806306fdde03146101c9578063095ea7b3146101e757806310ab943214610217575b600080fd5b6101d161058d565b6040516101de91906124d4565b60405180910390f35b61020160048036038101906101fc9190611ee2565b61061b565b60405161020e919061238a565b60405180910390f35b610231600480360381019061022c9190611f9b565b610630565b60405161023e919061238a565b60405180910390f35b61024f610644565b60405161025c91906125d6565b60405180910390f35b61027f600480360381019061027a9190611df5565b61064e565b60405161028c919061238a565b60405180910390f35b61029d61066f565b6040516102aa91906123a5565b60405180910390f35b6102bb610693565b6040516102c891906125f1565b60405180910390f35b6102d96106a6565b6040516102e691906123a5565b60405180910390f35b61030960048036038101906103049190611ee2565b610709565b005b61032560048036038101906103209190611f9b565b610785565b005b61032f6107e6565b60405161033c91906124d4565b60405180910390f35b61035f600480360381019061035a9190611f72565b610823565b005b61036961088a565b60405161037691906124b9565b60405180910390f35b61039960048036038101906103949190611f72565b610892565b6040516103a691906124b9565b60405180910390f35b6103c960048036038101906103c49190611f9b565b6108a4565b005b6103e560048036038101906103e09190611d90565b610920565b6040516103f291906125d6565b60405180910390f35b61041560048036038101906104109190611d90565b610969565b60405161042291906125d6565b60405180910390f35b610433610981565b60405161044091906124d4565b60405180910390f35b610463600480360381019061045e9190611ee2565b610a0f565b005b61046d610a8b565b60405161047a91906124b9565b60405180910390f35b61049d60048036038101906104989190611ee2565b610a96565b6040516104aa919061238a565b60405180910390f35b6104cd60048036038101906104c89190611f1e565b610aab565b005b6104e960048036038101906104e49190611fd7565b610baa565b005b6104f3610c0b565b60405161050091906125d6565b60405180910390f35b610523600480360381019061051e9190611e44565b610c2f565b005b61053f600480360381019061053a9190611db9565b610eb5565b60405161054c91906125d6565b60405180910390f35b61056f600480360381019061056a9190611f9b565b610f3c565b005b61058b60048036038101906105869190611f1e565b610f9d565b005b6004805461059a906127c4565b80601f01602080910402602001604051908101604052809291908181526020018280546105c6906127c4565b80156106135780601f106105e857610100808354040283529160200191610613565b820191906000526020600020905b8154815290600101906020018083116105f657829003601f168201915b505050505081565b600061062833848461109c565b905092915050565b600061063c838361118f565b905092915050565b6000600154905090565b600061065a8483611237565b50610666848484611372565b90509392505050565b7f000000000000000000000000000000000000000000000000000000000000000081565b600660009054906101000a900460ff1681565b6000804690507f000000000000000000000000000000000000000000000000000000000000000081146106e1576106dc81611579565b610703565b7f00000000000000000000000000000000000000000000000000000000000000005b91505090565b6107376000357fffffffff00000000000000000000000000000000000000000000000000000000163361118f565b610776576040517f08c379a000000000000000000000000000000000000000000000000000000000815260040161076d906125b6565b60405180910390fd5b61078082826115f5565b505050565b8161079861079282611709565b3361118f565b6107d7576040517f08c379a00000000000000000000000000000000000000000000000000000000081526004016107ce90612536565b60405180910390fd5b6107e18383611773565b505050565b60606040518060400160405280600181526020017f3100000000000000000000000000000000000000000000000000000000000000815250905090565b8061083661083082611709565b3361118f565b610875576040517f08c379a000000000000000000000000000000000000000000000000000000000815260040161086c90612536565b60405180910390fd5b6108868263ffffffff60e01b6118aa565b5050565b600060e01b81565b600061089d82611709565b9050919050565b3373ffffffffffffffffffffffffffffffffffffffff168173ffffffffffffffffffffffffffffffffffffffff1614610912576040517f08c379a000000000000000000000000000000000000000000000000000000000815260040161090990612596565b60405180910390fd5b61091c8282611773565b5050565b6000600260008373ffffffffffffffffffffffffffffffffffffffff1673ffffffffffffffffffffffffffffffffffffffff168152602001908152602001600020549050919050565b60076020528060005260406000206000915090505481565b6005805461098e906127c4565b80601f01602080910402602001604051908101604052809291908181526020018280546109ba906127c4565b8015610a075780601f106109dc57610100808354040283529160200191610a07565b820191906000526020600020905b8154815290600101906020018083116109ea57829003601f168201915b505050505081565b610a3d6000357fffffffff00000000000000000000000000000000000000000000000000000000163361118f565b610a7c576040517f08c379a0000000000000000000000000000000000000000000000000000000008152600401610a73906125b6565b60405180910390fd5b610a8682826119d7565b505050565b63ffffffff60e01b81565b6000610aa3338484611372565b905092915050565b60005b8251811015610ba557610b09610b03848381518110610af6577f4e487b7100000000000000000000000000000000000000000000000000000000600052603260045260246000fd5b6020026020010151611709565b3361118f565b610b48576040517f08c379a0000000000000000000000000000000000000000000000000000000008152600401610b3f90612536565b60405180910390fd5b610b92838281518110610b84577f4e487b7100000000000000000000000000000000000000000000000000000000600052603260045260246000fd5b602002602001015183611773565b8080610b9d906127f6565b915050610aae565b505050565b81610bbd610bb782611709565b3361118f565b610bfc576040517f08c379a0000000000000000000000000000000000000000000000000000000008152600401610bf390612536565b60405180910390fd5b610c0683836118aa565b505050565b7f000000000000000000000000000000000000000000000000000000000000000081565b42841015610c72576040517f08c379a0000000000000000000000000000000000000000000000000000000008152600401610c69906124f6565b60405180910390fd5b600046905060007f0000000000000000000000000000000000000000000000000000000000000000898989600760008e73ffffffffffffffffffffffffffffffffffffffff1673ffffffffffffffffffffffffffffffffffffffff1681526020019081526020016000206000815480929190610ced906127f6565b919050558a604051602001610d07969594939291906123c0565b60405160208183030381529060405280519060200120905060007f00000000000000000000000000000000000000000000000000000000000000008314610d5657610d5183611579565b610d78565b7f00000000000000000000000000000000000000000000000000000000000000005b82604051602001610d8a929190612353565b604051602081830303815290604052805190602001209050600060018288888860405160008152602001604052604051610dc79493929190612474565b6020604051602081039080840390855afa158015610de9573d6000803e3d6000fd5b505050602060405103519050600073ffffffffffffffffffffffffffffffffffffffff168173ffffffffffffffffffffffffffffffffffffffff1614158015610e5d57508a73ffffffffffffffffffffffffffffffffffffffff168173ffffffffffffffffffffffffffffffffffffffff16145b610e9c576040517f08c379a0000000000000000000000000000000000000000000000000000000008152600401610e9390612576565b60405180910390fd5b610ea78b8b8b61109c565b505050505050505050505050565b6000600360008473ffffffffffffffffffffffffffffffffffffffff1673ffffffffffffffffffffffffffffffffffffffff16815260200190815260200160002060008373ffffffffffffffffffffffffffffffffffffffff1673ffffffffffffffffffffffffffffffffffffffff16815260200190815260200160002054905092915050565b81610f4f610f4982611709565b3361118f565b610f8e576040517f08c379a0000000000000000000000000000000000000000000000000000000008152600401610f8590612536565b60405180910390fd5b610f988383611b5b565b505050565b60005b825181101561109757610ffb610ff5848381518110610fe8577f4e487b7100000000000000000000000000000000000000000000000000000000600052603260045260246000fd5b6020026020010151611709565b3361118f565b61103a576040517f08c379a000000000000000000000000000000000000000000000000000000000815260040161103190612536565b60405180910390fd5b611084838281518110611076577f4e487b7100000000000000000000000000000000000000000000000000000000600052603260045260246000fd5b602002602001015183611b5b565b808061108f906127f6565b915050610fa0565b505050565b600081600360008673ffffffffffffffffffffffffffffffffffffffff1673ffffffffffffffffffffffffffffffffffffffff16815260200190815260200160002060008573ffffffffffffffffffffffffffffffffffffffff1673ffffffffffffffffffffffffffffffffffffffff168152602001908152602001600020819055508273ffffffffffffffffffffffffffffffffffffffff168473ffffffffffffffffffffffffffffffffffffffff167f8c5be1e5ebec7d5bd14f71427d1e84f3dd0314c0f7b2291e5b200ac8c7c3b9258460405161117c91906125d6565b60405180910390a3600190509392505050565b6000806000847bffffffffffffffffffffffffffffffffffffffffffffffffffffffff19167bffffffffffffffffffffffffffffffffffffffffffffffffffffffff1916815260200190815260200160002060000160008373ffffffffffffffffffffffffffffffffffffffff1673ffffffffffffffffffffffffffffffffffffffff16815260200190815260200160002060009054906101000a900460ff16905092915050565b60003373ffffffffffffffffffffffffffffffffffffffff168373ffffffffffffffffffffffffffffffffffffffff1614611368576000600360008573ffffffffffffffffffffffffffffffffffffffff1673ffffffffffffffffffffffffffffffffffffffff16815260200190815260200160002060003373ffffffffffffffffffffffffffffffffffffffff1673ffffffffffffffffffffffffffffffffffffffff1681526020019081526020016000205490507fffffffffffffffffffffffffffffffffffffffffffffffffffffffffffffffff81146113665782811015611357576040517f08c379a000000000000000000000000000000000000000000000000000000000815260040161134e90612516565b60405180910390fd5b611364843385840361109c565b505b505b6001905092915050565b600081600260008673ffffffffffffffffffffffffffffffffffffffff1673ffffffffffffffffffffffffffffffffffffffff1681526020019081526020016000205410156113f6576040517f08c379a00000000000000000000000000000000000000000000000000000000081526004016113ed90612556565b60405180910390fd5b81600260008673ffffffffffffffffffffffffffffffffffffffff1673ffffffffffffffffffffffffffffffffffffffff1681526020019081526020016000205403600260008673ffffffffffffffffffffffffffffffffffffffff1673ffffffffffffffffffffffffffffffffffffffff1681526020019081526020016000208190555081600260008573ffffffffffffffffffffffffffffffffffffffff1673ffffffffffffffffffffffffffffffffffffffff168152602001908152602001600020546114c691906126b0565b600260008573ffffffffffffffffffffffffffffffffffffffff1673ffffffffffffffffffffffffffffffffffffffff168152602001908152602001600020819055508273ffffffffffffffffffffffffffffffffffffffff168473ffffffffffffffffffffffffffffffffffffffff167fddf252ad1be2c89b69c2b068fc378daa952ba7f163c4a11628f55a4df523b3ef8460405161156691906125d6565b60405180910390a3600190509392505050565b60007f8b73c3c69bb8fe3d512ecc4cf759cc79239f7b179b0ffacaa9a75d522b39400f60046040516115ab919061233c565b60405180910390206115bb6107e6565b8051906020012084306040516020016115d8959493929190612421565b604051602081830303815290604052805190602001209050919050565b600081600260008573ffffffffffffffffffffffffffffffffffffffff1673ffffffffffffffffffffffffffffffffffffffff1681526020019081526020016000205461164291906126b0565b600260008573ffffffffffffffffffffffffffffffffffffffff1673ffffffffffffffffffffffffffffffffffffffff168152602001908152602001600020819055508160015461169391906126b0565b6001819055508273ffffffffffffffffffffffffffffffffffffffff16600073ffffffffffffffffffffffffffffffffffffffff167fddf252ad1be2c89b69c2b068fc378daa952ba7f163c4a11628f55a4df523b3ef846040516116f791906125d6565b60405180910390a36001905092915050565b6000806000837bffffffffffffffffffffffffffffffffffffffffffffffffffffffff19167bffffffffffffffffffffffffffffffffffffffffffffffffffffffff1916815260200190815260200160002060010160009054906101000a900460e01b9050919050565b61177d828261118f565b156118a6576000806000847bffffffffffffffffffffffffffffffffffffffffffffffffffffffff19167bffffffffffffffffffffffffffffffffffffffffffffffffffffffff1916815260200190815260200160002060000160008373ffffffffffffffffffffffffffffffffffffffff1673ffffffffffffffffffffffffffffffffffffffff16815260200190815260200160002060006101000a81548160ff0219169083151502179055503373ffffffffffffffffffffffffffffffffffffffff168173ffffffffffffffffffffffffffffffffffffffff16837bffffffffffffffffffffffffffffffffffffffffffffffffffffffff19167f4ddc7b757e7bdd7254a9cd39452d307a52761bc824625c6a33104a075d8099e660405160405180910390a45b5050565b807bffffffffffffffffffffffffffffffffffffffffffffffffffffffff19166118d383611709565b7bffffffffffffffffffffffffffffffffffffffffffffffffffffffff1916146119d35780600080847bffffffffffffffffffffffffffffffffffffffffffffffffffffffff19167bffffffffffffffffffffffffffffffffffffffffffffffffffffffff1916815260200190815260200160002060010160006101000a81548163ffffffff021916908360e01c0217905550807bffffffffffffffffffffffffffffffffffffffffffffffffffffffff1916827bffffffffffffffffffffffffffffffffffffffffffffffffffffffff19167fd348e2220a50b4500ec353f6e802d2f14dd1b5d6786148fd1bbcc570bf92d47360405160405180910390a35b5050565b600081600260008573ffffffffffffffffffffffffffffffffffffffff1673ffffffffffffffffffffffffffffffffffffffff168152602001908152602001600020541015611a5b576040517f08c379a0000000000000000000000000000000000000000000000000000000008152600401611a5290612556565b60405180910390fd5b81600260008573ffffffffffffffffffffffffffffffffffffffff1673ffffffffffffffffffffffffffffffffffffffff1681526020019081526020016000205403600260008573ffffffffffffffffffffffffffffffffffffffff1673ffffffffffffffffffffffffffffffffffffffff168152602001908152602001600020819055508160015403600181905550600073ffffffffffffffffffffffffffffffffffffffff168373ffffffffffffffffffffffffffffffffffffffff167fddf252ad1be2c89b69c2b068fc378daa952ba7f163c4a11628f55a4df523b3ef84604051611b4991906125d6565b60405180910390a36001905092915050565b611b65828261118f565b611c8d576001600080847bffffffffffffffffffffffffffffffffffffffffffffffffffffffff19167bffffffffffffffffffffffffffffffffffffffffffffffffffffffff1916815260200190815260200160002060000160008373ffffffffffffffffffffffffffffffffffffffff1673ffffffffffffffffffffffffffffffffffffffff16815260200190815260200160002060006101000a81548160ff0219169083151502179055503373ffffffffffffffffffffffffffffffffffffffff168173ffffffffffffffffffffffffffffffffffffffff16837bffffffffffffffffffffffffffffffffffffffffffffffffffffffff19167fe6231789d19137da31d0550f4ba9ee379020a8cfb64cb79bf1790c996d2e616560405160405180910390a45b5050565b6000611ca4611c9f8461263d565b61260c565b90508083825260208201905082856020860282011115611cc357600080fd5b60005b85811015611cf35781611cd98882611d51565b845260208401935060208301925050600181019050611cc6565b5050509392505050565b600081359050611d0c816128e7565b92915050565b600082601f830112611d2357600080fd5b8135611d33848260208601611c91565b91505092915050565b600081359050611d4b816128fe565b92915050565b600081359050611d6081612915565b92915050565b600081359050611d758161292c565b92915050565b600081359050611d8a81612943565b92915050565b600060208284031215611da257600080fd5b6000611db084828501611cfd565b91505092915050565b60008060408385031215611dcc57600080fd5b6000611dda85828601611cfd565b9250506020611deb85828601611cfd565b9150509250929050565b600080600060608486031215611e0a57600080fd5b6000611e1886828701611cfd565b9350506020611e2986828701611cfd565b9250506040611e3a86828701611d66565b9150509250925092565b600080600080600080600060e0888a031215611e5f57600080fd5b6000611e6d8a828b01611cfd565b9750506020611e7e8a828b01611cfd565b9650506040611e8f8a828b01611d66565b9550506060611ea08a828b01611d66565b9450506080611eb18a828b01611d7b565b93505060a0611ec28a828b01611d3c565b92505060c0611ed38a828b01611d3c565b91505092959891949750929550565b60008060408385031215611ef557600080fd5b6000611f0385828601611cfd565b9250506020611f1485828601611d66565b9150509250929050565b60008060408385031215611f3157600080fd5b600083013567ffffffffffffffff811115611f4b57600080fd5b611f5785828601611d12565b9250506020611f6885828601611cfd565b9150509250929050565b600060208284031215611f8457600080fd5b6000611f9284828501611d51565b91505092915050565b60008060408385031215611fae57600080fd5b6000611fbc85828601611d51565b9250506020611fcd85828601611cfd565b9150509250929050565b60008060408385031215611fea57600080fd5b6000611ff885828601611d51565b925050602061200985828601611d51565b9150509250929050565b61201c81612706565b82525050565b61202b81612718565b82525050565b61203a81612724565b82525050565b61205161204c82612724565b61283f565b82525050565b6120608161272e565b82525050565b60008154612073816127c4565b61207d8186612689565b9450600182166000811461209857600181146120a9576120dc565b60ff198316865281860193506120dc565b6120b285612669565b60005b838110156120d4578154818901526001820191506020810190506120b5565b838801955050505b50505092915050565b60006120f08261267e565b6120fa8185612694565b935061210a818560208601612791565b612113816128d6565b840191505092915050565b600061212b6002836126a5565b91507f19010000000000000000000000000000000000000000000000000000000000006000830152600282019050919050565b600061216b601d83612694565b91507f45524332305065726d69743a206578706972656420646561646c696e650000006000830152602082019050919050565b60006121ab601c83612694565b91507f45524332303a20496e73756666696369656e7420617070726f76616c000000006000830152602082019050919050565b60006121eb600a83612694565b91507f4f6e6c792061646d696e000000000000000000000000000000000000000000006000830152602082019050919050565b600061222b601b83612694565b91507f45524332303a20496e73756666696369656e742062616c616e636500000000006000830152602082019050919050565b600061226b601e83612694565b91507f45524332305065726d69743a20696e76616c6964207369676e617475726500006000830152602082019050919050565b60006122ab601683612694565b91507f52656e6f756e6365206f6e6c7920666f722073656c66000000000000000000006000830152602082019050919050565b60006122eb600d83612694565b91507f4163636573732064656e696564000000000000000000000000000000000000006000830152602082019050919050565b6123278161277a565b82525050565b61233681612784565b82525050565b60006123488284612066565b915081905092915050565b600061235e8261211e565b915061236a8285612040565b60208201915061237a8284612040565b6020820191508190509392505050565b600060208201905061239f6000830184612022565b92915050565b60006020820190506123ba6000830184612031565b92915050565b600060c0820190506123d56000830189612031565b6123e26020830188612013565b6123ef6040830187612013565b6123fc606083018661231e565b612409608083018561231e565b61241660a083018461231e565b979650505050505050565b600060a0820190506124366000830188612031565b6124436020830187612031565b6124506040830186612031565b61245d606083018561231e565b61246a6080830184612013565b9695505050505050565b60006080820190506124896000830187612031565b612496602083018661232d565b6124a36040830185612031565b6124b06060830184612031565b95945050505050565b60006020820190506124ce6000830184612057565b92915050565b600060208201905081810360008301526124ee81846120e5565b905092915050565b6000602082019050818103600083015261250f8161215e565b9050919050565b6000602082019050818103600083015261252f8161219e565b9050919050565b6000602082019050818103600083015261254f816121de565b9050919050565b6000602082019050818103600083015261256f8161221e565b9050919050565b6000602082019050818103600083015261258f8161225e565b9050919050565b600060208201905081810360008301526125af8161229e565b9050919050565b600060208201905081810360008301526125cf816122de565b9050919050565b60006020820190506125eb600083018461231e565b92915050565b6000602082019050612606600083018461232d565b92915050565b6000604051905081810181811067ffffffffffffffff82111715612633576126326128a7565b5b8060405250919050565b600067ffffffffffffffff821115612658576126576128a7565b5b602082029050602081019050919050565b60008190508160005260206000209050919050565b600081519050919050565b600081905092915050565b600082825260208201905092915050565b600081905092915050565b60006126bb8261277a565b91506126c68361277a565b9250827fffffffffffffffffffffffffffffffffffffffffffffffffffffffffffffffff038211156126fb576126fa612849565b5b828201905092915050565b60006127118261275a565b9050919050565b60008115159050919050565b6000819050919050565b60007fffffffff0000000000000000000000000000000000000000000000000000000082169050919050565b600073ffffffffffffffffffffffffffffffffffffffff82169050919050565b6000819050919050565b600060ff82169050919050565b60005b838110156127af578082015181840152602081019050612794565b838111156127be576000848401525b50505050565b600060028204905060018216806127dc57607f821691505b602082108114156127f0576127ef612878565b5b50919050565b60006128018261277a565b91507fffffffffffffffffffffffffffffffffffffffffffffffffffffffffffffffff82141561283457612833612849565b5b600182019050919050565b6000819050919050565b7f4e487b7100000000000000000000000000000000000000000000000000000000600052601160045260246000fd5b7f4e487b7100000000000000000000000000000000000000000000000000000000600052602260045260246000fd5b7f4e487b7100000000000000000000000000000000000000000000000000000000600052604160045260246000fd5b6000601f19601f8301169050919050565b6128f081612706565b81146128fb57600080fd5b50565b61290781612724565b811461291257600080fd5b50565b61291e8161272e565b811461292957600080fd5b50565b6129358161277a565b811461294057600080fd5b50565b61294c81612784565b811461295757600080fd5b5056fea2646970667358221220b0a655642eb79ae1183d52e12a422b22f869141c26932278ed21fe41519054ac64736f6c63430008000033",
  "immutableReferences": {
    "2025": [
      {
        "length": 32,
        "start": 1649
      },
      {
        "length": 32,
        "start": 3195
      }
    ],
    "2027": [
      {
        "length": 32,
        "start": 1763
      },
      {
        "length": 32,
        "start": 3416
      }
    ],
    "2029": [
      {
        "length": 32,
        "start": 1710
      },
      {
        "length": 32,
        "start": 3085
      },
      {
        "length": 32,
        "start": 3363
      }
    ]
  },
  "source": "// SPDX-License-Identifier: MIT\npragma solidity ^0.8.0;\nimport \"../token/ERC20Permit.sol\";\nimport \"../access/AccessControl.sol\";\n\ncontract RestrictedERC20Mock is AccessControl(), ERC20Permit  {\n\n    constructor(\n        string memory name,\n        string memory symbol\n    ) ERC20Permit(name, symbol, 18) { }\n\n    /// @dev Give tokens to whoever.\n    function mint(address to, uint256 amount) public virtual auth {\n        _mint(to, amount);\n    }\n\n    /// @dev Burn tokens from whoever.\n    function burn(address from, uint256 amount) public virtual auth {\n        _burn(from, amount);\n    }\n}\n",
  "sourcePath": "/home/vladimirdjukic/Documents/staked/tokens/contracts/yields-utils-v2/mocks/RestrictedERC20Mock.sol",
  "compiler": {
    "name": "solc",
    "version": "0.8.0+commit.c7dfd78e.Emscripten.clang"
  },
  "schemaVersion": "3.4.3",
  "updatedAt": "2021-08-29T11:51:08.983Z",
  "devdoc": {
    "kind": "dev",
    "methods": {
      "DOMAIN_SEPARATOR()": {
        "details": "Return the DOMAIN_SEPARATOR."
      },
      "allowance(address,address)": {
        "details": "See {IERC20-allowance}."
      },
      "approve(address,uint256)": {
        "details": "See {IERC20-approve}."
      },
      "balanceOf(address)": {
        "details": "See {IERC20-balanceOf}."
      },
      "burn(address,uint256)": {
        "details": "Burn tokens from whoever."
      },
      "getRoleAdmin(bytes4)": {
        "details": "Returns the admin role that controls `role`. See {grantRole} and {revokeRole}. To change a role's admin, use {_setRoleAdmin}."
      },
      "grantRole(bytes4,address)": {
        "details": "Grants `role` to `account`. If `account` had not been already granted `role`, emits a {RoleGranted} event. Requirements: - the caller must have ``role``'s admin role."
      },
      "grantRoles(bytes4[],address)": {
        "details": "Grants all of `role` in `roles` to `account`. If `account` had not been already granted `role`, emits a {RoleGranted} event. Requirements: - For each `role` in `roles`, the caller must have ``role``'s admin role."
      },
      "hasRole(bytes4,address)": {
        "details": "Returns `true` if `account` has been granted `role`."
      },
      "lockRole(bytes4)": {
        "details": "Sets LOCK as ``role``'s admin role. LOCK has no members, so this disables admin management of ``role``. Emits a {RoleAdminChanged} event. Requirements: - the caller must have ``role``'s admin role."
      },
      "mint(address,uint256)": {
        "details": "Give tokens to whoever."
      },
      "permit(address,address,uint256,uint256,uint8,bytes32,bytes32)": {
        "details": "See {IERC2612-permit}. In cases where the free option is not a concern, deadline can simply be set to uint(-1), so it should be seen as an optional parameter"
      },
      "renounceRole(bytes4,address)": {
        "details": "Revokes `role` from the calling account. Roles are often managed via {grantRole} and {revokeRole}: this function's purpose is to provide a mechanism for accounts to lose their privileges if they are compromised (such as when a trusted device is misplaced). If the calling account had been granted `role`, emits a {RoleRevoked} event. Requirements: - the caller must be `account`."
      },
      "revokeRole(bytes4,address)": {
        "details": "Revokes `role` from `account`. If `account` had been granted `role`, emits a {RoleRevoked} event. Requirements: - the caller must have ``role``'s admin role."
      },
      "revokeRoles(bytes4[],address)": {
        "details": "Revokes all of `role` in `roles` from `account`. If `account` had been granted `role`, emits a {RoleRevoked} event. Requirements: - For each `role` in `roles`, the caller must have ``role``'s admin role."
      },
      "setRoleAdmin(bytes4,bytes4)": {
        "details": "Sets `adminRole` as ``role``'s admin role. If ``role``'s admin role is not `adminRole` emits a {RoleAdminChanged} event. Requirements: - the caller must have ``role``'s admin role."
      },
      "totalSupply()": {
        "details": "See {IERC20-totalSupply}."
      },
      "transfer(address,uint256)": {
        "details": "See {IERC20-transfer}. Requirements: - the caller must have a balance of at least `wad`."
      },
      "version()": {
        "details": "Setting the version as a function so that it can be overriden"
      }
    },
    "version": 1
  },
  "userdoc": {
    "kind": "user",
    "methods": {
      "transferFrom(address,address,uint256)": {
        "notice": "if_succeeds {:msg \"TransferFrom - decrease allowance\"} msg.sender != src ==> old(_allowance[src][msg.sender]) >= wad;"
      }
    },
    "version": 1
  }
}