{
  "contractName": "Staked",
  "abi": [
    {
      "inputs": [
        {
          "internalType": "address",
          "name": "rewardsToken",
          "type": "address"
        }
      ],
      "stateMutability": "nonpayable",
      "type": "constructor"
    },
    {
      "anonymous": false,
      "inputs": [
        {
          "indexed": true,
          "internalType": "address",
          "name": "owner",
          "type": "address"
        },
        {
          "indexed": true,
          "internalType": "address",
          "name": "spender",
          "type": "address"
        },
        {
          "indexed": false,
          "internalType": "uint256",
          "name": "value",
          "type": "uint256"
        }
      ],
      "name": "Approval",
      "type": "event"
    },
    {
      "anonymous": false,
      "inputs": [
        {
          "indexed": false,
          "internalType": "address",
          "name": "receiver",
          "type": "address"
        },
        {
          "indexed": false,
          "internalType": "uint256",
          "name": "claimed",
          "type": "uint256"
        }
      ],
      "name": "Claimed",
      "type": "event"
    },
    {
      "anonymous": false,
      "inputs": [
        {
          "indexed": false,
          "internalType": "uint256",
          "name": "accumulated",
          "type": "uint256"
        }
      ],
      "name": "RewardsPerTokenUpdated",
      "type": "event"
    },
    {
      "anonymous": false,
      "inputs": [
        {
          "indexed": false,
          "internalType": "uint32",
          "name": "start",
          "type": "uint32"
        },
        {
          "indexed": false,
          "internalType": "uint32",
          "name": "end",
          "type": "uint32"
        },
        {
          "indexed": false,
          "internalType": "uint256",
          "name": "rate",
          "type": "uint256"
        }
      ],
      "name": "RewardsSet",
      "type": "event"
    },
    {
      "anonymous": false,
      "inputs": [
        {
          "indexed": true,
          "internalType": "bytes4",
          "name": "role",
          "type": "bytes4"
        },
        {
          "indexed": true,
          "internalType": "bytes4",
          "name": "newAdminRole",
          "type": "bytes4"
        }
      ],
      "name": "RoleAdminChanged",
      "type": "event"
    },
    {
      "anonymous": false,
      "inputs": [
        {
          "indexed": true,
          "internalType": "bytes4",
          "name": "role",
          "type": "bytes4"
        },
        {
          "indexed": true,
          "internalType": "address",
          "name": "account",
          "type": "address"
        },
        {
          "indexed": true,
          "internalType": "address",
          "name": "sender",
          "type": "address"
        }
      ],
      "name": "RoleGranted",
      "type": "event"
    },
    {
      "anonymous": false,
      "inputs": [
        {
          "indexed": true,
          "internalType": "bytes4",
          "name": "role",
          "type": "bytes4"
        },
        {
          "indexed": true,
          "internalType": "address",
          "name": "account",
          "type": "address"
        },
        {
          "indexed": true,
          "internalType": "address",
          "name": "sender",
          "type": "address"
        }
      ],
      "name": "RoleRevoked",
      "type": "event"
    },
    {
      "anonymous": false,
      "inputs": [
        {
          "indexed": true,
          "internalType": "address",
          "name": "from",
          "type": "address"
        },
        {
          "indexed": true,
          "internalType": "address",
          "name": "to",
          "type": "address"
        },
        {
          "indexed": false,
          "internalType": "uint256",
          "name": "value",
          "type": "uint256"
        }
      ],
      "name": "Transfer",
      "type": "event"
    },
    {
      "anonymous": false,
      "inputs": [
        {
          "indexed": false,
          "internalType": "address",
          "name": "user",
          "type": "address"
        },
        {
          "indexed": false,
          "internalType": "uint256",
          "name": "userRewards",
          "type": "uint256"
        },
        {
          "indexed": false,
          "internalType": "uint256",
          "name": "paidRewardPerToken",
          "type": "uint256"
        }
      ],
      "name": "UserRewardsUpdated",
      "type": "event"
    },
    {
      "inputs": [],
      "name": "DOMAIN_SEPARATOR",
      "outputs": [
        {
          "internalType": "bytes32",
          "name": "",
          "type": "bytes32"
        }
      ],
      "stateMutability": "view",
      "type": "function"
    },
    {
      "inputs": [],
      "name": "LOCK",
      "outputs": [
        {
          "internalType": "bytes4",
          "name": "",
          "type": "bytes4"
        }
      ],
      "stateMutability": "view",
      "type": "function"
    },
    {
      "inputs": [],
      "name": "PERMIT_TYPEHASH",
      "outputs": [
        {
          "internalType": "bytes32",
          "name": "",
          "type": "bytes32"
        }
      ],
      "stateMutability": "view",
      "type": "function"
    },
    {
      "inputs": [],
      "name": "ROOT",
      "outputs": [
        {
          "internalType": "bytes4",
          "name": "",
          "type": "bytes4"
        }
      ],
      "stateMutability": "view",
      "type": "function"
    },
    {
      "inputs": [
        {
          "internalType": "address",
          "name": "owner",
          "type": "address"
        },
        {
          "internalType": "address",
          "name": "spender",
          "type": "address"
        }
      ],
      "name": "allowance",
      "outputs": [
        {
          "internalType": "uint256",
          "name": "",
          "type": "uint256"
        }
      ],
      "stateMutability": "view",
      "type": "function"
    },
    {
      "inputs": [
        {
          "internalType": "address",
          "name": "spender",
          "type": "address"
        },
        {
          "internalType": "uint256",
          "name": "wad",
          "type": "uint256"
        }
      ],
      "name": "approve",
      "outputs": [
        {
          "internalType": "bool",
          "name": "",
          "type": "bool"
        }
      ],
      "stateMutability": "nonpayable",
      "type": "function"
    },
    {
      "inputs": [
        {
          "internalType": "address",
          "name": "guy",
          "type": "address"
        }
      ],
      "name": "balanceOf",
      "outputs": [
        {
          "internalType": "uint256",
          "name": "",
          "type": "uint256"
        }
      ],
      "stateMutability": "view",
      "type": "function"
    },
    {
      "inputs": [
        {
          "internalType": "address",
          "name": "to",
          "type": "address"
        }
      ],
      "name": "claim",
      "outputs": [
        {
          "internalType": "uint256",
          "name": "claiming",
          "type": "uint256"
        }
      ],
      "stateMutability": "nonpayable",
      "type": "function"
    },
    {
      "inputs": [],
      "name": "decimals",
      "outputs": [
        {
          "internalType": "uint8",
          "name": "",
          "type": "uint8"
        }
      ],
      "stateMutability": "view",
      "type": "function"
    },
    {
      "inputs": [],
      "name": "deploymentChainId",
      "outputs": [
        {
          "internalType": "uint256",
          "name": "",
          "type": "uint256"
        }
      ],
      "stateMutability": "view",
      "type": "function"
    },
    {
      "inputs": [
        {
          "internalType": "bytes4",
          "name": "role",
          "type": "bytes4"
        }
      ],
      "name": "getRoleAdmin",
      "outputs": [
        {
          "internalType": "bytes4",
          "name": "",
          "type": "bytes4"
        }
      ],
      "stateMutability": "view",
      "type": "function"
    },
    {
      "inputs": [
        {
          "internalType": "bytes4",
          "name": "role",
          "type": "bytes4"
        },
        {
          "internalType": "address",
          "name": "account",
          "type": "address"
        }
      ],
      "name": "grantRole",
      "outputs": [],
      "stateMutability": "nonpayable",
      "type": "function"
    },
    {
      "inputs": [
        {
          "internalType": "bytes4[]",
          "name": "roles",
          "type": "bytes4[]"
        },
        {
          "internalType": "address",
          "name": "account",
          "type": "address"
        }
      ],
      "name": "grantRoles",
      "outputs": [],
      "stateMutability": "nonpayable",
      "type": "function"
    },
    {
      "inputs": [
        {
          "internalType": "bytes4",
          "name": "role",
          "type": "bytes4"
        },
        {
          "internalType": "address",
          "name": "account",
          "type": "address"
        }
      ],
      "name": "hasRole",
      "outputs": [
        {
          "internalType": "bool",
          "name": "",
          "type": "bool"
        }
      ],
      "stateMutability": "view",
      "type": "function"
    },
    {
      "inputs": [
        {
          "internalType": "bytes4",
          "name": "role",
          "type": "bytes4"
        }
      ],
      "name": "lockRole",
      "outputs": [],
      "stateMutability": "nonpayable",
      "type": "function"
    },
    {
      "inputs": [],
      "name": "name",
      "outputs": [
        {
          "internalType": "string",
          "name": "",
          "type": "string"
        }
      ],
      "stateMutability": "view",
      "type": "function"
    },
    {
      "inputs": [
        {
          "internalType": "address",
          "name": "",
          "type": "address"
        }
      ],
      "name": "nonces",
      "outputs": [
        {
          "internalType": "uint256",
          "name": "",
          "type": "uint256"
        }
      ],
      "stateMutability": "view",
      "type": "function"
    },
    {
      "inputs": [
        {
          "internalType": "address",
          "name": "owner",
          "type": "address"
        },
        {
          "internalType": "address",
          "name": "spender",
          "type": "address"
        },
        {
          "internalType": "uint256",
          "name": "amount",
          "type": "uint256"
        },
        {
          "internalType": "uint256",
          "name": "deadline",
          "type": "uint256"
        },
        {
          "internalType": "uint8",
          "name": "v",
          "type": "uint8"
        },
        {
          "internalType": "bytes32",
          "name": "r",
          "type": "bytes32"
        },
        {
          "internalType": "bytes32",
          "name": "s",
          "type": "bytes32"
        }
      ],
      "name": "permit",
      "outputs": [],
      "stateMutability": "nonpayable",
      "type": "function"
    },
    {
      "inputs": [
        {
          "internalType": "bytes4",
          "name": "role",
          "type": "bytes4"
        },
        {
          "internalType": "address",
          "name": "account",
          "type": "address"
        }
      ],
      "name": "renounceRole",
      "outputs": [],
      "stateMutability": "nonpayable",
      "type": "function"
    },
    {
      "inputs": [
        {
          "internalType": "bytes4",
          "name": "role",
          "type": "bytes4"
        },
        {
          "internalType": "address",
          "name": "account",
          "type": "address"
        }
      ],
      "name": "revokeRole",
      "outputs": [],
      "stateMutability": "nonpayable",
      "type": "function"
    },
    {
      "inputs": [
        {
          "internalType": "bytes4[]",
          "name": "roles",
          "type": "bytes4[]"
        },
        {
          "internalType": "address",
          "name": "account",
          "type": "address"
        }
      ],
      "name": "revokeRoles",
      "outputs": [],
      "stateMutability": "nonpayable",
      "type": "function"
    },
    {
      "inputs": [
        {
          "internalType": "address",
          "name": "",
          "type": "address"
        }
      ],
      "name": "rewards",
      "outputs": [
        {
          "internalType": "uint128",
          "name": "accumulated",
          "type": "uint128"
        },
        {
          "internalType": "uint128",
          "name": "checkpoint",
          "type": "uint128"
        }
      ],
      "stateMutability": "view",
      "type": "function"
    },
    {
      "inputs": [],
      "name": "rewardsPerToken",
      "outputs": [
        {
          "internalType": "uint128",
          "name": "accumulated",
          "type": "uint128"
        },
        {
          "internalType": "uint32",
          "name": "lastUpdated",
          "type": "uint32"
        },
        {
          "internalType": "uint96",
          "name": "rate",
          "type": "uint96"
        }
      ],
      "stateMutability": "view",
      "type": "function"
    },
    {
      "inputs": [],
      "name": "rewardsPeriod",
      "outputs": [
        {
          "internalType": "uint32",
          "name": "start",
          "type": "uint32"
        },
        {
          "internalType": "uint32",
          "name": "end",
          "type": "uint32"
        }
      ],
      "stateMutability": "view",
      "type": "function"
    },
    {
      "inputs": [],
      "name": "rewardsToken",
      "outputs": [
        {
          "internalType": "contract IERC20",
          "name": "",
          "type": "address"
        }
      ],
      "stateMutability": "view",
      "type": "function"
    },
    {
      "inputs": [
        {
          "internalType": "uint32",
          "name": "start",
          "type": "uint32"
        },
        {
          "internalType": "uint32",
          "name": "end",
          "type": "uint32"
        },
        {
          "internalType": "uint96",
          "name": "rate",
          "type": "uint96"
        }
      ],
      "name": "setRewards",
      "outputs": [],
      "stateMutability": "nonpayable",
      "type": "function"
    },
    {
      "inputs": [
        {
          "internalType": "bytes4",
          "name": "role",
          "type": "bytes4"
        },
        {
          "internalType": "bytes4",
          "name": "adminRole",
          "type": "bytes4"
        }
      ],
      "name": "setRoleAdmin",
      "outputs": [],
      "stateMutability": "nonpayable",
      "type": "function"
    },
    {
      "inputs": [],
      "name": "symbol",
      "outputs": [
        {
          "internalType": "string",
          "name": "",
          "type": "string"
        }
      ],
      "stateMutability": "view",
      "type": "function"
    },
    {
      "inputs": [],
      "name": "totalSupply",
      "outputs": [
        {
          "internalType": "uint256",
          "name": "",
          "type": "uint256"
        }
      ],
      "stateMutability": "view",
      "type": "function"
    },
    {
      "inputs": [
        {
          "internalType": "address",
          "name": "dst",
          "type": "address"
        },
        {
          "internalType": "uint256",
          "name": "wad",
          "type": "uint256"
        }
      ],
      "name": "transfer",
      "outputs": [
        {
          "internalType": "bool",
          "name": "",
          "type": "bool"
        }
      ],
      "stateMutability": "nonpayable",
      "type": "function"
    },
    {
      "inputs": [
        {
          "internalType": "address",
          "name": "src",
          "type": "address"
        },
        {
          "internalType": "address",
          "name": "dst",
          "type": "address"
        },
        {
          "internalType": "uint256",
          "name": "wad",
          "type": "uint256"
        }
      ],
      "name": "transferFrom",
      "outputs": [
        {
          "internalType": "bool",
          "name": "",
          "type": "bool"
        }
      ],
      "stateMutability": "nonpayable",
      "type": "function"
    },
    {
      "inputs": [],
      "name": "version",
      "outputs": [
        {
          "internalType": "string",
          "name": "",
          "type": "string"
        }
      ],
      "stateMutability": "pure",
      "type": "function"
    },
    {
      "inputs": [
        {
          "internalType": "address",
          "name": "dst",
          "type": "address"
        },
        {
          "internalType": "uint256",
          "name": "wad",
          "type": "uint256"
        }
      ],
      "name": "mint",
      "outputs": [
        {
          "internalType": "bool",
          "name": "",
          "type": "bool"
        }
      ],
      "stateMutability": "nonpayable",
      "type": "function"
    },
    {
      "inputs": [
        {
          "internalType": "address",
          "name": "dst",
          "type": "address"
        },
        {
          "internalType": "uint256",
          "name": "wad",
          "type": "uint256"
        }
      ],
      "name": "burn",
      "outputs": [
        {
          "internalType": "bool",
          "name": "",
          "type": "bool"
        }
      ],
      "stateMutability": "nonpayable",
      "type": "function"
    }
  ],
  "bytecode": "0x6101006040526040518060400160405280600381526020017f3f3f3f000000000000000000000000000000000000000000000000000000000081525060049080519060200190620000529291906200106a565b506040518060400160405280600381526020017f3f3f3f000000000000000000000000000000000000000000000000000000000081525060059080519060200190620000a09291906200106a565b506012600660006101000a81548160ff021916908360ff1602179055507f6e71edae12b1b97f4d1f60370fef10105fa2faae0126114a169c64845d6126c9608090815250348015620000f157600080fd5b50604051620056e4380380620056e4833981810160405281019062000117919062001131565b6040518060400160405280600681526020017f5374616b656400000000000000000000000000000000000000000000000000008152506040518060400160405280600681526020017f5374616b65640000000000000000000000000000000000000000000000000000815250601283838383828282620001a2600060e01b336200029b60201b60201c565b620001c263ffffffff60e01b63ffffffff60e01b620003da60201b60201c565b8260049080519060200190620001da9291906200106a565b508160059080519060200190620001f39291906200106a565b5080600660006101000a81548160ff021916908360ff16021790555050505060004690508060c0818152505062000230816200051060201b60201c565b60a08181525050505050508073ffffffffffffffffffffffffffffffffffffffff1660e08173ffffffffffffffffffffffffffffffffffffffff1660601b815250505050505062000293336a01a784379d99db420000006200059860201b60201c565b50506200167f565b620002ad8282620005db60201b60201c565b620003d6576001600080847bffffffffffffffffffffffffffffffffffffffffffffffffffffffff19167bffffffffffffffffffffffffffffffffffffffffffffffffffffffff1916815260200190815260200160002060000160008373ffffffffffffffffffffffffffffffffffffffff1673ffffffffffffffffffffffffffffffffffffffff16815260200190815260200160002060006101000a81548160ff0219169083151502179055503373ffffffffffffffffffffffffffffffffffffffff168173ffffffffffffffffffffffffffffffffffffffff16837bffffffffffffffffffffffffffffffffffffffffffffffffffffffff19167fe6231789d19137da31d0550f4ba9ee379020a8cfb64cb79bf1790c996d2e616560405160405180910390a45b5050565b807bffffffffffffffffffffffffffffffffffffffffffffffffffffffff19166200040b836200068360201b60201c565b7bffffffffffffffffffffffffffffffffffffffffffffffffffffffff1916146200050c5780600080847bffffffffffffffffffffffffffffffffffffffffffffffffffffffff19167bffffffffffffffffffffffffffffffffffffffffffffffffffffffff1916815260200190815260200160002060010160006101000a81548163ffffffff021916908360e01c0217905550807bffffffffffffffffffffffffffffffffffffffffffffffffffffffff1916827bffffffffffffffffffffffffffffffffffffffffffffffffffffffff19167fd348e2220a50b4500ec353f6e802d2f14dd1b5d6786148fd1bbcc570bf92d47360405160405180910390a35b5050565b60007f8b73c3c69bb8fe3d512ecc4cf759cc79239f7b179b0ffacaa9a75d522b39400f60046040516200054491906200126e565b60405180910390206200055c620006ed60201b60201c565b8051906020012084306040516020016200057b959493929190620012c4565b604051602081830303815290604052805190602001209050919050565b6000620005aa6200072a60201b60201c565b620005bb8362000a9760201b60201c565b50620005d3838362000e7160201b6200165c1760201c565b905092915050565b6000806000847bffffffffffffffffffffffffffffffffffffffffffffffffffffffff19167bffffffffffffffffffffffffffffffffffffffffffffffffffffffff1916815260200190815260200160002060000160008373ffffffffffffffffffffffffffffffffffffffff1673ffffffffffffffffffffffffffffffffffffffff16815260200190815260200160002060009054906101000a900460ff16905092915050565b6000806000837bffffffffffffffffffffffffffffffffffffffffffffffffffffffff19167bffffffffffffffffffffffffffffffffffffffffffffffffffffffff1916815260200190815260200160002060010160009054906101000a900460e01b9050919050565b60606040518060400160405280600181526020017f3100000000000000000000000000000000000000000000000000000000000000815250905090565b600060096040518060600160405290816000820160009054906101000a90046fffffffffffffffffffffffffffffffff166fffffffffffffffffffffffffffffffff166fffffffffffffffffffffffffffffffff1681526020016000820160109054906101000a900463ffffffff1663ffffffff1663ffffffff1681526020016000820160149054906101000a90046bffffffffffffffffffffffff166bffffffffffffffffffffffff166bffffffffffffffffffffffff16815250509050600060086040518060400160405290816000820160009054906101000a900463ffffffff1663ffffffff1663ffffffff1681526020016000820160049054906101000a900463ffffffff1663ffffffff1663ffffffff1681525050905060006001549050816000015163ffffffff166200086e4262000f8b60201b620017701760201c565b63ffffffff161015620008845750505062000a95565b6000620008b1620008a04262000f8b60201b620017701760201c565b846020015162000fe160201b60201c565b90506000846020015182620008c79190620014df565b63ffffffff1690506000811415620008e457505050505062000a95565b600083146200099757620009678386604001516bffffffffffffffffffffffff1683670de0b6b3a76400006200091b919062001443565b62000927919062001443565b6200093391906200140b565b86600001516fffffffffffffffffffffffffffffffff16620009569190620013ae565b6200100860201b620017c31760201c565b85600001906fffffffffffffffffffffffffffffffff1690816fffffffffffffffffffffffffffffffff16815250505b81856020019063ffffffff16908163ffffffff168152505084600960008201518160000160006101000a8154816fffffffffffffffffffffffffffffffff02191690836fffffffffffffffffffffffffffffffff16021790555060208201518160000160106101000a81548163ffffffff021916908363ffffffff16021790555060408201518160000160146101000a8154816bffffffffffffffffffffffff02191690836bffffffffffffffffffffffff1602179055509050507fe972555b20cae8150e291bb40efce3ef4e3ed6b6b2c39c029346600e95469d48856000015160405162000a87919062001343565b60405180910390a150505050505b565b600080600a60008473ffffffffffffffffffffffffffffffffffffffff1673ffffffffffffffffffffffffffffffffffffffff1681526020019081526020016000206040518060400160405290816000820160009054906101000a90046fffffffffffffffffffffffffffffffff166fffffffffffffffffffffffffffffffff166fffffffffffffffffffffffffffffffff1681526020016000820160109054906101000a90046fffffffffffffffffffffffffffffffff166fffffffffffffffffffffffffffffffff166fffffffffffffffffffffffffffffffff16815250509050600060096040518060600160405290816000820160009054906101000a90046fffffffffffffffffffffffffffffffff166fffffffffffffffffffffffffffffffff166fffffffffffffffffffffffffffffffff1681526020016000820160109054906101000a900463ffffffff1663ffffffff1663ffffffff1681526020016000820160149054906101000a90046bffffffffffffffffffffffff166bffffffffffffffffffffffff166bffffffffffffffffffffffff1681525050905062000cfa670de0b6b3a76400008360200151836000015162000c5c9190620014a4565b6fffffffffffffffffffffffffffffffff16600260008873ffffffffffffffffffffffffffffffffffffffff1673ffffffffffffffffffffffffffffffffffffffff1681526020019081526020016000205462000cba919062001443565b62000cc691906200140b565b83600001516fffffffffffffffffffffffffffffffff1662000ce99190620013ae565b6200100860201b620017c31760201c565b82600001906fffffffffffffffffffffffffffffffff1690816fffffffffffffffffffffffffffffffff1681525050806000015182602001906fffffffffffffffffffffffffffffffff1690816fffffffffffffffffffffffffffffffff168152505081600a60008673ffffffffffffffffffffffffffffffffffffffff1673ffffffffffffffffffffffffffffffffffffffff16815260200190815260200160002060008201518160000160006101000a8154816fffffffffffffffffffffffffffffffff02191690836fffffffffffffffffffffffffffffffff16021790555060208201518160000160106101000a8154816fffffffffffffffffffffffffffffffff02191690836fffffffffffffffffffffffffffffffff1602179055509050507f5b9aaf4cc5141c090a75f8b8a627863eba92df81f0c83c096350da9b79aedd04848360000151846020015160405162000e5b9392919062001287565b60405180910390a1816000015192505050919050565b600081600260008573ffffffffffffffffffffffffffffffffffffffff1673ffffffffffffffffffffffffffffffffffffffff1681526020019081526020016000205462000ec09190620013ae565b600260008573ffffffffffffffffffffffffffffffffffffffff1673ffffffffffffffffffffffffffffffffffffffff168152602001908152602001600020819055508160015462000f139190620013ae565b6001819055508273ffffffffffffffffffffffffffffffffffffffff16600073ffffffffffffffffffffffffffffffffffffffff167fddf252ad1be2c89b69c2b068fc378daa952ba7f163c4a11628f55a4df523b3ef8460405162000f79919062001360565b60405180910390a36001905092915050565b600063ffffffff801682111562000fd9576040517f08c379a000000000000000000000000000000000000000000000000000000000815260040162000fd09062001321565b60405180910390fd5b819050919050565b60008163ffffffff168363ffffffff161062000ffe578162001000565b825b905092915050565b60006fffffffffffffffffffffffffffffffff801682111562001062576040517f08c379a0000000000000000000000000000000000000000000000000000000008152600401620010599062001321565b60405180910390fd5b819050919050565b8280546200107890620015a2565b90600052602060002090601f0160209004810192826200109c5760008555620010e8565b82601f10620010b757805160ff1916838001178555620010e8565b82800160010185558215620010e8579182015b82811115620010e7578251825591602001919060010190620010ca565b5b509050620010f79190620010fb565b5090565b5b8082111562001116576000816000905550600101620010fc565b5090565b6000815190506200112b8162001665565b92915050565b6000602082840312156200114457600080fd5b600062001154848285016200111a565b91505092915050565b62001168816200151a565b82525050565b62001179816200152e565b82525050565b600081546200118e81620015a2565b6200119a818662001392565b94506001821660008114620011b85760018114620011ca5762001201565b60ff1983168652818601935062001201565b620011d5856200137d565b60005b83811015620011f957815481890152600182019150602081019050620011d8565b838801955050505b50505092915050565b600062001219600d836200139d565b91507f43617374206f766572666c6f77000000000000000000000000000000000000006000830152602082019050919050565b62001257816200158e565b82525050565b620012688162001574565b82525050565b60006200127c82846200117f565b915081905092915050565b60006060820190506200129e60008301866200115d565b620012ad60208301856200124c565b620012bc60408301846200124c565b949350505050565b600060a082019050620012db60008301886200116e565b620012ea60208301876200116e565b620012f960408301866200116e565b6200130860608301856200125d565b6200131760808301846200115d565b9695505050505050565b600060208201905081810360008301526200133c816200120a565b9050919050565b60006020820190506200135a60008301846200124c565b92915050565b60006020820190506200137760008301846200125d565b92915050565b60008190508160005260206000209050919050565b600081905092915050565b600082825260208201905092915050565b6000620013bb8262001574565b9150620013c88362001574565b9250827fffffffffffffffffffffffffffffffffffffffffffffffffffffffffffffffff038211156200140057620013ff620015d8565b5b828201905092915050565b6000620014188262001574565b9150620014258362001574565b92508262001438576200143762001607565b5b828204905092915050565b6000620014508262001574565b91506200145d8362001574565b9250817fffffffffffffffffffffffffffffffffffffffffffffffffffffffffffffffff0483118215151615620014995762001498620015d8565b5b828202905092915050565b6000620014b18262001538565b9150620014be8362001538565b925082821015620014d457620014d3620015d8565b5b828203905092915050565b6000620014ec826200157e565b9150620014f9836200157e565b9250828210156200150f576200150e620015d8565b5b828203905092915050565b6000620015278262001554565b9050919050565b6000819050919050565b60006fffffffffffffffffffffffffffffffff82169050919050565b600073ffffffffffffffffffffffffffffffffffffffff82169050919050565b6000819050919050565b600063ffffffff82169050919050565b60006200159b8262001538565b9050919050565b60006002820490506001821680620015bb57607f821691505b60208210811415620015d257620015d162001636565b5b50919050565b7f4e487b7100000000000000000000000000000000000000000000000000000000600052601160045260246000fd5b7f4e487b7100000000000000000000000000000000000000000000000000000000600052601260045260246000fd5b7f4e487b7100000000000000000000000000000000000000000000000000000000600052602260045260246000fd5b62001670816200151a565b81146200167c57600080fd5b50565b60805160a05160c05160e05160601c614005620016df6000396000818161089601526111cd0152600081816109aa015281816111a901526112e30152600081816109df015261131801526000818161096d015261123b01526140056000f3fe608060405234801561001057600080fd5b50600436106102065760003560e01c8063687f0e4c1161011a578063a9059cbb116100ad578063d1af0c7d1161007c578063d1af0c7d1461062f578063d505accf1461064d578063dd62ed3e14610669578063de02cde714610699578063effae353146106b557610206565b8063a9059cbb146105a9578063ad82110f146105d9578063ae93c1b5146105f5578063cd0d00961461061157610206565b806395d89b41116100e957806395d89b41146105215780639dc29fac1461053f578063a354f39e1461056f578063a4f0d7d01461058b57610206565b8063687f0e4c1461048557806370641a36146104a157806370a08231146104c15780637ecebe00146104f157610206565b806330adf81f1161019d57806344faded01161016c57806344faded0146103e157806354fd4d50146103fd578063559742d91461041b5780635909c12f146104375780635ba5e9f01461045557610206565b806330adf81f14610357578063313ce567146103755780633644e5151461039357806340c10f19146103b157610206565b806318160ddd116101d957806318160ddd146102ba5780631e83409a146102d857806323b872dd1461030857806326ae2b781461033857610206565b806306fdde031461020b5780630700037d14610229578063095ea7b31461025a57806310ab94321461028a575b600080fd5b6102136106d1565b60405161022091906137e0565b60405180910390f35b610243600480360381019061023e9190612e06565b61075f565b60405161025192919061395d565b60405180910390f35b610274600480360381019061026f9190612f58565b6107bb565b604051610281919061367b565b60405180910390f35b6102a4600480360381019061029f919061303a565b6107d0565b6040516102b1919061367b565b60405180910390f35b6102c26107e4565b6040516102cf91906139bd565b60405180910390f35b6102f260048036038101906102ed9190612e06565b6107ee565b6040516102ff91906139bd565b60405180910390f35b610322600480360381019061031d9190612e6b565b610918565b60405161032f919061367b565b60405180910390f35b610340610939565b60405161034e9291906139d8565b60405180910390f35b61035f61096b565b60405161036c9190613696565b60405180910390f35b61037d61098f565b60405161038a9190613a38565b60405180910390f35b61039b6109a2565b6040516103a89190613696565b60405180910390f35b6103cb60048036038101906103c69190612f58565b610a05565b6040516103d8919061367b565b60405180910390f35b6103fb60048036038101906103f6919061303a565b610a86565b005b610405610ae7565b60405161041291906137e0565b60405180910390f35b61043560048036038101906104309190613011565b610b24565b005b61043f610b8b565b60405161044c91906137aa565b60405180910390f35b61046f600480360381019061046a9190613011565b610b93565b60405161047c91906137aa565b60405180910390f35b61049f600480360381019061049a919061303a565b610ba5565b005b6104a9610c21565b6040516104b893929190613986565b60405180910390f35b6104db60048036038101906104d69190612e06565b610c7d565b6040516104e891906139bd565b60405180910390f35b61050b60048036038101906105069190612e06565b610cc6565b60405161051891906139bd565b60405180910390f35b610529610cde565b60405161053691906137e0565b60405180910390f35b61055960048036038101906105549190612f58565b610d6c565b604051610566919061367b565b60405180910390f35b610589600480360381019061058491906130f3565b610ded565b005b610593611027565b6040516105a091906137aa565b60405180910390f35b6105c360048036038101906105be9190612f58565b611032565b6040516105d0919061367b565b60405180910390f35b6105f360048036038101906105ee9190612f94565b611047565b005b61060f600480360381019061060a9190613076565b611146565b005b6106196111a7565b60405161062691906139bd565b60405180910390f35b6106376111cb565b60405161064491906137c5565b60405180910390f35b61066760048036038101906106629190612eba565b6111ef565b005b610683600480360381019061067e9190612e2f565b611475565b60405161069091906139bd565b60405180910390f35b6106b360048036038101906106ae919061303a565b6114fc565b005b6106cf60048036038101906106ca9190612f94565b61155d565b005b600480546106de90613dc5565b80601f016020809104026020016040519081016040528092919081815260200182805461070a90613dc5565b80156107575780601f1061072c57610100808354040283529160200191610757565b820191906000526020600020905b81548152906001019060200180831161073a57829003601f168201915b505050505081565b600a6020528060005260406000206000915090508060000160009054906101000a90046fffffffffffffffffffffffffffffffff16908060000160109054906101000a90046fffffffffffffffffffffffffffffffff16905082565b60006107c8338484611822565b905092915050565b60006107dc8383611915565b905092915050565b6000600154905090565b60006107f86119bd565b61080133611cea565b6fffffffffffffffffffffffffffffffff1690506000600a60003373ffffffffffffffffffffffffffffffffffffffff1673ffffffffffffffffffffffffffffffffffffffff16815260200190815260200160002060000160006101000a8154816fffffffffffffffffffffffffffffffff02191690836fffffffffffffffffffffffffffffffff1602179055506108da82827f000000000000000000000000000000000000000000000000000000000000000073ffffffffffffffffffffffffffffffffffffffff166120ad9092919063ffffffff16565b7fd8138f8a3f377c5259ca548e70e4c2de94f129f5a11036a15b69513cba2b426a828260405161090b929190613652565b60405180910390a1919050565b6000610924848361220c565b50610930848484612347565b90509392505050565b60088060000160009054906101000a900463ffffffff16908060000160049054906101000a900463ffffffff16905082565b7f000000000000000000000000000000000000000000000000000000000000000081565b600660009054906101000a900460ff1681565b6000804690507f000000000000000000000000000000000000000000000000000000000000000081146109dd576109d881612379565b6109ff565b7f00000000000000000000000000000000000000000000000000000000000000005b91505090565b6000610a356000357fffffffff000000000000000000000000000000000000000000000000000000001633611915565b610a74576040517f08c379a0000000000000000000000000000000000000000000000000000000008152600401610a6b90613902565b60405180910390fd5b610a7e83836123f5565b905092915050565b81610a99610a938261241b565b33611915565b610ad8576040517f08c379a0000000000000000000000000000000000000000000000000000000008152600401610acf90613862565b60405180910390fd5b610ae28383612485565b505050565b60606040518060400160405280600181526020017f3100000000000000000000000000000000000000000000000000000000000000815250905090565b80610b37610b318261241b565b33611915565b610b76576040517f08c379a0000000000000000000000000000000000000000000000000000000008152600401610b6d90613862565b60405180910390fd5b610b878263ffffffff60e01b6125bc565b5050565b600060e01b81565b6000610b9e8261241b565b9050919050565b3373ffffffffffffffffffffffffffffffffffffffff168173ffffffffffffffffffffffffffffffffffffffff1614610c13576040517f08c379a0000000000000000000000000000000000000000000000000000000008152600401610c0a906138e2565b60405180910390fd5b610c1d8282612485565b5050565b60098060000160009054906101000a90046fffffffffffffffffffffffffffffffff16908060000160109054906101000a900463ffffffff16908060000160149054906101000a90046bffffffffffffffffffffffff16905083565b6000600260008373ffffffffffffffffffffffffffffffffffffffff1673ffffffffffffffffffffffffffffffffffffffff168152602001908152602001600020549050919050565b60076020528060005260406000206000915090505481565b60058054610ceb90613dc5565b80601f0160208091040260200160405190810160405280929190818152602001828054610d1790613dc5565b8015610d645780601f10610d3957610100808354040283529160200191610d64565b820191906000526020600020905b815481529060010190602001808311610d4757829003601f168201915b505050505081565b6000610d9c6000357fffffffff000000000000000000000000000000000000000000000000000000001633611915565b610ddb576040517f08c379a0000000000000000000000000000000000000000000000000000000008152600401610dd290613902565b60405180910390fd5b610de583836126e9565b905092915050565b610e1b6000357fffffffff000000000000000000000000000000000000000000000000000000001633611915565b610e5a576040517f08c379a0000000000000000000000000000000000000000000000000000000008152600401610e5190613902565b60405180910390fd5b8163ffffffff168363ffffffff161115610ea9576040517f08c379a0000000000000000000000000000000000000000000000000000000008152600401610ea0906138a2565b60405180910390fd5b600860000160009054906101000a900463ffffffff1663ffffffff16610ece42611770565b63ffffffff161080610f085750600860000160049054906101000a900463ffffffff1663ffffffff16610f0042611770565b63ffffffff16115b610f47576040517f08c379a0000000000000000000000000000000000000000000000000000000008152600401610f3e90613922565b60405180910390fd5b82600860000160006101000a81548163ffffffff021916908363ffffffff16021790555081600860000160046101000a81548163ffffffff021916908363ffffffff16021790555082600960000160106101000a81548163ffffffff021916908363ffffffff16021790555080600960000160146101000a8154816bffffffffffffffffffffffff02191690836bffffffffffffffffffffffff1602179055507f95efd8a2a0aa591f48fd9673cf5d13c2150ca7a1fe1cbe438dd3f0ae4706466383838360405161101a93929190613a01565b60405180910390a1505050565b63ffffffff60e01b81565b600061103f338484612347565b905092915050565b60005b8251811015611141576110a561109f848381518110611092577f4e487b7100000000000000000000000000000000000000000000000000000000600052603260045260246000fd5b602002602001015161241b565b33611915565b6110e4576040517f08c379a00000000000000000000000000000000000000000000000000000000081526004016110db90613862565b60405180910390fd5b61112e838281518110611120577f4e487b7100000000000000000000000000000000000000000000000000000000600052603260045260246000fd5b602002602001015183612485565b808061113990613df7565b91505061104a565b505050565b816111596111538261241b565b33611915565b611198576040517f08c379a000000000000000000000000000000000000000000000000000000000815260040161118f90613862565b60405180910390fd5b6111a283836125bc565b505050565b7f000000000000000000000000000000000000000000000000000000000000000081565b7f000000000000000000000000000000000000000000000000000000000000000081565b42841015611232576040517f08c379a000000000000000000000000000000000000000000000000000000000815260040161122990613822565b60405180910390fd5b600046905060007f0000000000000000000000000000000000000000000000000000000000000000898989600760008e73ffffffffffffffffffffffffffffffffffffffff1673ffffffffffffffffffffffffffffffffffffffff16815260200190815260200160002060008154809291906112ad90613df7565b919050558a6040516020016112c7969594939291906136b1565b60405160208183030381529060405280519060200120905060007f000000000000000000000000000000000000000000000000000000000000000083146113165761131183612379565b611338565b7f00000000000000000000000000000000000000000000000000000000000000005b8260405160200161134a9291906135e4565b6040516020818303038152906040528051906020012090506000600182888888604051600081526020016040526040516113879493929190613765565b6020604051602081039080840390855afa1580156113a9573d6000803e3d6000fd5b505050602060405103519050600073ffffffffffffffffffffffffffffffffffffffff168173ffffffffffffffffffffffffffffffffffffffff161415801561141d57508a73ffffffffffffffffffffffffffffffffffffffff168173ffffffffffffffffffffffffffffffffffffffff16145b61145c576040517f08c379a0000000000000000000000000000000000000000000000000000000008152600401611453906138c2565b60405180910390fd5b6114678b8b8b611822565b505050505050505050505050565b6000600360008473ffffffffffffffffffffffffffffffffffffffff1673ffffffffffffffffffffffffffffffffffffffff16815260200190815260200160002060008373ffffffffffffffffffffffffffffffffffffffff1673ffffffffffffffffffffffffffffffffffffffff16815260200190815260200160002054905092915050565b8161150f6115098261241b565b33611915565b61154e576040517f08c379a000000000000000000000000000000000000000000000000000000000815260040161154590613862565b60405180910390fd5b611558838361270f565b505050565b60005b8251811015611657576115bb6115b58483815181106115a8577f4e487b7100000000000000000000000000000000000000000000000000000000600052603260045260246000fd5b602002602001015161241b565b33611915565b6115fa576040517f08c379a00000000000000000000000000000000000000000000000000000000081526004016115f190613862565b60405180910390fd5b611644838281518110611636577f4e487b7100000000000000000000000000000000000000000000000000000000600052603260045260246000fd5b60200260200101518361270f565b808061164f90613df7565b915050611560565b505050565b600081600260008573ffffffffffffffffffffffffffffffffffffffff1673ffffffffffffffffffffffffffffffffffffffff168152602001908152602001600020546116a99190613b32565b600260008573ffffffffffffffffffffffffffffffffffffffff1673ffffffffffffffffffffffffffffffffffffffff16815260200190815260200160002081905550816001546116fa9190613b32565b6001819055508273ffffffffffffffffffffffffffffffffffffffff16600073ffffffffffffffffffffffffffffffffffffffff167fddf252ad1be2c89b69c2b068fc378daa952ba7f163c4a11628f55a4df523b3ef8460405161175e91906139bd565b60405180910390a36001905092915050565b600063ffffffff80168211156117bb576040517f08c379a00000000000000000000000000000000000000000000000000000000081526004016117b290613802565b60405180910390fd5b819050919050565b60006fffffffffffffffffffffffffffffffff801682111561181a576040517f08c379a000000000000000000000000000000000000000000000000000000000815260040161181190613802565b60405180910390fd5b819050919050565b600081600360008673ffffffffffffffffffffffffffffffffffffffff1673ffffffffffffffffffffffffffffffffffffffff16815260200190815260200160002060008573ffffffffffffffffffffffffffffffffffffffff1673ffffffffffffffffffffffffffffffffffffffff168152602001908152602001600020819055508273ffffffffffffffffffffffffffffffffffffffff168473ffffffffffffffffffffffffffffffffffffffff167f8c5be1e5ebec7d5bd14f71427d1e84f3dd0314c0f7b2291e5b200ac8c7c3b9258460405161190291906139bd565b60405180910390a3600190509392505050565b6000806000847bffffffffffffffffffffffffffffffffffffffffffffffffffffffff19167bffffffffffffffffffffffffffffffffffffffffffffffffffffffff1916815260200190815260200160002060000160008373ffffffffffffffffffffffffffffffffffffffff1673ffffffffffffffffffffffffffffffffffffffff16815260200190815260200160002060009054906101000a900460ff16905092915050565b600060096040518060600160405290816000820160009054906101000a90046fffffffffffffffffffffffffffffffff166fffffffffffffffffffffffffffffffff166fffffffffffffffffffffffffffffffff1681526020016000820160109054906101000a900463ffffffff1663ffffffff1663ffffffff1681526020016000820160149054906101000a90046bffffffffffffffffffffffff166bffffffffffffffffffffffff166bffffffffffffffffffffffff16815250509050600060086040518060400160405290816000820160009054906101000a900463ffffffff1663ffffffff1663ffffffff1681526020016000820160049054906101000a900463ffffffff1663ffffffff1663ffffffff1681525050905060006001549050816000015163ffffffff16611af442611770565b63ffffffff161015611b0857505050611ce8565b6000611b20611b1642611770565b8460200151612845565b90506000846020015182611b349190613c47565b63ffffffff1690506000811415611b4f575050505050611ce8565b60008314611bec57611bbc8386604001516bffffffffffffffffffffffff1683670de0b6b3a7640000611b829190613bb9565b611b8c9190613bb9565b611b969190613b88565b86600001516fffffffffffffffffffffffffffffffff16611bb79190613b32565b6117c3565b85600001906fffffffffffffffffffffffffffffffff1690816fffffffffffffffffffffffffffffffff16815250505b81856020019063ffffffff16908163ffffffff168152505084600960008201518160000160006101000a8154816fffffffffffffffffffffffffffffffff02191690836fffffffffffffffffffffffffffffffff16021790555060208201518160000160106101000a81548163ffffffff021916908363ffffffff16021790555060408201518160000160146101000a8154816bffffffffffffffffffffffff02191690836bffffffffffffffffffffffff1602179055509050507fe972555b20cae8150e291bb40efce3ef4e3ed6b6b2c39c029346600e95469d488560000151604051611cda9190613942565b60405180910390a150505050505b565b600080600a60008473ffffffffffffffffffffffffffffffffffffffff1673ffffffffffffffffffffffffffffffffffffffff1681526020019081526020016000206040518060400160405290816000820160009054906101000a90046fffffffffffffffffffffffffffffffff166fffffffffffffffffffffffffffffffff166fffffffffffffffffffffffffffffffff1681526020016000820160109054906101000a90046fffffffffffffffffffffffffffffffff166fffffffffffffffffffffffffffffffff166fffffffffffffffffffffffffffffffff16815250509050600060096040518060600160405290816000820160009054906101000a90046fffffffffffffffffffffffffffffffff166fffffffffffffffffffffffffffffffff166fffffffffffffffffffffffffffffffff1681526020016000820160109054906101000a900463ffffffff1663ffffffff1663ffffffff1681526020016000820160149054906101000a90046bffffffffffffffffffffffff166bffffffffffffffffffffffff166bffffffffffffffffffffffff16815250509050611f38670de0b6b3a764000083602001518360000151611eac9190613c13565b6fffffffffffffffffffffffffffffffff16600260008873ffffffffffffffffffffffffffffffffffffffff1673ffffffffffffffffffffffffffffffffffffffff16815260200190815260200160002054611f089190613bb9565b611f129190613b88565b83600001516fffffffffffffffffffffffffffffffff16611f339190613b32565b6117c3565b82600001906fffffffffffffffffffffffffffffffff1690816fffffffffffffffffffffffffffffffff1681525050806000015182602001906fffffffffffffffffffffffffffffffff1690816fffffffffffffffffffffffffffffffff168152505081600a60008673ffffffffffffffffffffffffffffffffffffffff1673ffffffffffffffffffffffffffffffffffffffff16815260200190815260200160002060008201518160000160006101000a8154816fffffffffffffffffffffffffffffffff02191690836fffffffffffffffffffffffffffffffff16021790555060208201518160000160106101000a8154816fffffffffffffffffffffffffffffffff02191690836fffffffffffffffffffffffffffffffff1602179055509050507f5b9aaf4cc5141c090a75f8b8a627863eba92df81f0c83c096350da9b79aedd0484836000015184602001516040516120979392919061361b565b60405180910390a1816000015192505050919050565b6000808473ffffffffffffffffffffffffffffffffffffffff1663a9059cbb60e01b85856040516024016120e2929190613652565b604051602081830303815290604052907bffffffffffffffffffffffffffffffffffffffffffffffffffffffff19166020820180517bffffffffffffffffffffffffffffffffffffffffffffffffffffffff838183161783525050505060405161214c91906135b6565b6000604051808303816000865af19150503d8060008114612189576040519150601f19603f3d011682016040523d82523d6000602084013e61218e565b606091505b50915091508180156121bc57506000815114806121bb5750808060200190518101906121ba9190612fe8565b5b5b612205576121c98161286a565b6040517f08c379a00000000000000000000000000000000000000000000000000000000081526004016121fc91906137e0565b60405180910390fd5b5050505050565b60003373ffffffffffffffffffffffffffffffffffffffff168373ffffffffffffffffffffffffffffffffffffffff161461233d576000600360008573ffffffffffffffffffffffffffffffffffffffff1673ffffffffffffffffffffffffffffffffffffffff16815260200190815260200160002060003373ffffffffffffffffffffffffffffffffffffffff1673ffffffffffffffffffffffffffffffffffffffff1681526020019081526020016000205490507fffffffffffffffffffffffffffffffffffffffffffffffffffffffffffffffff811461233b578281101561232c576040517f08c379a000000000000000000000000000000000000000000000000000000000815260040161232390613842565b60405180910390fd5b6123398433858403611822565b505b505b6001905092915050565b60006123516119bd565b61235a84611cea565b5061236483611cea565b506123708484846128d5565b90509392505050565b60007f8b73c3c69bb8fe3d512ecc4cf759cc79239f7b179b0ffacaa9a75d522b39400f60046040516123ab91906135cd565b60405180910390206123bb610ae7565b8051906020012084306040516020016123d8959493929190613712565b604051602081830303815290604052805190602001209050919050565b60006123ff6119bd565b61240883611cea565b50612413838361165c565b905092915050565b6000806000837bffffffffffffffffffffffffffffffffffffffffffffffffffffffff19167bffffffffffffffffffffffffffffffffffffffffffffffffffffffff1916815260200190815260200160002060010160009054906101000a900460e01b9050919050565b61248f8282611915565b156125b8576000806000847bffffffffffffffffffffffffffffffffffffffffffffffffffffffff19167bffffffffffffffffffffffffffffffffffffffffffffffffffffffff1916815260200190815260200160002060000160008373ffffffffffffffffffffffffffffffffffffffff1673ffffffffffffffffffffffffffffffffffffffff16815260200190815260200160002060006101000a81548160ff0219169083151502179055503373ffffffffffffffffffffffffffffffffffffffff168173ffffffffffffffffffffffffffffffffffffffff16837bffffffffffffffffffffffffffffffffffffffffffffffffffffffff19167f4ddc7b757e7bdd7254a9cd39452d307a52761bc824625c6a33104a075d8099e660405160405180910390a45b5050565b807bffffffffffffffffffffffffffffffffffffffffffffffffffffffff19166125e58361241b565b7bffffffffffffffffffffffffffffffffffffffffffffffffffffffff1916146126e55780600080847bffffffffffffffffffffffffffffffffffffffffffffffffffffffff19167bffffffffffffffffffffffffffffffffffffffffffffffffffffffff1916815260200190815260200160002060010160006101000a81548163ffffffff021916908360e01c0217905550807bffffffffffffffffffffffffffffffffffffffffffffffffffffffff1916827bffffffffffffffffffffffffffffffffffffffffffffffffffffffff19167fd348e2220a50b4500ec353f6e802d2f14dd1b5d6786148fd1bbcc570bf92d47360405160405180910390a35b5050565b60006126f36119bd565b6126fc83611cea565b506127078383612adc565b905092915050565b6127198282611915565b612841576001600080847bffffffffffffffffffffffffffffffffffffffffffffffffffffffff19167bffffffffffffffffffffffffffffffffffffffffffffffffffffffff1916815260200190815260200160002060000160008373ffffffffffffffffffffffffffffffffffffffff1673ffffffffffffffffffffffffffffffffffffffff16815260200190815260200160002060006101000a81548160ff0219169083151502179055503373ffffffffffffffffffffffffffffffffffffffff168173ffffffffffffffffffffffffffffffffffffffff16837bffffffffffffffffffffffffffffffffffffffffffffffffffffffff19167fe6231789d19137da31d0550f4ba9ee379020a8cfb64cb79bf1790c996d2e616560405160405180910390a45b5050565b60008163ffffffff168363ffffffff16106128605781612862565b825b905092915050565b60606044825110156128b3576040518060400160405280601d81526020017f5472616e73616374696f6e2072657665727465642073696c656e746c7900000081525090506128d0565b600482019150818060200190518101906128cd91906130b2565b90505b919050565b600081600260008673ffffffffffffffffffffffffffffffffffffffff1673ffffffffffffffffffffffffffffffffffffffff168152602001908152602001600020541015612959576040517f08c379a000000000000000000000000000000000000000000000000000000000815260040161295090613882565b60405180910390fd5b81600260008673ffffffffffffffffffffffffffffffffffffffff1673ffffffffffffffffffffffffffffffffffffffff1681526020019081526020016000205403600260008673ffffffffffffffffffffffffffffffffffffffff1673ffffffffffffffffffffffffffffffffffffffff1681526020019081526020016000208190555081600260008573ffffffffffffffffffffffffffffffffffffffff1673ffffffffffffffffffffffffffffffffffffffff16815260200190815260200160002054612a299190613b32565b600260008573ffffffffffffffffffffffffffffffffffffffff1673ffffffffffffffffffffffffffffffffffffffff168152602001908152602001600020819055508273ffffffffffffffffffffffffffffffffffffffff168473ffffffffffffffffffffffffffffffffffffffff167fddf252ad1be2c89b69c2b068fc378daa952ba7f163c4a11628f55a4df523b3ef84604051612ac991906139bd565b60405180910390a3600190509392505050565b600081600260008573ffffffffffffffffffffffffffffffffffffffff1673ffffffffffffffffffffffffffffffffffffffff168152602001908152602001600020541015612b60576040517f08c379a0000000000000000000000000000000000000000000000000000000008152600401612b5790613882565b60405180910390fd5b81600260008573ffffffffffffffffffffffffffffffffffffffff1673ffffffffffffffffffffffffffffffffffffffff1681526020019081526020016000205403600260008573ffffffffffffffffffffffffffffffffffffffff1673ffffffffffffffffffffffffffffffffffffffff168152602001908152602001600020819055508160015403600181905550600073ffffffffffffffffffffffffffffffffffffffff168373ffffffffffffffffffffffffffffffffffffffff167fddf252ad1be2c89b69c2b068fc378daa952ba7f163c4a11628f55a4df523b3ef84604051612c4e91906139bd565b60405180910390a36001905092915050565b6000612c73612c6e84613a84565b613a53565b90508083825260208201905082856020860282011115612c9257600080fd5b60005b85811015612cc25781612ca88882612d73565b845260208401935060208301925050600181019050612c95565b5050509392505050565b6000612cdf612cda84613ab0565b613a53565b905082815260208101848484011115612cf757600080fd5b612d02848285613d92565b509392505050565b600081359050612d1981613f17565b92915050565b600082601f830112612d3057600080fd5b8135612d40848260208601612c60565b91505092915050565b600081519050612d5881613f2e565b92915050565b600081359050612d6d81613f45565b92915050565b600081359050612d8281613f5c565b92915050565b600082601f830112612d9957600080fd5b8151612da9848260208601612ccc565b91505092915050565b600081359050612dc181613f73565b92915050565b600081359050612dd681613f8a565b92915050565b600081359050612deb81613fa1565b92915050565b600081359050612e0081613fb8565b92915050565b600060208284031215612e1857600080fd5b6000612e2684828501612d0a565b91505092915050565b60008060408385031215612e4257600080fd5b6000612e5085828601612d0a565b9250506020612e6185828601612d0a565b9150509250929050565b600080600060608486031215612e8057600080fd5b6000612e8e86828701612d0a565b9350506020612e9f86828701612d0a565b9250506040612eb086828701612db2565b9150509250925092565b600080600080600080600060e0888a031215612ed557600080fd5b6000612ee38a828b01612d0a565b9750506020612ef48a828b01612d0a565b9650506040612f058a828b01612db2565b9550506060612f168a828b01612db2565b9450506080612f278a828b01612ddc565b93505060a0612f388a828b01612d5e565b92505060c0612f498a828b01612d5e565b91505092959891949750929550565b60008060408385031215612f6b57600080fd5b6000612f7985828601612d0a565b9250506020612f8a85828601612db2565b9150509250929050565b60008060408385031215612fa757600080fd5b600083013567ffffffffffffffff811115612fc157600080fd5b612fcd85828601612d1f565b9250506020612fde85828601612d0a565b9150509250929050565b600060208284031215612ffa57600080fd5b600061300884828501612d49565b91505092915050565b60006020828403121561302357600080fd5b600061303184828501612d73565b91505092915050565b6000806040838503121561304d57600080fd5b600061305b85828601612d73565b925050602061306c85828601612d0a565b9150509250929050565b6000806040838503121561308957600080fd5b600061309785828601612d73565b92505060206130a885828601612d73565b9150509250929050565b6000602082840312156130c457600080fd5b600082015167ffffffffffffffff8111156130de57600080fd5b6130ea84828501612d88565b91505092915050565b60008060006060848603121561310857600080fd5b600061311686828701612dc7565b935050602061312786828701612dc7565b925050604061313886828701612df1565b9150509250925092565b61314b81613c7b565b82525050565b61315a81613c8d565b82525050565b61316981613c99565b82525050565b61318061317b82613c99565b613e40565b82525050565b61318f81613ca3565b82525050565b60006131a082613af5565b6131aa8185613b0b565b93506131ba818560208601613d92565b80840191505092915050565b600081546131d381613dc5565b6131dd8186613b0b565b945060018216600081146131f857600181146132095761323c565b60ff1983168652818601935061323c565b61321285613ae0565b60005b8381101561323457815481890152600182019150602081019050613215565b838801955050505b50505092915050565b61324e81613d4a565b82525050565b600061325f82613b00565b6132698185613b16565b9350613279818560208601613d92565b61328281613f06565b840191505092915050565b600061329a600d83613b16565b91507f43617374206f766572666c6f77000000000000000000000000000000000000006000830152602082019050919050565b60006132da600283613b27565b91507f19010000000000000000000000000000000000000000000000000000000000006000830152600282019050919050565b600061331a601d83613b16565b91507f45524332305065726d69743a206578706972656420646561646c696e650000006000830152602082019050919050565b600061335a601c83613b16565b91507f45524332303a20496e73756666696369656e7420617070726f76616c000000006000830152602082019050919050565b600061339a600a83613b16565b91507f4f6e6c792061646d696e000000000000000000000000000000000000000000006000830152602082019050919050565b60006133da601b83613b16565b91507f45524332303a20496e73756666696369656e742062616c616e636500000000006000830152602082019050919050565b600061341a600f83613b16565b91507f496e636f727265637420696e70757400000000000000000000000000000000006000830152602082019050919050565b600061345a601e83613b16565b91507f45524332305065726d69743a20696e76616c6964207369676e617475726500006000830152602082019050919050565b600061349a601683613b16565b91507f52656e6f756e6365206f6e6c7920666f722073656c66000000000000000000006000830152602082019050919050565b60006134da600d83613b16565b91507f4163636573732064656e696564000000000000000000000000000000000000006000830152602082019050919050565b600061351a600f83613b16565b91507f4f6e676f696e67207265776172647300000000000000000000000000000000006000830152602082019050919050565b61355681613ccf565b82525050565b61356581613d6e565b82525050565b61357481613d0b565b82525050565b61358381613d15565b82525050565b61359281613d25565b82525050565b6135a181613d80565b82525050565b6135b081613d32565b82525050565b60006135c28284613195565b915081905092915050565b60006135d982846131c6565b915081905092915050565b60006135ef826132cd565b91506135fb828561316f565b60208201915061360b828461316f565b6020820191508190509392505050565b60006060820190506136306000830186613142565b61363d602083018561355c565b61364a604083018461355c565b949350505050565b60006040820190506136676000830185613142565b613674602083018461356b565b9392505050565b60006020820190506136906000830184613151565b92915050565b60006020820190506136ab6000830184613160565b92915050565b600060c0820190506136c66000830189613160565b6136d36020830188613142565b6136e06040830187613142565b6136ed606083018661356b565b6136fa608083018561356b565b61370760a083018461356b565b979650505050505050565b600060a0820190506137276000830188613160565b6137346020830187613160565b6137416040830186613160565b61374e606083018561356b565b61375b6080830184613142565b9695505050505050565b600060808201905061377a6000830187613160565b6137876020830186613589565b6137946040830185613160565b6137a16060830184613160565b95945050505050565b60006020820190506137bf6000830184613186565b92915050565b60006020820190506137da6000830184613245565b92915050565b600060208201905081810360008301526137fa8184613254565b905092915050565b6000602082019050818103600083015261381b8161328d565b9050919050565b6000602082019050818103600083015261383b8161330d565b9050919050565b6000602082019050818103600083015261385b8161334d565b9050919050565b6000602082019050818103600083015261387b8161338d565b9050919050565b6000602082019050818103600083015261389b816133cd565b9050919050565b600060208201905081810360008301526138bb8161340d565b9050919050565b600060208201905081810360008301526138db8161344d565b9050919050565b600060208201905081810360008301526138fb8161348d565b9050919050565b6000602082019050818103600083015261391b816134cd565b9050919050565b6000602082019050818103600083015261393b8161350d565b9050919050565b6000602082019050613957600083018461355c565b92915050565b6000604082019050613972600083018561354d565b61397f602083018461354d565b9392505050565b600060608201905061399b600083018661354d565b6139a8602083018561357a565b6139b560408301846135a7565b949350505050565b60006020820190506139d2600083018461356b565b92915050565b60006040820190506139ed600083018561357a565b6139fa602083018461357a565b9392505050565b6000606082019050613a16600083018661357a565b613a23602083018561357a565b613a306040830184613598565b949350505050565b6000602082019050613a4d6000830184613589565b92915050565b6000604051905081810181811067ffffffffffffffff82111715613a7a57613a79613ed7565b5b8060405250919050565b600067ffffffffffffffff821115613a9f57613a9e613ed7565b5b602082029050602081019050919050565b600067ffffffffffffffff821115613acb57613aca613ed7565b5b601f19601f8301169050602081019050919050565b60008190508160005260206000209050919050565b600081519050919050565b600081519050919050565b600081905092915050565b600082825260208201905092915050565b600081905092915050565b6000613b3d82613d0b565b9150613b4883613d0b565b9250827fffffffffffffffffffffffffffffffffffffffffffffffffffffffffffffffff03821115613b7d57613b7c613e4a565b5b828201905092915050565b6000613b9382613d0b565b9150613b9e83613d0b565b925082613bae57613bad613e79565b5b828204905092915050565b6000613bc482613d0b565b9150613bcf83613d0b565b9250817fffffffffffffffffffffffffffffffffffffffffffffffffffffffffffffffff0483118215151615613c0857613c07613e4a565b5b828202905092915050565b6000613c1e82613ccf565b9150613c2983613ccf565b925082821015613c3c57613c3b613e4a565b5b828203905092915050565b6000613c5282613d15565b9150613c5d83613d15565b925082821015613c7057613c6f613e4a565b5b828203905092915050565b6000613c8682613ceb565b9050919050565b60008115159050919050565b6000819050919050565b60007fffffffff0000000000000000000000000000000000000000000000000000000082169050919050565b60006fffffffffffffffffffffffffffffffff82169050919050565b600073ffffffffffffffffffffffffffffffffffffffff82169050919050565b6000819050919050565b600063ffffffff82169050919050565b600060ff82169050919050565b60006bffffffffffffffffffffffff82169050919050565b6000613d5582613d5c565b9050919050565b6000613d6782613ceb565b9050919050565b6000613d7982613ccf565b9050919050565b6000613d8b82613d32565b9050919050565b60005b83811015613db0578082015181840152602081019050613d95565b83811115613dbf576000848401525b50505050565b60006002820490506001821680613ddd57607f821691505b60208210811415613df157613df0613ea8565b5b50919050565b6000613e0282613d0b565b91507fffffffffffffffffffffffffffffffffffffffffffffffffffffffffffffffff821415613e3557613e34613e4a565b5b600182019050919050565b6000819050919050565b7f4e487b7100000000000000000000000000000000000000000000000000000000600052601160045260246000fd5b7f4e487b7100000000000000000000000000000000000000000000000000000000600052601260045260246000fd5b7f4e487b7100000000000000000000000000000000000000000000000000000000600052602260045260246000fd5b7f4e487b7100000000000000000000000000000000000000000000000000000000600052604160045260246000fd5b6000601f19601f8301169050919050565b613f2081613c7b565b8114613f2b57600080fd5b50565b613f3781613c8d565b8114613f4257600080fd5b50565b613f4e81613c99565b8114613f5957600080fd5b50565b613f6581613ca3565b8114613f7057600080fd5b50565b613f7c81613d0b565b8114613f8757600080fd5b50565b613f9381613d15565b8114613f9e57600080fd5b50565b613faa81613d25565b8114613fb557600080fd5b50565b613fc181613d32565b8114613fcc57600080fd5b5056fea26469706673582212201f95d0e464ed41b1f8a97c35c1190e6e7acda89dc53ca29a7ec1501dae36574964736f6c63430008000033",
  "immutableReferences": {
    "1080": [
      {
        "length": 32,
        "start": 2413
      },
      {
        "length": 32,
        "start": 4667
      }
    ],
    "1082": [
      {
        "length": 32,
        "start": 2527
      },
      {
        "length": 32,
        "start": 4888
      }
    ],
    "1084": [
      {
        "length": 32,
        "start": 2474
      },
      {
        "length": 32,
        "start": 4521
      },
      {
        "length": 32,
        "start": 4835
      }
    ],
    "1345": [
      {
        "length": 32,
        "start": 2198
      },
      {
        "length": 32,
        "start": 4557
      }
    ]
  },
  "source": "pragma solidity ^0.8.0;\n\nimport \"./yields-utils-v2/token/ERC20Rewards.sol\";\nimport \"./yields-utils-v2/token/ERC20.sol\";\n\ncontract Staked is ERC20Rewards {\n    constructor(address rewardsToken)\n        ERC20Rewards(\"Staked\", \"Staked\", 18, IERC20(rewardsToken))\n    {\n        _mint(msg.sender, 2000000 * 10**18);\n    }\n\n    function mint(address dst, uint256 wad) external auth returns (bool) {\n        return _mint(dst, wad);\n    }\n\n    function burn(address dst, uint256 wad) external auth returns (bool) {\n        return _burn(dst, wad);\n    }\n}\n",
  "sourcePath": "/home/vladimirdjukic/Documents/staked/tokens/contracts/Staked.sol",
  "compiler": {
    "name": "solc",
    "version": "0.8.0+commit.c7dfd78e.Emscripten.clang"
  },
  "schemaVersion": "3.4.3",
  "updatedAt": "2021-08-29T12:08:41.903Z",
  "devdoc": {
    "kind": "dev",
    "methods": {
      "DOMAIN_SEPARATOR()": {
        "details": "Return the DOMAIN_SEPARATOR."
      },
      "allowance(address,address)": {
        "details": "See {IERC20-allowance}."
      },
      "approve(address,uint256)": {
        "details": "See {IERC20-approve}."
      },
      "balanceOf(address)": {
        "details": "See {IERC20-balanceOf}."
      },
      "claim(address)": {
        "details": "Claim all rewards from caller into a given address"
      },
      "getRoleAdmin(bytes4)": {
        "details": "Returns the admin role that controls `role`. See {grantRole} and {revokeRole}. To change a role's admin, use {_setRoleAdmin}."
      },
      "grantRole(bytes4,address)": {
        "details": "Grants `role` to `account`. If `account` had not been already granted `role`, emits a {RoleGranted} event. Requirements: - the caller must have ``role``'s admin role."
      },
      "grantRoles(bytes4[],address)": {
        "details": "Grants all of `role` in `roles` to `account`. If `account` had not been already granted `role`, emits a {RoleGranted} event. Requirements: - For each `role` in `roles`, the caller must have ``role``'s admin role."
      },
      "hasRole(bytes4,address)": {
        "details": "Returns `true` if `account` has been granted `role`."
      },
      "lockRole(bytes4)": {
        "details": "Sets LOCK as ``role``'s admin role. LOCK has no members, so this disables admin management of ``role``. Emits a {RoleAdminChanged} event. Requirements: - the caller must have ``role``'s admin role."
      },
      "permit(address,address,uint256,uint256,uint8,bytes32,bytes32)": {
        "details": "See {IERC2612-permit}. In cases where the free option is not a concern, deadline can simply be set to uint(-1), so it should be seen as an optional parameter"
      },
      "renounceRole(bytes4,address)": {
        "details": "Revokes `role` from the calling account. Roles are often managed via {grantRole} and {revokeRole}: this function's purpose is to provide a mechanism for accounts to lose their privileges if they are compromised (such as when a trusted device is misplaced). If the calling account had been granted `role`, emits a {RoleRevoked} event. Requirements: - the caller must be `account`."
      },
      "revokeRole(bytes4,address)": {
        "details": "Revokes `role` from `account`. If `account` had been granted `role`, emits a {RoleRevoked} event. Requirements: - the caller must have ``role``'s admin role."
      },
      "revokeRoles(bytes4[],address)": {
        "details": "Revokes all of `role` in `roles` from `account`. If `account` had been granted `role`, emits a {RoleRevoked} event. Requirements: - For each `role` in `roles`, the caller must have ``role``'s admin role."
      },
      "setRewards(uint32,uint32,uint96)": {
        "details": "Set a rewards schedule"
      },
      "setRoleAdmin(bytes4,bytes4)": {
        "details": "Sets `adminRole` as ``role``'s admin role. If ``role``'s admin role is not `adminRole` emits a {RoleAdminChanged} event. Requirements: - the caller must have ``role``'s admin role."
      },
      "totalSupply()": {
        "details": "See {IERC20-totalSupply}."
      },
      "transfer(address,uint256)": {
        "details": "See {IERC20-transfer}. Requirements: - the caller must have a balance of at least `wad`."
      },
      "version()": {
        "details": "Setting the version as a function so that it can be overriden"
      }
    },
    "version": 1
  },
  "userdoc": {
    "kind": "user",
    "methods": {
      "transferFrom(address,address,uint256)": {
        "notice": "if_succeeds {:msg \"TransferFrom - decrease allowance\"} msg.sender != src ==> old(_allowance[src][msg.sender]) >= wad;"
      }
    },
    "version": 1
  }
}