{
  "contractName": "TimeLock",
  "abi": [
    {
      "inputs": [
        {
          "internalType": "address",
          "name": "scheduler",
          "type": "address"
        },
        {
          "internalType": "address",
          "name": "executor",
          "type": "address"
        }
      ],
      "stateMutability": "nonpayable",
      "type": "constructor"
    },
    {
      "anonymous": false,
      "inputs": [
        {
          "indexed": true,
          "internalType": "bytes32",
          "name": "txHash",
          "type": "bytes32"
        }
      ],
      "name": "Cancelled",
      "type": "event"
    },
    {
      "anonymous": false,
      "inputs": [
        {
          "indexed": true,
          "internalType": "uint256",
          "name": "delay",
          "type": "uint256"
        }
      ],
      "name": "DelaySet",
      "type": "event"
    },
    {
      "anonymous": false,
      "inputs": [
        {
          "indexed": true,
          "internalType": "bytes32",
          "name": "txHash",
          "type": "bytes32"
        },
        {
          "indexed": false,
          "internalType": "address[]",
          "name": "targets",
          "type": "address[]"
        },
        {
          "indexed": false,
          "internalType": "bytes[]",
          "name": "data",
          "type": "bytes[]"
        }
      ],
      "name": "Executed",
      "type": "event"
    },
    {
      "anonymous": false,
      "inputs": [
        {
          "indexed": true,
          "internalType": "bytes4",
          "name": "role",
          "type": "bytes4"
        },
        {
          "indexed": true,
          "internalType": "bytes4",
          "name": "newAdminRole",
          "type": "bytes4"
        }
      ],
      "name": "RoleAdminChanged",
      "type": "event"
    },
    {
      "anonymous": false,
      "inputs": [
        {
          "indexed": true,
          "internalType": "bytes4",
          "name": "role",
          "type": "bytes4"
        },
        {
          "indexed": true,
          "internalType": "address",
          "name": "account",
          "type": "address"
        },
        {
          "indexed": true,
          "internalType": "address",
          "name": "sender",
          "type": "address"
        }
      ],
      "name": "RoleGranted",
      "type": "event"
    },
    {
      "anonymous": false,
      "inputs": [
        {
          "indexed": true,
          "internalType": "bytes4",
          "name": "role",
          "type": "bytes4"
        },
        {
          "indexed": true,
          "internalType": "address",
          "name": "account",
          "type": "address"
        },
        {
          "indexed": true,
          "internalType": "address",
          "name": "sender",
          "type": "address"
        }
      ],
      "name": "RoleRevoked",
      "type": "event"
    },
    {
      "anonymous": false,
      "inputs": [
        {
          "indexed": true,
          "internalType": "bytes32",
          "name": "txHash",
          "type": "bytes32"
        },
        {
          "indexed": false,
          "internalType": "address[]",
          "name": "targets",
          "type": "address[]"
        },
        {
          "indexed": false,
          "internalType": "bytes[]",
          "name": "data",
          "type": "bytes[]"
        },
        {
          "indexed": false,
          "internalType": "uint256",
          "name": "eta",
          "type": "uint256"
        }
      ],
      "name": "Scheduled",
      "type": "event"
    },
    {
      "inputs": [],
      "name": "GRACE_PERIOD",
      "outputs": [
        {
          "internalType": "uint256",
          "name": "",
          "type": "uint256"
        }
      ],
      "stateMutability": "view",
      "type": "function"
    },
    {
      "inputs": [],
      "name": "LOCK",
      "outputs": [
        {
          "internalType": "bytes4",
          "name": "",
          "type": "bytes4"
        }
      ],
      "stateMutability": "view",
      "type": "function"
    },
    {
      "inputs": [],
      "name": "MAXIMUM_DELAY",
      "outputs": [
        {
          "internalType": "uint256",
          "name": "",
          "type": "uint256"
        }
      ],
      "stateMutability": "view",
      "type": "function"
    },
    {
      "inputs": [],
      "name": "MINIMUM_DELAY",
      "outputs": [
        {
          "internalType": "uint256",
          "name": "",
          "type": "uint256"
        }
      ],
      "stateMutability": "view",
      "type": "function"
    },
    {
      "inputs": [],
      "name": "ROOT",
      "outputs": [
        {
          "internalType": "bytes4",
          "name": "",
          "type": "bytes4"
        }
      ],
      "stateMutability": "view",
      "type": "function"
    },
    {
      "inputs": [],
      "name": "delay",
      "outputs": [
        {
          "internalType": "uint256",
          "name": "",
          "type": "uint256"
        }
      ],
      "stateMutability": "view",
      "type": "function"
    },
    {
      "inputs": [
        {
          "internalType": "bytes4",
          "name": "role",
          "type": "bytes4"
        }
      ],
      "name": "getRoleAdmin",
      "outputs": [
        {
          "internalType": "bytes4",
          "name": "",
          "type": "bytes4"
        }
      ],
      "stateMutability": "view",
      "type": "function"
    },
    {
      "inputs": [
        {
          "internalType": "bytes4",
          "name": "role",
          "type": "bytes4"
        },
        {
          "internalType": "address",
          "name": "account",
          "type": "address"
        }
      ],
      "name": "grantRole",
      "outputs": [],
      "stateMutability": "nonpayable",
      "type": "function"
    },
    {
      "inputs": [
        {
          "internalType": "bytes4[]",
          "name": "roles",
          "type": "bytes4[]"
        },
        {
          "internalType": "address",
          "name": "account",
          "type": "address"
        }
      ],
      "name": "grantRoles",
      "outputs": [],
      "stateMutability": "nonpayable",
      "type": "function"
    },
    {
      "inputs": [
        {
          "internalType": "bytes4",
          "name": "role",
          "type": "bytes4"
        },
        {
          "internalType": "address",
          "name": "account",
          "type": "address"
        }
      ],
      "name": "hasRole",
      "outputs": [
        {
          "internalType": "bool",
          "name": "",
          "type": "bool"
        }
      ],
      "stateMutability": "view",
      "type": "function"
    },
    {
      "inputs": [
        {
          "internalType": "bytes4",
          "name": "role",
          "type": "bytes4"
        }
      ],
      "name": "lockRole",
      "outputs": [],
      "stateMutability": "nonpayable",
      "type": "function"
    },
    {
      "inputs": [
        {
          "internalType": "bytes4",
          "name": "role",
          "type": "bytes4"
        },
        {
          "internalType": "address",
          "name": "account",
          "type": "address"
        }
      ],
      "name": "renounceRole",
      "outputs": [],
      "stateMutability": "nonpayable",
      "type": "function"
    },
    {
      "inputs": [
        {
          "internalType": "bytes4",
          "name": "role",
          "type": "bytes4"
        },
        {
          "internalType": "address",
          "name": "account",
          "type": "address"
        }
      ],
      "name": "revokeRole",
      "outputs": [],
      "stateMutability": "nonpayable",
      "type": "function"
    },
    {
      "inputs": [
        {
          "internalType": "bytes4[]",
          "name": "roles",
          "type": "bytes4[]"
        },
        {
          "internalType": "address",
          "name": "account",
          "type": "address"
        }
      ],
      "name": "revokeRoles",
      "outputs": [],
      "stateMutability": "nonpayable",
      "type": "function"
    },
    {
      "inputs": [
        {
          "internalType": "bytes4",
          "name": "role",
          "type": "bytes4"
        },
        {
          "internalType": "bytes4",
          "name": "adminRole",
          "type": "bytes4"
        }
      ],
      "name": "setRoleAdmin",
      "outputs": [],
      "stateMutability": "nonpayable",
      "type": "function"
    },
    {
      "inputs": [
        {
          "internalType": "bytes32",
          "name": "",
          "type": "bytes32"
        }
      ],
      "name": "transactions",
      "outputs": [
        {
          "internalType": "uint256",
          "name": "",
          "type": "uint256"
        }
      ],
      "stateMutability": "view",
      "type": "function"
    },
    {
      "inputs": [
        {
          "internalType": "uint256",
          "name": "delay_",
          "type": "uint256"
        }
      ],
      "name": "setDelay",
      "outputs": [],
      "stateMutability": "nonpayable",
      "type": "function"
    },
    {
      "inputs": [
        {
          "internalType": "address[]",
          "name": "targets",
          "type": "address[]"
        },
        {
          "internalType": "bytes[]",
          "name": "data",
          "type": "bytes[]"
        },
        {
          "internalType": "uint256",
          "name": "eta",
          "type": "uint256"
        }
      ],
      "name": "schedule",
      "outputs": [
        {
          "internalType": "bytes32",
          "name": "txHash",
          "type": "bytes32"
        }
      ],
      "stateMutability": "nonpayable",
      "type": "function"
    },
    {
      "inputs": [
        {
          "internalType": "bytes32",
          "name": "txHash",
          "type": "bytes32"
        }
      ],
      "name": "cancel",
      "outputs": [],
      "stateMutability": "nonpayable",
      "type": "function"
    },
    {
      "inputs": [
        {
          "internalType": "address[]",
          "name": "targets",
          "type": "address[]"
        },
        {
          "internalType": "bytes[]",
          "name": "data",
          "type": "bytes[]"
        }
      ],
      "name": "execute",
      "outputs": [
        {
          "internalType": "bytes[]",
          "name": "results",
          "type": "bytes[]"
        }
      ],
      "stateMutability": "nonpayable",
      "type": "function"
    }
  ],
  "bytecode": "0x60806040523480156200001157600080fd5b5060405162002e7a38038062002e7a8339818101604052810190620000379190620005ed565b6200004d600060e01b336200010f60201b60201c565b6200006d63ffffffff60e01b63ffffffff60e01b6200024e60201b60201c565b6202a30060018190555062000090635e0756aa60e01b836200010f60201b60201c565b620000a963c4d252f560e01b836200010f60201b60201c565b620000c263c8d18a4560e01b826200010f60201b60201c565b620000db63e177246e60e01b306200010f60201b60201c565b620000f1600060e01b306200010f60201b60201c565b62000107600060e01b336200038460201b60201c565b50506200067c565b620001218282620004c460201b60201c565b6200024a576001600080847bffffffffffffffffffffffffffffffffffffffffffffffffffffffff19167bffffffffffffffffffffffffffffffffffffffffffffffffffffffff1916815260200190815260200160002060000160008373ffffffffffffffffffffffffffffffffffffffff1673ffffffffffffffffffffffffffffffffffffffff16815260200190815260200160002060006101000a81548160ff0219169083151502179055503373ffffffffffffffffffffffffffffffffffffffff168173ffffffffffffffffffffffffffffffffffffffff16837bffffffffffffffffffffffffffffffffffffffffffffffffffffffff19167fe6231789d19137da31d0550f4ba9ee379020a8cfb64cb79bf1790c996d2e616560405160405180910390a45b5050565b807bffffffffffffffffffffffffffffffffffffffffffffffffffffffff19166200027f836200056c60201b60201c565b7bffffffffffffffffffffffffffffffffffffffffffffffffffffffff191614620003805780600080847bffffffffffffffffffffffffffffffffffffffffffffffffffffffff19167bffffffffffffffffffffffffffffffffffffffffffffffffffffffff1916815260200190815260200160002060010160006101000a81548163ffffffff021916908360e01c0217905550807bffffffffffffffffffffffffffffffffffffffffffffffffffffffff1916827bffffffffffffffffffffffffffffffffffffffffffffffffffffffff19167fd348e2220a50b4500ec353f6e802d2f14dd1b5d6786148fd1bbcc570bf92d47360405160405180910390a35b5050565b620003968282620004c460201b60201c565b15620004c0576000806000847bffffffffffffffffffffffffffffffffffffffffffffffffffffffff19167bffffffffffffffffffffffffffffffffffffffffffffffffffffffff1916815260200190815260200160002060000160008373ffffffffffffffffffffffffffffffffffffffff1673ffffffffffffffffffffffffffffffffffffffff16815260200190815260200160002060006101000a81548160ff0219169083151502179055503373ffffffffffffffffffffffffffffffffffffffff168173ffffffffffffffffffffffffffffffffffffffff16837bffffffffffffffffffffffffffffffffffffffffffffffffffffffff19167f4ddc7b757e7bdd7254a9cd39452d307a52761bc824625c6a33104a075d8099e660405160405180910390a45b5050565b6000806000847bffffffffffffffffffffffffffffffffffffffffffffffffffffffff19167bffffffffffffffffffffffffffffffffffffffffffffffffffffffff1916815260200190815260200160002060000160008373ffffffffffffffffffffffffffffffffffffffff1673ffffffffffffffffffffffffffffffffffffffff16815260200190815260200160002060009054906101000a900460ff16905092915050565b6000806000837bffffffffffffffffffffffffffffffffffffffffffffffffffffffff19167bffffffffffffffffffffffffffffffffffffffffffffffffffffffff1916815260200190815260200160002060010160009054906101000a900460e01b9050919050565b600081519050620005e78162000662565b92915050565b600080604083850312156200060157600080fd5b60006200061185828601620005d6565b92505060206200062485828601620005d6565b9150509250929050565b60006200063b8262000642565b9050919050565b600073ffffffffffffffffffffffffffffffffffffffff82169050919050565b6200066d816200062e565b81146200067957600080fd5b50565b6127ee806200068c6000396000f3fe608060405234801561001057600080fd5b506004361061012c5760003560e01c8063a4f0d7d0116100ad578063c4d252f511610071578063c4d252f514610331578063c8d18a451461034d578063de02cde71461037d578063e177246e14610399578063effae353146103b55761012c565b8063a4f0d7d01461029f578063ad82110f146102bd578063ae93c1b5146102d9578063b1b43ae5146102f5578063c1a287e2146103135761012c565b80635e0756aa116100f45780635e0756aa146101e7578063642f2eaf14610217578063687f0e4c146102475780636a42b8f8146102635780637d645fab146102815761012c565b806310ab94321461013157806344faded014610161578063559742d91461017d5780635909c12f146101995780635ba5e9f0146101b7575b600080fd5b61014b60048036038101906101469190611a13565b6103d1565b6040516101589190612173565b60405180910390f35b61017b60048036038101906101769190611a13565b6103e5565b005b610197600480360381019061019291906119ea565b610446565b005b6101a16104ad565b6040516101ae91906121a9565b60405180910390f35b6101d160048036038101906101cc91906119ea565b6104b5565b6040516101de91906121a9565b60405180910390f35b61020160048036038101906101fc91906118e4565b6104c7565b60405161020e919061218e565b60405180910390f35b610231600480360381019061022c91906119c1565b6106b4565b60405161023e9190612366565b60405180910390f35b610261600480360381019061025c9190611a13565b6106cc565b005b61026b610748565b6040516102789190612366565b60405180910390f35b61028961074e565b6040516102969190612366565b60405180910390f35b6102a7610755565b6040516102b491906121a9565b60405180910390f35b6102d760048036038101906102d2919061196d565b610760565b005b6102f360048036038101906102ee9190611a4f565b61085f565b005b6102fd6108c0565b60405161030a9190612366565b60405180910390f35b61031b6108c7565b6040516103289190612366565b60405180910390f35b61034b600480360381019061034691906119c1565b6108ce565b005b6103676004803603810190610362919061186f565b6109d9565b6040516103749190612151565b60405180910390f35b61039760048036038101906103929190611a13565b610ea6565b005b6103b360048036038101906103ae9190611acc565b610f07565b005b6103cf60048036038101906103ca919061196d565b611037565b005b60006103dd8383611136565b905092915050565b816103f86103f2826111de565b33611136565b610437576040517f08c379a000000000000000000000000000000000000000000000000000000000815260040161042e90612226565b60405180910390fd5b6104418383611248565b505050565b80610459610453826111de565b33611136565b610498576040517f08c379a000000000000000000000000000000000000000000000000000000000815260040161048f90612226565b60405180910390fd5b6104a98263ffffffff60e01b61137f565b5050565b600060e01b81565b60006104c0826111de565b9050919050565b60006104f76000357fffffffff000000000000000000000000000000000000000000000000000000001633611136565b610536576040517f08c379a000000000000000000000000000000000000000000000000000000000815260040161052d90612306565b60405180910390fd5b83839050868690501461057e576040517f08c379a000000000000000000000000000000000000000000000000000000000815260040161057590612266565b60405180910390fd5b6001544261058c919061258e565b8210156105ce576040517f08c379a00000000000000000000000000000000000000000000000000000000081526004016105c590612326565b60405180910390fd5b858585856040516020016105e594939291906120cd565b6040516020818303038152906040528051906020012090506000600260008381526020019081526020016000205414610653576040517f08c379a000000000000000000000000000000000000000000000000000000000815260040161064a90612246565b60405180910390fd5b816002600083815260200190815260200160002081905550807f294e4abb1ed6b6ed5622a190cc62b101d68b63274e21a6c9e2712edffc877cd187878787876040516106a3959493929190612108565b60405180910390a295945050505050565b60026020528060005260406000206000915090505481565b3373ffffffffffffffffffffffffffffffffffffffff168173ffffffffffffffffffffffffffffffffffffffff161461073a576040517f08c379a0000000000000000000000000000000000000000000000000000000008152600401610731906122e6565b60405180910390fd5b6107448282611248565b5050565b60015481565b62278d0081565b63ffffffff60e01b81565b60005b825181101561085a576107be6107b88483815181106107ab577f4e487b7100000000000000000000000000000000000000000000000000000000600052603260045260246000fd5b60200260200101516111de565b33611136565b6107fd576040517f08c379a00000000000000000000000000000000000000000000000000000000081526004016107f490612226565b60405180910390fd5b610847838281518110610839577f4e487b7100000000000000000000000000000000000000000000000000000000600052603260045260246000fd5b602002602001015183611248565b8080610852906126a4565b915050610763565b505050565b8161087261086c826111de565b33611136565b6108b1576040517f08c379a00000000000000000000000000000000000000000000000000000000081526004016108a890612226565b60405180910390fd5b6108bb838361137f565b505050565b6202a30081565b6212750081565b6108fc6000357fffffffff000000000000000000000000000000000000000000000000000000001633611136565b61093b576040517f08c379a000000000000000000000000000000000000000000000000000000000815260040161093290612306565b60405180910390fd5b600060026000838152602001908152602001600020541415610992576040517f08c379a000000000000000000000000000000000000000000000000000000000815260040161098990612206565b60405180910390fd5b6002600082815260200190815260200160002060009055807fbaa1eb22f2a492ba1a5fea61b8df4d27c6c8b5f3971e63bb58fa14ff72eedb7060405160405180910390a250565b6060610a096000357fffffffff000000000000000000000000000000000000000000000000000000001633611136565b610a48576040517f08c379a0000000000000000000000000000000000000000000000000000000008152600401610a3f90612306565b60405180910390fd5b600085858585604051602001610a6194939291906120cd565b6040516020818303038152906040528051906020012090506000600260008381526020019081526020016000205490506000811415610ad5576040517f08c379a0000000000000000000000000000000000000000000000000000000008152600401610acc90612206565b60405180910390fd5b80421015610b18576040517f08c379a0000000000000000000000000000000000000000000000000000000008152600401610b0f90612286565b60405180910390fd5b6212750081610b27919061258e565b421115610b69576040517f08c379a0000000000000000000000000000000000000000000000000000000008152600401610b6090612346565b60405180910390fd5b60026000838152602001908152602001600020600090558686905067ffffffffffffffff811115610bc3577f4e487b7100000000000000000000000000000000000000000000000000000000600052604160045260246000fd5b604051908082528060200260200182016040528015610bf657816020015b6060815260200190600190039081610be15790505b50925060005b87879050811015610e5d57610c73888883818110610c43577f4e487b7100000000000000000000000000000000000000000000000000000000600052603260045260246000fd5b9050602002016020810190610c589190611846565b73ffffffffffffffffffffffffffffffffffffffff166114ac565b610cb2576040517f08c379a0000000000000000000000000000000000000000000000000000000008152600401610ca9906121e6565b60405180910390fd5b600080898984818110610cee577f4e487b7100000000000000000000000000000000000000000000000000000000600052603260045260246000fd5b9050602002016020810190610d039190611846565b73ffffffffffffffffffffffffffffffffffffffff16888885818110610d52577f4e487b7100000000000000000000000000000000000000000000000000000000600052603260045260246000fd5b9050602002810190610d649190612381565b604051610d729291906120b4565b6000604051808303816000865af19150503d8060008114610daf576040519150601f19603f3d011682016040523d82523d6000602084013e610db4565b606091505b509150915081610e0357610dc7816114bf565b6040517f08c379a0000000000000000000000000000000000000000000000000000000008152600401610dfa91906121c4565b60405180910390fd5b80868481518110610e3d577f4e487b7100000000000000000000000000000000000000000000000000000000600052603260045260246000fd5b602002602001018190525050508080610e55906126a4565b915050610bfc565b50817f30c85b9eeaaaa5a12c68866ba4e0c099edc528be22e62ed6a8a1f0eb57f3caa788888888604051610e9494939291906120cd565b60405180910390a25050949350505050565b81610eb9610eb3826111de565b33611136565b610ef8576040517f08c379a0000000000000000000000000000000000000000000000000000000008152600401610eef90612226565b60405180910390fd5b610f02838361152a565b505050565b610f356000357fffffffff000000000000000000000000000000000000000000000000000000001633611136565b610f74576040517f08c379a0000000000000000000000000000000000000000000000000000000008152600401610f6b90612306565b60405180910390fd5b6202a300811015610fba576040517f08c379a0000000000000000000000000000000000000000000000000000000008152600401610fb1906122a6565b60405180910390fd5b62278d00811115611000576040517f08c379a0000000000000000000000000000000000000000000000000000000008152600401610ff7906122c6565b60405180910390fd5b80600181905550807f63e09f16584208fba1fc7ff64c62b00f07bec177c0d97ca6689891b1e77a35c760405160405180910390a250565b60005b82518110156111315761109561108f848381518110611082577f4e487b7100000000000000000000000000000000000000000000000000000000600052603260045260246000fd5b60200260200101516111de565b33611136565b6110d4576040517f08c379a00000000000000000000000000000000000000000000000000000000081526004016110cb90612226565b60405180910390fd5b61111e838281518110611110577f4e487b7100000000000000000000000000000000000000000000000000000000600052603260045260246000fd5b60200260200101518361152a565b8080611129906126a4565b91505061103a565b505050565b6000806000847bffffffffffffffffffffffffffffffffffffffffffffffffffffffff19167bffffffffffffffffffffffffffffffffffffffffffffffffffffffff1916815260200190815260200160002060000160008373ffffffffffffffffffffffffffffffffffffffff1673ffffffffffffffffffffffffffffffffffffffff16815260200190815260200160002060009054906101000a900460ff16905092915050565b6000806000837bffffffffffffffffffffffffffffffffffffffffffffffffffffffff19167bffffffffffffffffffffffffffffffffffffffffffffffffffffffff1916815260200190815260200160002060010160009054906101000a900460e01b9050919050565b6112528282611136565b1561137b576000806000847bffffffffffffffffffffffffffffffffffffffffffffffffffffffff19167bffffffffffffffffffffffffffffffffffffffffffffffffffffffff1916815260200190815260200160002060000160008373ffffffffffffffffffffffffffffffffffffffff1673ffffffffffffffffffffffffffffffffffffffff16815260200190815260200160002060006101000a81548160ff0219169083151502179055503373ffffffffffffffffffffffffffffffffffffffff168173ffffffffffffffffffffffffffffffffffffffff16837bffffffffffffffffffffffffffffffffffffffffffffffffffffffff19167f4ddc7b757e7bdd7254a9cd39452d307a52761bc824625c6a33104a075d8099e660405160405180910390a45b5050565b807bffffffffffffffffffffffffffffffffffffffffffffffffffffffff19166113a8836111de565b7bffffffffffffffffffffffffffffffffffffffffffffffffffffffff1916146114a85780600080847bffffffffffffffffffffffffffffffffffffffffffffffffffffffff19167bffffffffffffffffffffffffffffffffffffffffffffffffffffffff1916815260200190815260200160002060010160006101000a81548163ffffffff021916908360e01c0217905550807bffffffffffffffffffffffffffffffffffffffffffffffffffffffff1916827bffffffffffffffffffffffffffffffffffffffffffffffffffffffff19167fd348e2220a50b4500ec353f6e802d2f14dd1b5d6786148fd1bbcc570bf92d47360405160405180910390a35b5050565b600080823b905060008111915050919050565b6060604482511015611508576040518060400160405280601d81526020017f5472616e73616374696f6e2072657665727465642073696c656e746c790000008152509050611525565b600482019150818060200190518101906115229190611a8b565b90505b919050565b6115348282611136565b61165c576001600080847bffffffffffffffffffffffffffffffffffffffffffffffffffffffff19167bffffffffffffffffffffffffffffffffffffffffffffffffffffffff1916815260200190815260200160002060000160008373ffffffffffffffffffffffffffffffffffffffff1673ffffffffffffffffffffffffffffffffffffffff16815260200190815260200160002060006101000a81548160ff0219169083151502179055503373ffffffffffffffffffffffffffffffffffffffff168173ffffffffffffffffffffffffffffffffffffffff16837bffffffffffffffffffffffffffffffffffffffffffffffffffffffff19167fe6231789d19137da31d0550f4ba9ee379020a8cfb64cb79bf1790c996d2e616560405160405180910390a45b5050565b600061167361166e84612409565b6123d8565b9050808382526020820190508285602086028201111561169257600080fd5b60005b858110156116c257816116a888826117f2565b845260208401935060208301925050600181019050611695565b5050509392505050565b60006116df6116da84612435565b6123d8565b9050828152602081018484840111156116f757600080fd5b611702848285612671565b509392505050565b6000813590506117198161275c565b92915050565b60008083601f84011261173157600080fd5b8235905067ffffffffffffffff81111561174a57600080fd5b60208301915083602082028301111561176257600080fd5b9250929050565b600082601f83011261177a57600080fd5b813561178a848260208601611660565b91505092915050565b60008083601f8401126117a557600080fd5b8235905067ffffffffffffffff8111156117be57600080fd5b6020830191508360208202830111156117d657600080fd5b9250929050565b6000813590506117ec81612773565b92915050565b6000813590506118018161278a565b92915050565b600082601f83011261181857600080fd5b81516118288482602086016116cc565b91505092915050565b600081359050611840816127a1565b92915050565b60006020828403121561185857600080fd5b60006118668482850161170a565b91505092915050565b6000806000806040858703121561188557600080fd5b600085013567ffffffffffffffff81111561189f57600080fd5b6118ab8782880161171f565b9450945050602085013567ffffffffffffffff8111156118ca57600080fd5b6118d687828801611793565b925092505092959194509250565b6000806000806000606086880312156118fc57600080fd5b600086013567ffffffffffffffff81111561191657600080fd5b6119228882890161171f565b9550955050602086013567ffffffffffffffff81111561194157600080fd5b61194d88828901611793565b9350935050604061196088828901611831565b9150509295509295909350565b6000806040838503121561198057600080fd5b600083013567ffffffffffffffff81111561199a57600080fd5b6119a685828601611769565b92505060206119b78582860161170a565b9150509250929050565b6000602082840312156119d357600080fd5b60006119e1848285016117dd565b91505092915050565b6000602082840312156119fc57600080fd5b6000611a0a848285016117f2565b91505092915050565b60008060408385031215611a2657600080fd5b6000611a34858286016117f2565b9250506020611a458582860161170a565b9150509250929050565b60008060408385031215611a6257600080fd5b6000611a70858286016117f2565b9250506020611a81858286016117f2565b9150509250929050565b600060208284031215611a9d57600080fd5b600082015167ffffffffffffffff811115611ab757600080fd5b611ac384828501611807565b91505092915050565b600060208284031215611ade57600080fd5b6000611aec84828501611831565b91505092915050565b6000611b018383611b37565b60208301905092915050565b6000611b1a848484611cbb565b90509392505050565b6000611b2f8383611d0d565b905092915050565b611b40816125e4565b82525050565b6000611b5283856124d1565b9350611b5d82612465565b8060005b85811015611b9657611b738284612520565b611b7d8882611af5565b9750611b88836124aa565b925050600181019050611b61565b5085925050509392505050565b6000611baf83856124e2565b935083602084028501611bc18461246f565b8060005b87811015611c07578484038952611bdc8284612537565b611be7868284611b0d565b9550611bf2846124b7565b935060208b019a505050600181019050611bc5565b50829750879450505050509392505050565b6000611c2482612489565b611c2e81856124e2565b935083602082028501611c4085612479565b8060005b85811015611c7c5784840389528151611c5d8582611b23565b9450611c68836124c4565b925060208a01995050600181019050611c44565b50829750879550505050505092915050565b611c97816125f6565b82525050565b611ca681612602565b82525050565b611cb58161260c565b82525050565b6000611cc783856124f3565b9350611cd4838584612662565b611cdd8361274b565b840190509392505050565b6000611cf48385612504565b9350611d01838584612662565b82840190509392505050565b6000611d1882612494565b611d2281856124f3565b9350611d32818560208601612671565b611d3b8161274b565b840191505092915050565b6000611d518261249f565b611d5b818561250f565b9350611d6b818560208601612671565b611d748161274b565b840191505092915050565b6000611d8c60168361250f565b91507f43616c6c20746f2061206e6f6e2d636f6e7472616374000000000000000000006000830152602082019050919050565b6000611dcc60228361250f565b91507f5472616e73616374696f6e206861736e2774206265656e207363686564756c6560008301527f642e0000000000000000000000000000000000000000000000000000000000006020830152604082019050919050565b6000611e32600a8361250f565b91507f4f6e6c792061646d696e000000000000000000000000000000000000000000006000830152602082019050919050565b6000611e72601e8361250f565b91507f5472616e73616374696f6e20616c7265616479207363686564756c65642e00006000830152602082019050919050565b6000611eb260118361250f565b91507f4d69736d61746368656420696e707574730000000000000000000000000000006000830152602082019050919050565b6000611ef260108361250f565b91507f455441206e6f7420726561636865642e000000000000000000000000000000006000830152602082019050919050565b6000611f32601a8361250f565b91507f4d75737420657863656564206d696e696d756d2064656c61792e0000000000006000830152602082019050919050565b6000611f72601e8361250f565b91507f4d757374206e6f7420657863656564206d6178696d756d2064656c61792e00006000830152602082019050919050565b6000611fb260168361250f565b91507f52656e6f756e6365206f6e6c7920666f722073656c66000000000000000000006000830152602082019050919050565b6000611ff2600d8361250f565b91507f4163636573732064656e696564000000000000000000000000000000000000006000830152602082019050919050565b600061203260138361250f565b91507f4d75737420736174697366792064656c61792e000000000000000000000000006000830152602082019050919050565b600061207260158361250f565b91507f5472616e73616374696f6e206973207374616c652e00000000000000000000006000830152602082019050919050565b6120ae81612658565b82525050565b60006120c1828486611ce8565b91508190509392505050565b600060408201905081810360008301526120e8818688611b46565b905081810360208301526120fd818486611ba3565b905095945050505050565b60006060820190508181036000830152612123818789611b46565b90508181036020830152612138818587611ba3565b905061214760408301846120a5565b9695505050505050565b6000602082019050818103600083015261216b8184611c19565b905092915050565b60006020820190506121886000830184611c8e565b92915050565b60006020820190506121a36000830184611c9d565b92915050565b60006020820190506121be6000830184611cac565b92915050565b600060208201905081810360008301526121de8184611d46565b905092915050565b600060208201905081810360008301526121ff81611d7f565b9050919050565b6000602082019050818103600083015261221f81611dbf565b9050919050565b6000602082019050818103600083015261223f81611e25565b9050919050565b6000602082019050818103600083015261225f81611e65565b9050919050565b6000602082019050818103600083015261227f81611ea5565b9050919050565b6000602082019050818103600083015261229f81611ee5565b9050919050565b600060208201905081810360008301526122bf81611f25565b9050919050565b600060208201905081810360008301526122df81611f65565b9050919050565b600060208201905081810360008301526122ff81611fa5565b9050919050565b6000602082019050818103600083015261231f81611fe5565b9050919050565b6000602082019050818103600083015261233f81612025565b9050919050565b6000602082019050818103600083015261235f81612065565b9050919050565b600060208201905061237b60008301846120a5565b92915050565b6000808335600160200384360303811261239a57600080fd5b80840192508235915067ffffffffffffffff8211156123b857600080fd5b6020830192506001820236038313156123d057600080fd5b509250929050565b6000604051905081810181811067ffffffffffffffff821117156123ff576123fe61271c565b5b8060405250919050565b600067ffffffffffffffff8211156124245761242361271c565b5b602082029050602081019050919050565b600067ffffffffffffffff8211156124505761244f61271c565b5b601f19601f8301169050602081019050919050565b6000819050919050565b6000819050919050565b6000819050602082019050919050565b600081519050919050565b600081519050919050565b600081519050919050565b6000602082019050919050565b6000602082019050919050565b6000602082019050919050565b600082825260208201905092915050565b600082825260208201905092915050565b600082825260208201905092915050565b600081905092915050565b600082825260208201905092915050565b600061252f602084018461170a565b905092915050565b6000808335600160200384360303811261255057600080fd5b83810192508235915060208301925067ffffffffffffffff82111561257457600080fd5b60018202360384131561258657600080fd5b509250929050565b600061259982612658565b91506125a483612658565b9250827fffffffffffffffffffffffffffffffffffffffffffffffffffffffffffffffff038211156125d9576125d86126ed565b5b828201905092915050565b60006125ef82612638565b9050919050565b60008115159050919050565b6000819050919050565b60007fffffffff0000000000000000000000000000000000000000000000000000000082169050919050565b600073ffffffffffffffffffffffffffffffffffffffff82169050919050565b6000819050919050565b82818337600083830152505050565b60005b8381101561268f578082015181840152602081019050612674565b8381111561269e576000848401525b50505050565b60006126af82612658565b91507fffffffffffffffffffffffffffffffffffffffffffffffffffffffffffffffff8214156126e2576126e16126ed565b5b600182019050919050565b7f4e487b7100000000000000000000000000000000000000000000000000000000600052601160045260246000fd5b7f4e487b7100000000000000000000000000000000000000000000000000000000600052604160045260246000fd5b6000601f19601f8301169050919050565b612765816125e4565b811461277057600080fd5b50565b61277c81612602565b811461278757600080fd5b50565b6127938161260c565b811461279e57600080fd5b50565b6127aa81612658565b81146127b557600080fd5b5056fea2646970667358221220b7ab7159b1fe1b620fd4b91d4bf255530117f82cc185e92b4ada00f43d903d0564736f6c63430008000033",
  "immutableReferences": {},
  "source": "// SPDX-License-Identifier: MIT\n// Inspired on TimeLock.sol from Compound.\n\npragma solidity ^0.8.0;\nimport \"../access/AccessControl.sol\";\nimport \"./RevertMsgExtractor.sol\";\nimport \"./IsContract.sol\";\n\ninterface ITimeLock {\n    function setDelay(uint256 delay_) external;\n    function schedule(address[] calldata targets, bytes[] calldata data, uint256 eta) external returns (bytes32 txHash);\n    function cancel(bytes32 txHash) external;\n    function execute(address[] calldata targets, bytes[] calldata data) external returns (bytes[] calldata results);\n}\n\ncontract TimeLock is ITimeLock, AccessControl {\n    using IsContract for address;\n\n    uint256 public constant GRACE_PERIOD = 14 days;\n    uint256 public constant MINIMUM_DELAY = 2 days;\n    uint256 public constant MAXIMUM_DELAY = 30 days;\n\n    event DelaySet(uint256 indexed delay);\n    event Cancelled(bytes32 indexed txHash);\n    event Executed(bytes32 indexed txHash, address[] targets, bytes[] data);\n    event Scheduled(bytes32 indexed txHash, address[] targets, bytes[] data, uint256 eta);\n\n    uint256 public delay;\n    mapping (bytes32 => uint256) public transactions;\n\n    constructor(address scheduler, address executor) AccessControl() {\n        delay = MINIMUM_DELAY;\n\n        // scheduler can schedule and cancel, executor can execute\n        _grantRole(ITimeLock.schedule.selector, scheduler); // bytes4(keccak256(\"schedule(address[],bytes[],uint256)\"))\n        _grantRole(ITimeLock.cancel.selector, scheduler); // bytes4(keccak256(\"cancel(address[],bytes[],uint256)\"))\n        _grantRole(ITimeLock.execute.selector, executor); // bytes4(keccak256(\"execute(address[],bytes[],uint256)\"))\n\n        // Changing the delay must now be executed through this TimeLock contract\n        _grantRole(ITimeLock.setDelay.selector, address(this)); // bytes4(keccak256(\"setDelay(uint256)\"))\n\n        // Granting roles (schedule, cancel, execute, setDelay) must now be executed through this TimeLock contract\n        _grantRole(ROOT, address(this));\n        _revokeRole(ROOT, msg.sender);\n    }\n\n    /// @dev Change the delay for queueing and executing transactions\n    function setDelay(uint256 delay_) external override auth {\n        require(delay_ >= MINIMUM_DELAY, \"Must exceed minimum delay.\");\n        require(delay_ <= MAXIMUM_DELAY, \"Must not exceed maximum delay.\");\n        delay = delay_;\n\n        emit DelaySet(delay_);\n    }\n\n    /// @dev Schedule a transaction batch for execution between `eta` and `eta + GRACE_PERIOD`\n    function schedule(address[] calldata targets, bytes[] calldata data, uint256 eta)\n        external override auth returns (bytes32 txHash)\n    {\n        require(targets.length == data.length, \"Mismatched inputs\");\n        require(eta >= block.timestamp + delay, \"Must satisfy delay.\"); // This also prevents setting eta = 0 and messing up the state\n        txHash = keccak256(abi.encode(targets, data));\n        require(transactions[txHash] == 0, \"Transaction already scheduled.\");\n        transactions[txHash] = eta;\n        emit Scheduled(txHash, targets, data, eta);\n    }\n\n    /// @dev Cancel a scheduled transaction batch\n    function cancel(bytes32 txHash)\n        external override auth\n    {\n        require(transactions[txHash] != 0, \"Transaction hasn't been scheduled.\");\n        delete transactions[txHash];\n        emit Cancelled(txHash);\n    }\n\n    /// @dev Execute a transaction batch\n    function execute(address[] calldata targets, bytes[] calldata data)\n        external override auth returns (bytes[] memory results)\n    {\n        bytes32 txHash = keccak256(abi.encode(targets, data));\n        uint256 eta = transactions[txHash];\n\n        require(eta != 0, \"Transaction hasn't been scheduled.\");\n        require(block.timestamp >= eta, \"ETA not reached.\");\n        require(block.timestamp <= eta + GRACE_PERIOD, \"Transaction is stale.\");\n\n        delete transactions[txHash];\n\n        results = new bytes[](targets.length);\n        for (uint256 i = 0; i < targets.length; i++){\n            require(targets[i].isContract(), \"Call to a non-contract\");\n            (bool success, bytes memory result) = targets[i].call(data[i]);\n            if (!success) revert(RevertMsgExtractor.getRevertMsg(result));\n            results[i] = result;\n        }\n        emit Executed(txHash, targets, data);\n    }\n}",
  "sourcePath": "/home/vladimirdjukic/Documents/staked/tokens/contracts/yields-utils-v2/utils/TimeLock.sol",
  "compiler": {
    "name": "solc",
    "version": "0.8.0+commit.c7dfd78e.Emscripten.clang"
  },
  "schemaVersion": "3.4.3",
  "updatedAt": "2021-08-29T11:51:09.092Z",
  "devdoc": {
    "kind": "dev",
    "methods": {
      "cancel(bytes32)": {
        "details": "Cancel a scheduled transaction batch"
      },
      "execute(address[],bytes[])": {
        "details": "Execute a transaction batch"
      },
      "getRoleAdmin(bytes4)": {
        "details": "Returns the admin role that controls `role`. See {grantRole} and {revokeRole}. To change a role's admin, use {_setRoleAdmin}."
      },
      "grantRole(bytes4,address)": {
        "details": "Grants `role` to `account`. If `account` had not been already granted `role`, emits a {RoleGranted} event. Requirements: - the caller must have ``role``'s admin role."
      },
      "grantRoles(bytes4[],address)": {
        "details": "Grants all of `role` in `roles` to `account`. If `account` had not been already granted `role`, emits a {RoleGranted} event. Requirements: - For each `role` in `roles`, the caller must have ``role``'s admin role."
      },
      "hasRole(bytes4,address)": {
        "details": "Returns `true` if `account` has been granted `role`."
      },
      "lockRole(bytes4)": {
        "details": "Sets LOCK as ``role``'s admin role. LOCK has no members, so this disables admin management of ``role``. Emits a {RoleAdminChanged} event. Requirements: - the caller must have ``role``'s admin role."
      },
      "renounceRole(bytes4,address)": {
        "details": "Revokes `role` from the calling account. Roles are often managed via {grantRole} and {revokeRole}: this function's purpose is to provide a mechanism for accounts to lose their privileges if they are compromised (such as when a trusted device is misplaced). If the calling account had been granted `role`, emits a {RoleRevoked} event. Requirements: - the caller must be `account`."
      },
      "revokeRole(bytes4,address)": {
        "details": "Revokes `role` from `account`. If `account` had been granted `role`, emits a {RoleRevoked} event. Requirements: - the caller must have ``role``'s admin role."
      },
      "revokeRoles(bytes4[],address)": {
        "details": "Revokes all of `role` in `roles` from `account`. If `account` had been granted `role`, emits a {RoleRevoked} event. Requirements: - For each `role` in `roles`, the caller must have ``role``'s admin role."
      },
      "schedule(address[],bytes[],uint256)": {
        "details": "Schedule a transaction batch for execution between `eta` and `eta + GRACE_PERIOD`"
      },
      "setDelay(uint256)": {
        "details": "Change the delay for queueing and executing transactions"
      },
      "setRoleAdmin(bytes4,bytes4)": {
        "details": "Sets `adminRole` as ``role``'s admin role. If ``role``'s admin role is not `adminRole` emits a {RoleAdminChanged} event. Requirements: - the caller must have ``role``'s admin role."
      }
    },
    "version": 1
  },
  "userdoc": {
    "kind": "user",
    "methods": {},
    "version": 1
  }
}