{
  "contractName": "Token",
  "abi": [
    {
      "inputs": [
        {
          "internalType": "address",
          "name": "rewardsToken",
          "type": "address"
        }
      ],
      "stateMutability": "nonpayable",
      "type": "constructor"
    },
    {
      "anonymous": false,
      "inputs": [
        {
          "indexed": true,
          "internalType": "address",
          "name": "owner",
          "type": "address"
        },
        {
          "indexed": true,
          "internalType": "address",
          "name": "spender",
          "type": "address"
        },
        {
          "indexed": false,
          "internalType": "uint256",
          "name": "value",
          "type": "uint256"
        }
      ],
      "name": "Approval",
      "type": "event"
    },
    {
      "anonymous": false,
      "inputs": [
        {
          "indexed": false,
          "internalType": "address",
          "name": "receiver",
          "type": "address"
        },
        {
          "indexed": false,
          "internalType": "uint256",
          "name": "claimed",
          "type": "uint256"
        }
      ],
      "name": "Claimed",
      "type": "event"
    },
    {
      "anonymous": false,
      "inputs": [
        {
          "indexed": false,
          "internalType": "uint256",
          "name": "accumulated",
          "type": "uint256"
        }
      ],
      "name": "RewardsPerTokenUpdated",
      "type": "event"
    },
    {
      "anonymous": false,
      "inputs": [
        {
          "indexed": false,
          "internalType": "uint32",
          "name": "start",
          "type": "uint32"
        },
        {
          "indexed": false,
          "internalType": "uint32",
          "name": "end",
          "type": "uint32"
        },
        {
          "indexed": false,
          "internalType": "uint256",
          "name": "rate",
          "type": "uint256"
        }
      ],
      "name": "RewardsSet",
      "type": "event"
    },
    {
      "anonymous": false,
      "inputs": [
        {
          "indexed": true,
          "internalType": "bytes4",
          "name": "role",
          "type": "bytes4"
        },
        {
          "indexed": true,
          "internalType": "bytes4",
          "name": "newAdminRole",
          "type": "bytes4"
        }
      ],
      "name": "RoleAdminChanged",
      "type": "event"
    },
    {
      "anonymous": false,
      "inputs": [
        {
          "indexed": true,
          "internalType": "bytes4",
          "name": "role",
          "type": "bytes4"
        },
        {
          "indexed": true,
          "internalType": "address",
          "name": "account",
          "type": "address"
        },
        {
          "indexed": true,
          "internalType": "address",
          "name": "sender",
          "type": "address"
        }
      ],
      "name": "RoleGranted",
      "type": "event"
    },
    {
      "anonymous": false,
      "inputs": [
        {
          "indexed": true,
          "internalType": "bytes4",
          "name": "role",
          "type": "bytes4"
        },
        {
          "indexed": true,
          "internalType": "address",
          "name": "account",
          "type": "address"
        },
        {
          "indexed": true,
          "internalType": "address",
          "name": "sender",
          "type": "address"
        }
      ],
      "name": "RoleRevoked",
      "type": "event"
    },
    {
      "anonymous": false,
      "inputs": [
        {
          "indexed": true,
          "internalType": "address",
          "name": "from",
          "type": "address"
        },
        {
          "indexed": true,
          "internalType": "address",
          "name": "to",
          "type": "address"
        },
        {
          "indexed": false,
          "internalType": "uint256",
          "name": "value",
          "type": "uint256"
        }
      ],
      "name": "Transfer",
      "type": "event"
    },
    {
      "anonymous": false,
      "inputs": [
        {
          "indexed": false,
          "internalType": "address",
          "name": "user",
          "type": "address"
        },
        {
          "indexed": false,
          "internalType": "uint256",
          "name": "userRewards",
          "type": "uint256"
        },
        {
          "indexed": false,
          "internalType": "uint256",
          "name": "paidRewardPerToken",
          "type": "uint256"
        }
      ],
      "name": "UserRewardsUpdated",
      "type": "event"
    },
    {
      "inputs": [],
      "name": "DOMAIN_SEPARATOR",
      "outputs": [
        {
          "internalType": "bytes32",
          "name": "",
          "type": "bytes32"
        }
      ],
      "stateMutability": "view",
      "type": "function",
      "constant": true
    },
    {
      "inputs": [],
      "name": "LOCK",
      "outputs": [
        {
          "internalType": "bytes4",
          "name": "",
          "type": "bytes4"
        }
      ],
      "stateMutability": "view",
      "type": "function",
      "constant": true
    },
    {
      "inputs": [],
      "name": "PERMIT_TYPEHASH",
      "outputs": [
        {
          "internalType": "bytes32",
          "name": "",
          "type": "bytes32"
        }
      ],
      "stateMutability": "view",
      "type": "function",
      "constant": true
    },
    {
      "inputs": [],
      "name": "ROOT",
      "outputs": [
        {
          "internalType": "bytes4",
          "name": "",
          "type": "bytes4"
        }
      ],
      "stateMutability": "view",
      "type": "function",
      "constant": true
    },
    {
      "inputs": [
        {
          "internalType": "address",
          "name": "owner",
          "type": "address"
        },
        {
          "internalType": "address",
          "name": "spender",
          "type": "address"
        }
      ],
      "name": "allowance",
      "outputs": [
        {
          "internalType": "uint256",
          "name": "",
          "type": "uint256"
        }
      ],
      "stateMutability": "view",
      "type": "function",
      "constant": true
    },
    {
      "inputs": [
        {
          "internalType": "address",
          "name": "spender",
          "type": "address"
        },
        {
          "internalType": "uint256",
          "name": "wad",
          "type": "uint256"
        }
      ],
      "name": "approve",
      "outputs": [
        {
          "internalType": "bool",
          "name": "",
          "type": "bool"
        }
      ],
      "stateMutability": "nonpayable",
      "type": "function"
    },
    {
      "inputs": [
        {
          "internalType": "address",
          "name": "guy",
          "type": "address"
        }
      ],
      "name": "balanceOf",
      "outputs": [
        {
          "internalType": "uint256",
          "name": "",
          "type": "uint256"
        }
      ],
      "stateMutability": "view",
      "type": "function",
      "constant": true
    },
    {
      "inputs": [
        {
          "internalType": "address",
          "name": "to",
          "type": "address"
        }
      ],
      "name": "claim",
      "outputs": [
        {
          "internalType": "uint256",
          "name": "claiming",
          "type": "uint256"
        }
      ],
      "stateMutability": "nonpayable",
      "type": "function"
    },
    {
      "inputs": [],
      "name": "decimals",
      "outputs": [
        {
          "internalType": "uint8",
          "name": "",
          "type": "uint8"
        }
      ],
      "stateMutability": "view",
      "type": "function",
      "constant": true
    },
    {
      "inputs": [],
      "name": "deploymentChainId",
      "outputs": [
        {
          "internalType": "uint256",
          "name": "",
          "type": "uint256"
        }
      ],
      "stateMutability": "view",
      "type": "function",
      "constant": true
    },
    {
      "inputs": [
        {
          "internalType": "bytes4",
          "name": "role",
          "type": "bytes4"
        }
      ],
      "name": "getRoleAdmin",
      "outputs": [
        {
          "internalType": "bytes4",
          "name": "",
          "type": "bytes4"
        }
      ],
      "stateMutability": "view",
      "type": "function",
      "constant": true
    },
    {
      "inputs": [
        {
          "internalType": "bytes4",
          "name": "role",
          "type": "bytes4"
        },
        {
          "internalType": "address",
          "name": "account",
          "type": "address"
        }
      ],
      "name": "grantRole",
      "outputs": [],
      "stateMutability": "nonpayable",
      "type": "function"
    },
    {
      "inputs": [
        {
          "internalType": "bytes4[]",
          "name": "roles",
          "type": "bytes4[]"
        },
        {
          "internalType": "address",
          "name": "account",
          "type": "address"
        }
      ],
      "name": "grantRoles",
      "outputs": [],
      "stateMutability": "nonpayable",
      "type": "function"
    },
    {
      "inputs": [
        {
          "internalType": "bytes4",
          "name": "role",
          "type": "bytes4"
        },
        {
          "internalType": "address",
          "name": "account",
          "type": "address"
        }
      ],
      "name": "hasRole",
      "outputs": [
        {
          "internalType": "bool",
          "name": "",
          "type": "bool"
        }
      ],
      "stateMutability": "view",
      "type": "function",
      "constant": true
    },
    {
      "inputs": [
        {
          "internalType": "bytes4",
          "name": "role",
          "type": "bytes4"
        }
      ],
      "name": "lockRole",
      "outputs": [],
      "stateMutability": "nonpayable",
      "type": "function"
    },
    {
      "inputs": [],
      "name": "name",
      "outputs": [
        {
          "internalType": "string",
          "name": "",
          "type": "string"
        }
      ],
      "stateMutability": "view",
      "type": "function",
      "constant": true
    },
    {
      "inputs": [
        {
          "internalType": "address",
          "name": "",
          "type": "address"
        }
      ],
      "name": "nonces",
      "outputs": [
        {
          "internalType": "uint256",
          "name": "",
          "type": "uint256"
        }
      ],
      "stateMutability": "view",
      "type": "function",
      "constant": true
    },
    {
      "inputs": [
        {
          "internalType": "address",
          "name": "owner",
          "type": "address"
        },
        {
          "internalType": "address",
          "name": "spender",
          "type": "address"
        },
        {
          "internalType": "uint256",
          "name": "amount",
          "type": "uint256"
        },
        {
          "internalType": "uint256",
          "name": "deadline",
          "type": "uint256"
        },
        {
          "internalType": "uint8",
          "name": "v",
          "type": "uint8"
        },
        {
          "internalType": "bytes32",
          "name": "r",
          "type": "bytes32"
        },
        {
          "internalType": "bytes32",
          "name": "s",
          "type": "bytes32"
        }
      ],
      "name": "permit",
      "outputs": [],
      "stateMutability": "nonpayable",
      "type": "function"
    },
    {
      "inputs": [
        {
          "internalType": "bytes4",
          "name": "role",
          "type": "bytes4"
        },
        {
          "internalType": "address",
          "name": "account",
          "type": "address"
        }
      ],
      "name": "renounceRole",
      "outputs": [],
      "stateMutability": "nonpayable",
      "type": "function"
    },
    {
      "inputs": [
        {
          "internalType": "bytes4",
          "name": "role",
          "type": "bytes4"
        },
        {
          "internalType": "address",
          "name": "account",
          "type": "address"
        }
      ],
      "name": "revokeRole",
      "outputs": [],
      "stateMutability": "nonpayable",
      "type": "function"
    },
    {
      "inputs": [
        {
          "internalType": "bytes4[]",
          "name": "roles",
          "type": "bytes4[]"
        },
        {
          "internalType": "address",
          "name": "account",
          "type": "address"
        }
      ],
      "name": "revokeRoles",
      "outputs": [],
      "stateMutability": "nonpayable",
      "type": "function"
    },
    {
      "inputs": [
        {
          "internalType": "address",
          "name": "",
          "type": "address"
        }
      ],
      "name": "rewards",
      "outputs": [
        {
          "internalType": "uint128",
          "name": "accumulated",
          "type": "uint128"
        },
        {
          "internalType": "uint128",
          "name": "checkpoint",
          "type": "uint128"
        }
      ],
      "stateMutability": "view",
      "type": "function",
      "constant": true
    },
    {
      "inputs": [],
      "name": "rewardsPerToken",
      "outputs": [
        {
          "internalType": "uint128",
          "name": "accumulated",
          "type": "uint128"
        },
        {
          "internalType": "uint32",
          "name": "lastUpdated",
          "type": "uint32"
        },
        {
          "internalType": "uint96",
          "name": "rate",
          "type": "uint96"
        }
      ],
      "stateMutability": "view",
      "type": "function",
      "constant": true
    },
    {
      "inputs": [],
      "name": "rewardsPeriod",
      "outputs": [
        {
          "internalType": "uint32",
          "name": "start",
          "type": "uint32"
        },
        {
          "internalType": "uint32",
          "name": "end",
          "type": "uint32"
        }
      ],
      "stateMutability": "view",
      "type": "function",
      "constant": true
    },
    {
      "inputs": [],
      "name": "rewardsToken",
      "outputs": [
        {
          "internalType": "contract IERC20",
          "name": "",
          "type": "address"
        }
      ],
      "stateMutability": "view",
      "type": "function",
      "constant": true
    },
    {
      "inputs": [
        {
          "internalType": "uint32",
          "name": "start",
          "type": "uint32"
        },
        {
          "internalType": "uint32",
          "name": "end",
          "type": "uint32"
        },
        {
          "internalType": "uint96",
          "name": "rate",
          "type": "uint96"
        }
      ],
      "name": "setRewards",
      "outputs": [],
      "stateMutability": "nonpayable",
      "type": "function"
    },
    {
      "inputs": [
        {
          "internalType": "bytes4",
          "name": "role",
          "type": "bytes4"
        },
        {
          "internalType": "bytes4",
          "name": "adminRole",
          "type": "bytes4"
        }
      ],
      "name": "setRoleAdmin",
      "outputs": [],
      "stateMutability": "nonpayable",
      "type": "function"
    },
    {
      "inputs": [],
      "name": "symbol",
      "outputs": [
        {
          "internalType": "string",
          "name": "",
          "type": "string"
        }
      ],
      "stateMutability": "view",
      "type": "function",
      "constant": true
    },
    {
      "inputs": [],
      "name": "totalSupply",
      "outputs": [
        {
          "internalType": "uint256",
          "name": "",
          "type": "uint256"
        }
      ],
      "stateMutability": "view",
      "type": "function",
      "constant": true
    },
    {
      "inputs": [
        {
          "internalType": "address",
          "name": "dst",
          "type": "address"
        },
        {
          "internalType": "uint256",
          "name": "wad",
          "type": "uint256"
        }
      ],
      "name": "transfer",
      "outputs": [
        {
          "internalType": "bool",
          "name": "",
          "type": "bool"
        }
      ],
      "stateMutability": "nonpayable",
      "type": "function"
    },
    {
      "inputs": [
        {
          "internalType": "address",
          "name": "src",
          "type": "address"
        },
        {
          "internalType": "address",
          "name": "dst",
          "type": "address"
        },
        {
          "internalType": "uint256",
          "name": "wad",
          "type": "uint256"
        }
      ],
      "name": "transferFrom",
      "outputs": [
        {
          "internalType": "bool",
          "name": "",
          "type": "bool"
        }
      ],
      "stateMutability": "nonpayable",
      "type": "function"
    },
    {
      "inputs": [],
      "name": "version",
      "outputs": [
        {
          "internalType": "string",
          "name": "",
          "type": "string"
        }
      ],
      "stateMutability": "pure",
      "type": "function",
      "constant": true
    }
  ],
  "bytecode": "0x6101006040526040518060400160405280600381526020017f3f3f3f0000000000000000000000000000000000000000000000000000000000815250600490805190602001906200005292919062001061565b506040518060400160405280600381526020017f3f3f3f000000000000000000000000000000000000000000000000000000000081525060059080519060200190620000a092919062001061565b506012600660006101000a81548160ff021916908360ff1602179055507f6e71edae12b1b97f4d1f60370fef10105fa2faae0126114a169c64845d6126c9608090815250348015620000f157600080fd5b506040516200539338038062005393833981810160405281019062000117919062001128565b6040518060400160405280601081526020017f4f75722052657761726420546f6b656e000000000000000000000000000000008152506040518060400160405280600381526020017f5257540000000000000000000000000000000000000000000000000000000000815250601283838383828282620001a2600060e01b336200029260201b60201c565b620001c263ffffffff60e01b63ffffffff60e01b620003d160201b60201c565b8260049080519060200190620001da92919062001061565b508160059080519060200190620001f392919062001061565b5080600660006101000a81548160ff021916908360ff16021790555050505060004690508060c0818152505062000230816200050760201b60201c565b60a08181525050505050508073ffffffffffffffffffffffffffffffffffffffff1660e08173ffffffffffffffffffffffffffffffffffffffff1660601b81525050505050506200028a336103e86200058f60201b60201c565b505062001676565b620002a48282620005d260201b60201c565b620003cd576001600080847bffffffffffffffffffffffffffffffffffffffffffffffffffffffff19167bffffffffffffffffffffffffffffffffffffffffffffffffffffffff1916815260200190815260200160002060000160008373ffffffffffffffffffffffffffffffffffffffff1673ffffffffffffffffffffffffffffffffffffffff16815260200190815260200160002060006101000a81548160ff0219169083151502179055503373ffffffffffffffffffffffffffffffffffffffff168173ffffffffffffffffffffffffffffffffffffffff16837bffffffffffffffffffffffffffffffffffffffffffffffffffffffff19167fe6231789d19137da31d0550f4ba9ee379020a8cfb64cb79bf1790c996d2e616560405160405180910390a45b5050565b807bffffffffffffffffffffffffffffffffffffffffffffffffffffffff191662000402836200067a60201b60201c565b7bffffffffffffffffffffffffffffffffffffffffffffffffffffffff191614620005035780600080847bffffffffffffffffffffffffffffffffffffffffffffffffffffffff19167bffffffffffffffffffffffffffffffffffffffffffffffffffffffff1916815260200190815260200160002060010160006101000a81548163ffffffff021916908360e01c0217905550807bffffffffffffffffffffffffffffffffffffffffffffffffffffffff1916827bffffffffffffffffffffffffffffffffffffffffffffffffffffffff19167fd348e2220a50b4500ec353f6e802d2f14dd1b5d6786148fd1bbcc570bf92d47360405160405180910390a35b5050565b60007f8b73c3c69bb8fe3d512ecc4cf759cc79239f7b179b0ffacaa9a75d522b39400f60046040516200053b919062001265565b604051809103902062000553620006e460201b60201c565b80519060200120843060405160200162000572959493929190620012bb565b604051602081830303815290604052805190602001209050919050565b6000620005a16200072160201b60201c565b620005b28362000a8e60201b60201c565b50620005ca838362000e6860201b620014e41760201c565b905092915050565b6000806000847bffffffffffffffffffffffffffffffffffffffffffffffffffffffff19167bffffffffffffffffffffffffffffffffffffffffffffffffffffffff1916815260200190815260200160002060000160008373ffffffffffffffffffffffffffffffffffffffff1673ffffffffffffffffffffffffffffffffffffffff16815260200190815260200160002060009054906101000a900460ff16905092915050565b6000806000837bffffffffffffffffffffffffffffffffffffffffffffffffffffffff19167bffffffffffffffffffffffffffffffffffffffffffffffffffffffff1916815260200190815260200160002060010160009054906101000a900460e01b9050919050565b60606040518060400160405280600181526020017f3100000000000000000000000000000000000000000000000000000000000000815250905090565b600060096040518060600160405290816000820160009054906101000a90046fffffffffffffffffffffffffffffffff166fffffffffffffffffffffffffffffffff166fffffffffffffffffffffffffffffffff1681526020016000820160109054906101000a900463ffffffff1663ffffffff1663ffffffff1681526020016000820160149054906101000a90046bffffffffffffffffffffffff166bffffffffffffffffffffffff166bffffffffffffffffffffffff16815250509050600060086040518060400160405290816000820160009054906101000a900463ffffffff1663ffffffff1663ffffffff1681526020016000820160049054906101000a900463ffffffff1663ffffffff1663ffffffff1681525050905060006001549050816000015163ffffffff16620008654262000f8260201b620015f81760201c565b63ffffffff1610156200087b5750505062000a8c565b6000620008a8620008974262000f8260201b620015f81760201c565b846020015162000fd860201b60201c565b90506000846020015182620008be9190620014d6565b63ffffffff1690506000811415620008db57505050505062000a8c565b600083146200098e576200095e8386604001516bffffffffffffffffffffffff1683670de0b6b3a76400006200091291906200143a565b6200091e91906200143a565b6200092a919062001402565b86600001516fffffffffffffffffffffffffffffffff166200094d9190620013a5565b62000fff60201b6200164b1760201c565b85600001906fffffffffffffffffffffffffffffffff1690816fffffffffffffffffffffffffffffffff16815250505b81856020019063ffffffff16908163ffffffff168152505084600960008201518160000160006101000a8154816fffffffffffffffffffffffffffffffff02191690836fffffffffffffffffffffffffffffffff16021790555060208201518160000160106101000a81548163ffffffff021916908363ffffffff16021790555060408201518160000160146101000a8154816bffffffffffffffffffffffff02191690836bffffffffffffffffffffffff1602179055509050507fe972555b20cae8150e291bb40efce3ef4e3ed6b6b2c39c029346600e95469d48856000015160405162000a7e91906200133a565b60405180910390a150505050505b565b600080600a60008473ffffffffffffffffffffffffffffffffffffffff1673ffffffffffffffffffffffffffffffffffffffff1681526020019081526020016000206040518060400160405290816000820160009054906101000a90046fffffffffffffffffffffffffffffffff166fffffffffffffffffffffffffffffffff166fffffffffffffffffffffffffffffffff1681526020016000820160109054906101000a90046fffffffffffffffffffffffffffffffff166fffffffffffffffffffffffffffffffff166fffffffffffffffffffffffffffffffff16815250509050600060096040518060600160405290816000820160009054906101000a90046fffffffffffffffffffffffffffffffff166fffffffffffffffffffffffffffffffff166fffffffffffffffffffffffffffffffff1681526020016000820160109054906101000a900463ffffffff1663ffffffff1663ffffffff1681526020016000820160149054906101000a90046bffffffffffffffffffffffff166bffffffffffffffffffffffff166bffffffffffffffffffffffff1681525050905062000cf1670de0b6b3a76400008360200151836000015162000c5391906200149b565b6fffffffffffffffffffffffffffffffff16600260008873ffffffffffffffffffffffffffffffffffffffff1673ffffffffffffffffffffffffffffffffffffffff1681526020019081526020016000205462000cb191906200143a565b62000cbd919062001402565b83600001516fffffffffffffffffffffffffffffffff1662000ce09190620013a5565b62000fff60201b6200164b1760201c565b82600001906fffffffffffffffffffffffffffffffff1690816fffffffffffffffffffffffffffffffff1681525050806000015182602001906fffffffffffffffffffffffffffffffff1690816fffffffffffffffffffffffffffffffff168152505081600a60008673ffffffffffffffffffffffffffffffffffffffff1673ffffffffffffffffffffffffffffffffffffffff16815260200190815260200160002060008201518160000160006101000a8154816fffffffffffffffffffffffffffffffff02191690836fffffffffffffffffffffffffffffffff16021790555060208201518160000160106101000a8154816fffffffffffffffffffffffffffffffff02191690836fffffffffffffffffffffffffffffffff1602179055509050507f5b9aaf4cc5141c090a75f8b8a627863eba92df81f0c83c096350da9b79aedd04848360000151846020015160405162000e52939291906200127e565b60405180910390a1816000015192505050919050565b600081600260008573ffffffffffffffffffffffffffffffffffffffff1673ffffffffffffffffffffffffffffffffffffffff1681526020019081526020016000205462000eb79190620013a5565b600260008573ffffffffffffffffffffffffffffffffffffffff1673ffffffffffffffffffffffffffffffffffffffff168152602001908152602001600020819055508160015462000f0a9190620013a5565b6001819055508273ffffffffffffffffffffffffffffffffffffffff16600073ffffffffffffffffffffffffffffffffffffffff167fddf252ad1be2c89b69c2b068fc378daa952ba7f163c4a11628f55a4df523b3ef8460405162000f70919062001357565b60405180910390a36001905092915050565b600063ffffffff801682111562000fd0576040517f08c379a000000000000000000000000000000000000000000000000000000000815260040162000fc79062001318565b60405180910390fd5b819050919050565b60008163ffffffff168363ffffffff161062000ff5578162000ff7565b825b905092915050565b60006fffffffffffffffffffffffffffffffff801682111562001059576040517f08c379a0000000000000000000000000000000000000000000000000000000008152600401620010509062001318565b60405180910390fd5b819050919050565b8280546200106f9062001599565b90600052602060002090601f016020900481019282620010935760008555620010df565b82601f10620010ae57805160ff1916838001178555620010df565b82800160010185558215620010df579182015b82811115620010de578251825591602001919060010190620010c1565b5b509050620010ee9190620010f2565b5090565b5b808211156200110d576000816000905550600101620010f3565b5090565b60008151905062001122816200165c565b92915050565b6000602082840312156200113b57600080fd5b60006200114b8482850162001111565b91505092915050565b6200115f8162001511565b82525050565b620011708162001525565b82525050565b60008154620011858162001599565b62001191818662001389565b94506001821660008114620011af5760018114620011c157620011f8565b60ff19831686528186019350620011f8565b620011cc8562001374565b60005b83811015620011f057815481890152600182019150602081019050620011cf565b838801955050505b50505092915050565b600062001210600d8362001394565b91507f43617374206f766572666c6f77000000000000000000000000000000000000006000830152602082019050919050565b6200124e8162001585565b82525050565b6200125f816200156b565b82525050565b600062001273828462001176565b915081905092915050565b600060608201905062001295600083018662001154565b620012a4602083018562001243565b620012b3604083018462001243565b949350505050565b600060a082019050620012d2600083018862001165565b620012e1602083018762001165565b620012f0604083018662001165565b620012ff606083018562001254565b6200130e608083018462001154565b9695505050505050565b60006020820190508181036000830152620013338162001201565b9050919050565b600060208201905062001351600083018462001243565b92915050565b60006020820190506200136e600083018462001254565b92915050565b60008190508160005260206000209050919050565b600081905092915050565b600082825260208201905092915050565b6000620013b2826200156b565b9150620013bf836200156b565b9250827fffffffffffffffffffffffffffffffffffffffffffffffffffffffffffffffff03821115620013f757620013f6620015cf565b5b828201905092915050565b60006200140f826200156b565b91506200141c836200156b565b9250826200142f576200142e620015fe565b5b828204905092915050565b600062001447826200156b565b915062001454836200156b565b9250817fffffffffffffffffffffffffffffffffffffffffffffffffffffffffffffffff048311821515161562001490576200148f620015cf565b5b828202905092915050565b6000620014a8826200152f565b9150620014b5836200152f565b925082821015620014cb57620014ca620015cf565b5b828203905092915050565b6000620014e38262001575565b9150620014f08362001575565b925082821015620015065762001505620015cf565b5b828203905092915050565b60006200151e826200154b565b9050919050565b6000819050919050565b60006fffffffffffffffffffffffffffffffff82169050919050565b600073ffffffffffffffffffffffffffffffffffffffff82169050919050565b6000819050919050565b600063ffffffff82169050919050565b600062001592826200152f565b9050919050565b60006002820490506001821680620015b257607f821691505b60208210811415620015c957620015c86200162d565b5b50919050565b7f4e487b7100000000000000000000000000000000000000000000000000000000600052601160045260246000fd5b7f4e487b7100000000000000000000000000000000000000000000000000000000600052601260045260246000fd5b7f4e487b7100000000000000000000000000000000000000000000000000000000600052602260045260246000fd5b620016678162001511565b81146200167357600080fd5b50565b60805160a05160c05160e05160601c613cbd620016d660003960008181610820015261105501526000818161093401528181611031015261116b01526000818161096901526111a00152600081816108f701526110c30152613cbd6000f3fe608060405234801561001057600080fd5b50600436106101f05760003560e01c8063687f0e4c1161010f578063ad82110f116100a2578063d505accf11610071578063d505accf146105d7578063dd62ed3e146105f3578063de02cde714610623578063effae3531461063f576101f0565b8063ad82110f14610563578063ae93c1b51461057f578063cd0d00961461059b578063d1af0c7d146105b9576101f0565b806395d89b41116100de57806395d89b41146104db578063a354f39e146104f9578063a4f0d7d014610515578063a9059cbb14610533576101f0565b8063687f0e4c1461043f57806370641a361461045b57806370a082311461047b5780637ecebe00146104ab576101f0565b806330adf81f1161018757806354fd4d501161015657806354fd4d50146103b7578063559742d9146103d55780635909c12f146103f15780635ba5e9f01461040f576101f0565b806330adf81f14610341578063313ce5671461035f5780633644e5151461037d57806344faded01461039b576101f0565b806318160ddd116101c357806318160ddd146102a45780631e83409a146102c257806323b872dd146102f257806326ae2b7814610322576101f0565b806306fdde03146101f55780630700037d14610213578063095ea7b31461024457806310ab943214610274575b600080fd5b6101fd61065b565b60405161020a9190613498565b60405180910390f35b61022d60048036038101906102289190612abe565b6106e9565b60405161023b929190613615565b60405180910390f35b61025e60048036038101906102599190612c10565b610745565b60405161026b9190613333565b60405180910390f35b61028e60048036038101906102899190612cf2565b61075a565b60405161029b9190613333565b60405180910390f35b6102ac61076e565b6040516102b99190613675565b60405180910390f35b6102dc60048036038101906102d79190612abe565b610778565b6040516102e99190613675565b60405180910390f35b61030c60048036038101906103079190612b23565b6108a2565b6040516103199190613333565b60405180910390f35b61032a6108c3565b604051610338929190613690565b60405180910390f35b6103496108f5565b604051610356919061334e565b60405180910390f35b610367610919565b60405161037491906136f0565b60405180910390f35b61038561092c565b604051610392919061334e565b60405180910390f35b6103b560048036038101906103b09190612cf2565b61098f565b005b6103bf6109f0565b6040516103cc9190613498565b60405180910390f35b6103ef60048036038101906103ea9190612cc9565b610a2d565b005b6103f9610a94565b6040516104069190613462565b60405180910390f35b61042960048036038101906104249190612cc9565b610a9c565b6040516104369190613462565b60405180910390f35b61045960048036038101906104549190612cf2565b610aae565b005b610463610b2a565b6040516104729392919061363e565b60405180910390f35b61049560048036038101906104909190612abe565b610b86565b6040516104a29190613675565b60405180910390f35b6104c560048036038101906104c09190612abe565b610bcf565b6040516104d29190613675565b60405180910390f35b6104e3610be7565b6040516104f09190613498565b60405180910390f35b610513600480360381019061050e9190612dab565b610c75565b005b61051d610eaf565b60405161052a9190613462565b60405180910390f35b61054d60048036038101906105489190612c10565b610eba565b60405161055a9190613333565b60405180910390f35b61057d60048036038101906105789190612c4c565b610ecf565b005b61059960048036038101906105949190612d2e565b610fce565b005b6105a361102f565b6040516105b09190613675565b60405180910390f35b6105c1611053565b6040516105ce919061347d565b60405180910390f35b6105f160048036038101906105ec9190612b72565b611077565b005b61060d60048036038101906106089190612ae7565b6112fd565b60405161061a9190613675565b60405180910390f35b61063d60048036038101906106389190612cf2565b611384565b005b61065960048036038101906106549190612c4c565b6113e5565b005b6004805461066890613a7d565b80601f016020809104026020016040519081016040528092919081815260200182805461069490613a7d565b80156106e15780601f106106b6576101008083540402835291602001916106e1565b820191906000526020600020905b8154815290600101906020018083116106c457829003601f168201915b505050505081565b600a6020528060005260406000206000915090508060000160009054906101000a90046fffffffffffffffffffffffffffffffff16908060000160109054906101000a90046fffffffffffffffffffffffffffffffff16905082565b60006107523384846116aa565b905092915050565b6000610766838361179d565b905092915050565b6000600154905090565b6000610782611845565b61078b33611b72565b6fffffffffffffffffffffffffffffffff1690506000600a60003373ffffffffffffffffffffffffffffffffffffffff1673ffffffffffffffffffffffffffffffffffffffff16815260200190815260200160002060000160006101000a8154816fffffffffffffffffffffffffffffffff02191690836fffffffffffffffffffffffffffffffff16021790555061086482827f000000000000000000000000000000000000000000000000000000000000000073ffffffffffffffffffffffffffffffffffffffff16611f359092919063ffffffff16565b7fd8138f8a3f377c5259ca548e70e4c2de94f129f5a11036a15b69513cba2b426a828260405161089592919061330a565b60405180910390a1919050565b60006108ae8483612094565b506108ba8484846121cf565b90509392505050565b60088060000160009054906101000a900463ffffffff16908060000160049054906101000a900463ffffffff16905082565b7f000000000000000000000000000000000000000000000000000000000000000081565b600660009054906101000a900460ff1681565b6000804690507f000000000000000000000000000000000000000000000000000000000000000081146109675761096281612201565b610989565b7f00000000000000000000000000000000000000000000000000000000000000005b91505090565b816109a261099c8261227d565b3361179d565b6109e1576040517f08c379a00000000000000000000000000000000000000000000000000000000081526004016109d89061351a565b60405180910390fd5b6109eb83836122e7565b505050565b60606040518060400160405280600181526020017f3100000000000000000000000000000000000000000000000000000000000000815250905090565b80610a40610a3a8261227d565b3361179d565b610a7f576040517f08c379a0000000000000000000000000000000000000000000000000000000008152600401610a769061351a565b60405180910390fd5b610a908263ffffffff60e01b61241e565b5050565b600060e01b81565b6000610aa78261227d565b9050919050565b3373ffffffffffffffffffffffffffffffffffffffff168173ffffffffffffffffffffffffffffffffffffffff1614610b1c576040517f08c379a0000000000000000000000000000000000000000000000000000000008152600401610b139061359a565b60405180910390fd5b610b2682826122e7565b5050565b60098060000160009054906101000a90046fffffffffffffffffffffffffffffffff16908060000160109054906101000a900463ffffffff16908060000160149054906101000a90046bffffffffffffffffffffffff16905083565b6000600260008373ffffffffffffffffffffffffffffffffffffffff1673ffffffffffffffffffffffffffffffffffffffff168152602001908152602001600020549050919050565b60076020528060005260406000206000915090505481565b60058054610bf490613a7d565b80601f0160208091040260200160405190810160405280929190818152602001828054610c2090613a7d565b8015610c6d5780601f10610c4257610100808354040283529160200191610c6d565b820191906000526020600020905b815481529060010190602001808311610c5057829003601f168201915b505050505081565b610ca36000357fffffffff00000000000000000000000000000000000000000000000000000000163361179d565b610ce2576040517f08c379a0000000000000000000000000000000000000000000000000000000008152600401610cd9906135ba565b60405180910390fd5b8163ffffffff168363ffffffff161115610d31576040517f08c379a0000000000000000000000000000000000000000000000000000000008152600401610d289061355a565b60405180910390fd5b600860000160009054906101000a900463ffffffff1663ffffffff16610d56426115f8565b63ffffffff161080610d905750600860000160049054906101000a900463ffffffff1663ffffffff16610d88426115f8565b63ffffffff16115b610dcf576040517f08c379a0000000000000000000000000000000000000000000000000000000008152600401610dc6906135da565b60405180910390fd5b82600860000160006101000a81548163ffffffff021916908363ffffffff16021790555081600860000160046101000a81548163ffffffff021916908363ffffffff16021790555082600960000160106101000a81548163ffffffff021916908363ffffffff16021790555080600960000160146101000a8154816bffffffffffffffffffffffff02191690836bffffffffffffffffffffffff1602179055507f95efd8a2a0aa591f48fd9673cf5d13c2150ca7a1fe1cbe438dd3f0ae47064663838383604051610ea2939291906136b9565b60405180910390a1505050565b63ffffffff60e01b81565b6000610ec73384846121cf565b905092915050565b60005b8251811015610fc957610f2d610f27848381518110610f1a577f4e487b7100000000000000000000000000000000000000000000000000000000600052603260045260246000fd5b602002602001015161227d565b3361179d565b610f6c576040517f08c379a0000000000000000000000000000000000000000000000000000000008152600401610f639061351a565b60405180910390fd5b610fb6838281518110610fa8577f4e487b7100000000000000000000000000000000000000000000000000000000600052603260045260246000fd5b6020026020010151836122e7565b8080610fc190613aaf565b915050610ed2565b505050565b81610fe1610fdb8261227d565b3361179d565b611020576040517f08c379a00000000000000000000000000000000000000000000000000000000081526004016110179061351a565b60405180910390fd5b61102a838361241e565b505050565b7f000000000000000000000000000000000000000000000000000000000000000081565b7f000000000000000000000000000000000000000000000000000000000000000081565b428410156110ba576040517f08c379a00000000000000000000000000000000000000000000000000000000081526004016110b1906134da565b60405180910390fd5b600046905060007f0000000000000000000000000000000000000000000000000000000000000000898989600760008e73ffffffffffffffffffffffffffffffffffffffff1673ffffffffffffffffffffffffffffffffffffffff168152602001908152602001600020600081548092919061113590613aaf565b919050558a60405160200161114f96959493929190613369565b60405160208183030381529060405280519060200120905060007f0000000000000000000000000000000000000000000000000000000000000000831461119e5761119983612201565b6111c0565b7f00000000000000000000000000000000000000000000000000000000000000005b826040516020016111d292919061329c565b60405160208183030381529060405280519060200120905060006001828888886040516000815260200160405260405161120f949392919061341d565b6020604051602081039080840390855afa158015611231573d6000803e3d6000fd5b505050602060405103519050600073ffffffffffffffffffffffffffffffffffffffff168173ffffffffffffffffffffffffffffffffffffffff16141580156112a557508a73ffffffffffffffffffffffffffffffffffffffff168173ffffffffffffffffffffffffffffffffffffffff16145b6112e4576040517f08c379a00000000000000000000000000000000000000000000000000000000081526004016112db9061357a565b60405180910390fd5b6112ef8b8b8b6116aa565b505050505050505050505050565b6000600360008473ffffffffffffffffffffffffffffffffffffffff1673ffffffffffffffffffffffffffffffffffffffff16815260200190815260200160002060008373ffffffffffffffffffffffffffffffffffffffff1673ffffffffffffffffffffffffffffffffffffffff16815260200190815260200160002054905092915050565b816113976113918261227d565b3361179d565b6113d6576040517f08c379a00000000000000000000000000000000000000000000000000000000081526004016113cd9061351a565b60405180910390fd5b6113e0838361254b565b505050565b60005b82518110156114df5761144361143d848381518110611430577f4e487b7100000000000000000000000000000000000000000000000000000000600052603260045260246000fd5b602002602001015161227d565b3361179d565b611482576040517f08c379a00000000000000000000000000000000000000000000000000000000081526004016114799061351a565b60405180910390fd5b6114cc8382815181106114be577f4e487b7100000000000000000000000000000000000000000000000000000000600052603260045260246000fd5b60200260200101518361254b565b80806114d790613aaf565b9150506113e8565b505050565b600081600260008573ffffffffffffffffffffffffffffffffffffffff1673ffffffffffffffffffffffffffffffffffffffff1681526020019081526020016000205461153191906137ea565b600260008573ffffffffffffffffffffffffffffffffffffffff1673ffffffffffffffffffffffffffffffffffffffff168152602001908152602001600020819055508160015461158291906137ea565b6001819055508273ffffffffffffffffffffffffffffffffffffffff16600073ffffffffffffffffffffffffffffffffffffffff167fddf252ad1be2c89b69c2b068fc378daa952ba7f163c4a11628f55a4df523b3ef846040516115e69190613675565b60405180910390a36001905092915050565b600063ffffffff8016821115611643576040517f08c379a000000000000000000000000000000000000000000000000000000000815260040161163a906134ba565b60405180910390fd5b819050919050565b60006fffffffffffffffffffffffffffffffff80168211156116a2576040517f08c379a0000000000000000000000000000000000000000000000000000000008152600401611699906134ba565b60405180910390fd5b819050919050565b600081600360008673ffffffffffffffffffffffffffffffffffffffff1673ffffffffffffffffffffffffffffffffffffffff16815260200190815260200160002060008573ffffffffffffffffffffffffffffffffffffffff1673ffffffffffffffffffffffffffffffffffffffff168152602001908152602001600020819055508273ffffffffffffffffffffffffffffffffffffffff168473ffffffffffffffffffffffffffffffffffffffff167f8c5be1e5ebec7d5bd14f71427d1e84f3dd0314c0f7b2291e5b200ac8c7c3b9258460405161178a9190613675565b60405180910390a3600190509392505050565b6000806000847bffffffffffffffffffffffffffffffffffffffffffffffffffffffff19167bffffffffffffffffffffffffffffffffffffffffffffffffffffffff1916815260200190815260200160002060000160008373ffffffffffffffffffffffffffffffffffffffff1673ffffffffffffffffffffffffffffffffffffffff16815260200190815260200160002060009054906101000a900460ff16905092915050565b600060096040518060600160405290816000820160009054906101000a90046fffffffffffffffffffffffffffffffff166fffffffffffffffffffffffffffffffff166fffffffffffffffffffffffffffffffff1681526020016000820160109054906101000a900463ffffffff1663ffffffff1663ffffffff1681526020016000820160149054906101000a90046bffffffffffffffffffffffff166bffffffffffffffffffffffff166bffffffffffffffffffffffff16815250509050600060086040518060400160405290816000820160009054906101000a900463ffffffff1663ffffffff1663ffffffff1681526020016000820160049054906101000a900463ffffffff1663ffffffff1663ffffffff1681525050905060006001549050816000015163ffffffff1661197c426115f8565b63ffffffff16101561199057505050611b70565b60006119a861199e426115f8565b8460200151612681565b905060008460200151826119bc91906138ff565b63ffffffff16905060008114156119d7575050505050611b70565b60008314611a7457611a448386604001516bffffffffffffffffffffffff1683670de0b6b3a7640000611a0a9190613871565b611a149190613871565b611a1e9190613840565b86600001516fffffffffffffffffffffffffffffffff16611a3f91906137ea565b61164b565b85600001906fffffffffffffffffffffffffffffffff1690816fffffffffffffffffffffffffffffffff16815250505b81856020019063ffffffff16908163ffffffff168152505084600960008201518160000160006101000a8154816fffffffffffffffffffffffffffffffff02191690836fffffffffffffffffffffffffffffffff16021790555060208201518160000160106101000a81548163ffffffff021916908363ffffffff16021790555060408201518160000160146101000a8154816bffffffffffffffffffffffff02191690836bffffffffffffffffffffffff1602179055509050507fe972555b20cae8150e291bb40efce3ef4e3ed6b6b2c39c029346600e95469d488560000151604051611b6291906135fa565b60405180910390a150505050505b565b600080600a60008473ffffffffffffffffffffffffffffffffffffffff1673ffffffffffffffffffffffffffffffffffffffff1681526020019081526020016000206040518060400160405290816000820160009054906101000a90046fffffffffffffffffffffffffffffffff166fffffffffffffffffffffffffffffffff166fffffffffffffffffffffffffffffffff1681526020016000820160109054906101000a90046fffffffffffffffffffffffffffffffff166fffffffffffffffffffffffffffffffff166fffffffffffffffffffffffffffffffff16815250509050600060096040518060600160405290816000820160009054906101000a90046fffffffffffffffffffffffffffffffff166fffffffffffffffffffffffffffffffff166fffffffffffffffffffffffffffffffff1681526020016000820160109054906101000a900463ffffffff1663ffffffff1663ffffffff1681526020016000820160149054906101000a90046bffffffffffffffffffffffff166bffffffffffffffffffffffff166bffffffffffffffffffffffff16815250509050611dc0670de0b6b3a764000083602001518360000151611d3491906138cb565b6fffffffffffffffffffffffffffffffff16600260008873ffffffffffffffffffffffffffffffffffffffff1673ffffffffffffffffffffffffffffffffffffffff16815260200190815260200160002054611d909190613871565b611d9a9190613840565b83600001516fffffffffffffffffffffffffffffffff16611dbb91906137ea565b61164b565b82600001906fffffffffffffffffffffffffffffffff1690816fffffffffffffffffffffffffffffffff1681525050806000015182602001906fffffffffffffffffffffffffffffffff1690816fffffffffffffffffffffffffffffffff168152505081600a60008673ffffffffffffffffffffffffffffffffffffffff1673ffffffffffffffffffffffffffffffffffffffff16815260200190815260200160002060008201518160000160006101000a8154816fffffffffffffffffffffffffffffffff02191690836fffffffffffffffffffffffffffffffff16021790555060208201518160000160106101000a8154816fffffffffffffffffffffffffffffffff02191690836fffffffffffffffffffffffffffffffff1602179055509050507f5b9aaf4cc5141c090a75f8b8a627863eba92df81f0c83c096350da9b79aedd048483600001518460200151604051611f1f939291906132d3565b60405180910390a1816000015192505050919050565b6000808473ffffffffffffffffffffffffffffffffffffffff1663a9059cbb60e01b8585604051602401611f6a92919061330a565b604051602081830303815290604052907bffffffffffffffffffffffffffffffffffffffffffffffffffffffff19166020820180517bffffffffffffffffffffffffffffffffffffffffffffffffffffffff8381831617835250505050604051611fd4919061326e565b6000604051808303816000865af19150503d8060008114612011576040519150601f19603f3d011682016040523d82523d6000602084013e612016565b606091505b509150915081801561204457506000815114806120435750808060200190518101906120429190612ca0565b5b5b61208d57612051816126a6565b6040517f08c379a00000000000000000000000000000000000000000000000000000000081526004016120849190613498565b60405180910390fd5b5050505050565b60003373ffffffffffffffffffffffffffffffffffffffff168373ffffffffffffffffffffffffffffffffffffffff16146121c5576000600360008573ffffffffffffffffffffffffffffffffffffffff1673ffffffffffffffffffffffffffffffffffffffff16815260200190815260200160002060003373ffffffffffffffffffffffffffffffffffffffff1673ffffffffffffffffffffffffffffffffffffffff1681526020019081526020016000205490507fffffffffffffffffffffffffffffffffffffffffffffffffffffffffffffffff81146121c357828110156121b4576040517f08c379a00000000000000000000000000000000000000000000000000000000081526004016121ab906134fa565b60405180910390fd5b6121c184338584036116aa565b505b505b6001905092915050565b60006121d9611845565b6121e284611b72565b506121ec83611b72565b506121f8848484612711565b90509392505050565b60007f8b73c3c69bb8fe3d512ecc4cf759cc79239f7b179b0ffacaa9a75d522b39400f60046040516122339190613285565b60405180910390206122436109f0565b8051906020012084306040516020016122609594939291906133ca565b604051602081830303815290604052805190602001209050919050565b6000806000837bffffffffffffffffffffffffffffffffffffffffffffffffffffffff19167bffffffffffffffffffffffffffffffffffffffffffffffffffffffff1916815260200190815260200160002060010160009054906101000a900460e01b9050919050565b6122f1828261179d565b1561241a576000806000847bffffffffffffffffffffffffffffffffffffffffffffffffffffffff19167bffffffffffffffffffffffffffffffffffffffffffffffffffffffff1916815260200190815260200160002060000160008373ffffffffffffffffffffffffffffffffffffffff1673ffffffffffffffffffffffffffffffffffffffff16815260200190815260200160002060006101000a81548160ff0219169083151502179055503373ffffffffffffffffffffffffffffffffffffffff168173ffffffffffffffffffffffffffffffffffffffff16837bffffffffffffffffffffffffffffffffffffffffffffffffffffffff19167f4ddc7b757e7bdd7254a9cd39452d307a52761bc824625c6a33104a075d8099e660405160405180910390a45b5050565b807bffffffffffffffffffffffffffffffffffffffffffffffffffffffff19166124478361227d565b7bffffffffffffffffffffffffffffffffffffffffffffffffffffffff1916146125475780600080847bffffffffffffffffffffffffffffffffffffffffffffffffffffffff19167bffffffffffffffffffffffffffffffffffffffffffffffffffffffff1916815260200190815260200160002060010160006101000a81548163ffffffff021916908360e01c0217905550807bffffffffffffffffffffffffffffffffffffffffffffffffffffffff1916827bffffffffffffffffffffffffffffffffffffffffffffffffffffffff19167fd348e2220a50b4500ec353f6e802d2f14dd1b5d6786148fd1bbcc570bf92d47360405160405180910390a35b5050565b612555828261179d565b61267d576001600080847bffffffffffffffffffffffffffffffffffffffffffffffffffffffff19167bffffffffffffffffffffffffffffffffffffffffffffffffffffffff1916815260200190815260200160002060000160008373ffffffffffffffffffffffffffffffffffffffff1673ffffffffffffffffffffffffffffffffffffffff16815260200190815260200160002060006101000a81548160ff0219169083151502179055503373ffffffffffffffffffffffffffffffffffffffff168173ffffffffffffffffffffffffffffffffffffffff16837bffffffffffffffffffffffffffffffffffffffffffffffffffffffff19167fe6231789d19137da31d0550f4ba9ee379020a8cfb64cb79bf1790c996d2e616560405160405180910390a45b5050565b60008163ffffffff168363ffffffff161061269c578161269e565b825b905092915050565b60606044825110156126ef576040518060400160405280601d81526020017f5472616e73616374696f6e2072657665727465642073696c656e746c79000000815250905061270c565b600482019150818060200190518101906127099190612d6a565b90505b919050565b600081600260008673ffffffffffffffffffffffffffffffffffffffff1673ffffffffffffffffffffffffffffffffffffffff168152602001908152602001600020541015612795576040517f08c379a000000000000000000000000000000000000000000000000000000000815260040161278c9061353a565b60405180910390fd5b81600260008673ffffffffffffffffffffffffffffffffffffffff1673ffffffffffffffffffffffffffffffffffffffff1681526020019081526020016000205403600260008673ffffffffffffffffffffffffffffffffffffffff1673ffffffffffffffffffffffffffffffffffffffff1681526020019081526020016000208190555081600260008573ffffffffffffffffffffffffffffffffffffffff1673ffffffffffffffffffffffffffffffffffffffff1681526020019081526020016000205461286591906137ea565b600260008573ffffffffffffffffffffffffffffffffffffffff1673ffffffffffffffffffffffffffffffffffffffff168152602001908152602001600020819055508273ffffffffffffffffffffffffffffffffffffffff168473ffffffffffffffffffffffffffffffffffffffff167fddf252ad1be2c89b69c2b068fc378daa952ba7f163c4a11628f55a4df523b3ef846040516129059190613675565b60405180910390a3600190509392505050565b600061292b6129268461373c565b61370b565b9050808382526020820190508285602086028201111561294a57600080fd5b60005b8581101561297a57816129608882612a2b565b84526020840193506020830192505060018101905061294d565b5050509392505050565b600061299761299284613768565b61370b565b9050828152602081018484840111156129af57600080fd5b6129ba848285613a4a565b509392505050565b6000813590506129d181613bcf565b92915050565b600082601f8301126129e857600080fd5b81356129f8848260208601612918565b91505092915050565b600081519050612a1081613be6565b92915050565b600081359050612a2581613bfd565b92915050565b600081359050612a3a81613c14565b92915050565b600082601f830112612a5157600080fd5b8151612a61848260208601612984565b91505092915050565b600081359050612a7981613c2b565b92915050565b600081359050612a8e81613c42565b92915050565b600081359050612aa381613c59565b92915050565b600081359050612ab881613c70565b92915050565b600060208284031215612ad057600080fd5b6000612ade848285016129c2565b91505092915050565b60008060408385031215612afa57600080fd5b6000612b08858286016129c2565b9250506020612b19858286016129c2565b9150509250929050565b600080600060608486031215612b3857600080fd5b6000612b46868287016129c2565b9350506020612b57868287016129c2565b9250506040612b6886828701612a6a565b9150509250925092565b600080600080600080600060e0888a031215612b8d57600080fd5b6000612b9b8a828b016129c2565b9750506020612bac8a828b016129c2565b9650506040612bbd8a828b01612a6a565b9550506060612bce8a828b01612a6a565b9450506080612bdf8a828b01612a94565b93505060a0612bf08a828b01612a16565b92505060c0612c018a828b01612a16565b91505092959891949750929550565b60008060408385031215612c2357600080fd5b6000612c31858286016129c2565b9250506020612c4285828601612a6a565b9150509250929050565b60008060408385031215612c5f57600080fd5b600083013567ffffffffffffffff811115612c7957600080fd5b612c85858286016129d7565b9250506020612c96858286016129c2565b9150509250929050565b600060208284031215612cb257600080fd5b6000612cc084828501612a01565b91505092915050565b600060208284031215612cdb57600080fd5b6000612ce984828501612a2b565b91505092915050565b60008060408385031215612d0557600080fd5b6000612d1385828601612a2b565b9250506020612d24858286016129c2565b9150509250929050565b60008060408385031215612d4157600080fd5b6000612d4f85828601612a2b565b9250506020612d6085828601612a2b565b9150509250929050565b600060208284031215612d7c57600080fd5b600082015167ffffffffffffffff811115612d9657600080fd5b612da284828501612a40565b91505092915050565b600080600060608486031215612dc057600080fd5b6000612dce86828701612a7f565b9350506020612ddf86828701612a7f565b9250506040612df086828701612aa9565b9150509250925092565b612e0381613933565b82525050565b612e1281613945565b82525050565b612e2181613951565b82525050565b612e38612e3382613951565b613af8565b82525050565b612e478161395b565b82525050565b6000612e58826137ad565b612e6281856137c3565b9350612e72818560208601613a4a565b80840191505092915050565b60008154612e8b81613a7d565b612e9581866137c3565b94506001821660008114612eb05760018114612ec157612ef4565b60ff19831686528186019350612ef4565b612eca85613798565b60005b83811015612eec57815481890152600182019150602081019050612ecd565b838801955050505b50505092915050565b612f0681613a02565b82525050565b6000612f17826137b8565b612f2181856137ce565b9350612f31818560208601613a4a565b612f3a81613bbe565b840191505092915050565b6000612f52600d836137ce565b91507f43617374206f766572666c6f77000000000000000000000000000000000000006000830152602082019050919050565b6000612f926002836137df565b91507f19010000000000000000000000000000000000000000000000000000000000006000830152600282019050919050565b6000612fd2601d836137ce565b91507f45524332305065726d69743a206578706972656420646561646c696e650000006000830152602082019050919050565b6000613012601c836137ce565b91507f45524332303a20496e73756666696369656e7420617070726f76616c000000006000830152602082019050919050565b6000613052600a836137ce565b91507f4f6e6c792061646d696e000000000000000000000000000000000000000000006000830152602082019050919050565b6000613092601b836137ce565b91507f45524332303a20496e73756666696369656e742062616c616e636500000000006000830152602082019050919050565b60006130d2600f836137ce565b91507f496e636f727265637420696e70757400000000000000000000000000000000006000830152602082019050919050565b6000613112601e836137ce565b91507f45524332305065726d69743a20696e76616c6964207369676e617475726500006000830152602082019050919050565b60006131526016836137ce565b91507f52656e6f756e6365206f6e6c7920666f722073656c66000000000000000000006000830152602082019050919050565b6000613192600d836137ce565b91507f4163636573732064656e696564000000000000000000000000000000000000006000830152602082019050919050565b60006131d2600f836137ce565b91507f4f6e676f696e67207265776172647300000000000000000000000000000000006000830152602082019050919050565b61320e81613987565b82525050565b61321d81613a26565b82525050565b61322c816139c3565b82525050565b61323b816139cd565b82525050565b61324a816139dd565b82525050565b61325981613a38565b82525050565b613268816139ea565b82525050565b600061327a8284612e4d565b915081905092915050565b60006132918284612e7e565b915081905092915050565b60006132a782612f85565b91506132b38285612e27565b6020820191506132c38284612e27565b6020820191508190509392505050565b60006060820190506132e86000830186612dfa565b6132f56020830185613214565b6133026040830184613214565b949350505050565b600060408201905061331f6000830185612dfa565b61332c6020830184613223565b9392505050565b60006020820190506133486000830184612e09565b92915050565b60006020820190506133636000830184612e18565b92915050565b600060c08201905061337e6000830189612e18565b61338b6020830188612dfa565b6133986040830187612dfa565b6133a56060830186613223565b6133b26080830185613223565b6133bf60a0830184613223565b979650505050505050565b600060a0820190506133df6000830188612e18565b6133ec6020830187612e18565b6133f96040830186612e18565b6134066060830185613223565b6134136080830184612dfa565b9695505050505050565b60006080820190506134326000830187612e18565b61343f6020830186613241565b61344c6040830185612e18565b6134596060830184612e18565b95945050505050565b60006020820190506134776000830184612e3e565b92915050565b60006020820190506134926000830184612efd565b92915050565b600060208201905081810360008301526134b28184612f0c565b905092915050565b600060208201905081810360008301526134d381612f45565b9050919050565b600060208201905081810360008301526134f381612fc5565b9050919050565b6000602082019050818103600083015261351381613005565b9050919050565b6000602082019050818103600083015261353381613045565b9050919050565b6000602082019050818103600083015261355381613085565b9050919050565b60006020820190508181036000830152613573816130c5565b9050919050565b6000602082019050818103600083015261359381613105565b9050919050565b600060208201905081810360008301526135b381613145565b9050919050565b600060208201905081810360008301526135d381613185565b9050919050565b600060208201905081810360008301526135f3816131c5565b9050919050565b600060208201905061360f6000830184613214565b92915050565b600060408201905061362a6000830185613205565b6136376020830184613205565b9392505050565b60006060820190506136536000830186613205565b6136606020830185613232565b61366d604083018461325f565b949350505050565b600060208201905061368a6000830184613223565b92915050565b60006040820190506136a56000830185613232565b6136b26020830184613232565b9392505050565b60006060820190506136ce6000830186613232565b6136db6020830185613232565b6136e86040830184613250565b949350505050565b60006020820190506137056000830184613241565b92915050565b6000604051905081810181811067ffffffffffffffff8211171561373257613731613b8f565b5b8060405250919050565b600067ffffffffffffffff82111561375757613756613b8f565b5b602082029050602081019050919050565b600067ffffffffffffffff82111561378357613782613b8f565b5b601f19601f8301169050602081019050919050565b60008190508160005260206000209050919050565b600081519050919050565b600081519050919050565b600081905092915050565b600082825260208201905092915050565b600081905092915050565b60006137f5826139c3565b9150613800836139c3565b9250827fffffffffffffffffffffffffffffffffffffffffffffffffffffffffffffffff0382111561383557613834613b02565b5b828201905092915050565b600061384b826139c3565b9150613856836139c3565b92508261386657613865613b31565b5b828204905092915050565b600061387c826139c3565b9150613887836139c3565b9250817fffffffffffffffffffffffffffffffffffffffffffffffffffffffffffffffff04831182151516156138c0576138bf613b02565b5b828202905092915050565b60006138d682613987565b91506138e183613987565b9250828210156138f4576138f3613b02565b5b828203905092915050565b600061390a826139cd565b9150613915836139cd565b92508282101561392857613927613b02565b5b828203905092915050565b600061393e826139a3565b9050919050565b60008115159050919050565b6000819050919050565b60007fffffffff0000000000000000000000000000000000000000000000000000000082169050919050565b60006fffffffffffffffffffffffffffffffff82169050919050565b600073ffffffffffffffffffffffffffffffffffffffff82169050919050565b6000819050919050565b600063ffffffff82169050919050565b600060ff82169050919050565b60006bffffffffffffffffffffffff82169050919050565b6000613a0d82613a14565b9050919050565b6000613a1f826139a3565b9050919050565b6000613a3182613987565b9050919050565b6000613a43826139ea565b9050919050565b60005b83811015613a68578082015181840152602081019050613a4d565b83811115613a77576000848401525b50505050565b60006002820490506001821680613a9557607f821691505b60208210811415613aa957613aa8613b60565b5b50919050565b6000613aba826139c3565b91507fffffffffffffffffffffffffffffffffffffffffffffffffffffffffffffffff821415613aed57613aec613b02565b5b600182019050919050565b6000819050919050565b7f4e487b7100000000000000000000000000000000000000000000000000000000600052601160045260246000fd5b7f4e487b7100000000000000000000000000000000000000000000000000000000600052601260045260246000fd5b7f4e487b7100000000000000000000000000000000000000000000000000000000600052602260045260246000fd5b7f4e487b7100000000000000000000000000000000000000000000000000000000600052604160045260246000fd5b6000601f19601f8301169050919050565b613bd881613933565b8114613be357600080fd5b50565b613bef81613945565b8114613bfa57600080fd5b50565b613c0681613951565b8114613c1157600080fd5b50565b613c1d8161395b565b8114613c2857600080fd5b50565b613c34816139c3565b8114613c3f57600080fd5b50565b613c4b816139cd565b8114613c5657600080fd5b50565b613c62816139dd565b8114613c6d57600080fd5b50565b613c79816139ea565b8114613c8457600080fd5b5056fea26469706673582212204e0270ceaaf7114f005866894b49695f3bbe24cef28460a8ca65d48b2da2f11c64736f6c63430008000033",
  "immutableReferences": {
    "1946": [
      {
        "length": 32,
        "start": 2295
      },
      {
        "length": 32,
        "start": 4291
      }
    ],
    "1948": [
      {
        "length": 32,
        "start": 2409
      },
      {
        "length": 32,
        "start": 4512
      }
    ],
    "1950": [
      {
        "length": 32,
        "start": 2356
      },
      {
        "length": 32,
        "start": 4145
      },
      {
        "length": 32,
        "start": 4459
      }
    ],
    "2211": [
      {
        "length": 32,
        "start": 2080
      },
      {
        "length": 32,
        "start": 4181
      }
    ]
  },
  "source": "pragma solidity ^0.8.0;\n\nimport './yields-utils-v2/token/ERC20Rewards.sol';\nimport './yields-utils-v2/token/ERC20.sol';\n\ncontract Token is ERC20Rewards {\n  constructor(address rewardsToken) \n  ERC20Rewards('Our Reward Token', 'RWT', 18, IERC20(rewardsToken)) {\n    _mint(msg.sender, 1000);\n  }\n}\n",
  "sourcePath": "/home/vladimirdjukic/Documents/staked/391-rewards-token/contracts/Token.sol",
  "compiler": {
    "name": "solc",
    "version": "0.8.0+commit.c7dfd78e.Emscripten.clang"
  },
  "schemaVersion": "3.4.3",
  "updatedAt": "2021-08-28T14:48:55.274Z",
  "networkType": "ethereum",
  "devdoc": {
    "kind": "dev",
    "methods": {
      "DOMAIN_SEPARATOR()": {
        "details": "Return the DOMAIN_SEPARATOR."
      },
      "allowance(address,address)": {
        "details": "See {IERC20-allowance}."
      },
      "approve(address,uint256)": {
        "details": "See {IERC20-approve}."
      },
      "balanceOf(address)": {
        "details": "See {IERC20-balanceOf}."
      },
      "claim(address)": {
        "details": "Claim all rewards from caller into a given address"
      },
      "getRoleAdmin(bytes4)": {
        "details": "Returns the admin role that controls `role`. See {grantRole} and {revokeRole}. To change a role's admin, use {_setRoleAdmin}."
      },
      "grantRole(bytes4,address)": {
        "details": "Grants `role` to `account`. If `account` had not been already granted `role`, emits a {RoleGranted} event. Requirements: - the caller must have ``role``'s admin role."
      },
      "grantRoles(bytes4[],address)": {
        "details": "Grants all of `role` in `roles` to `account`. If `account` had not been already granted `role`, emits a {RoleGranted} event. Requirements: - For each `role` in `roles`, the caller must have ``role``'s admin role."
      },
      "hasRole(bytes4,address)": {
        "details": "Returns `true` if `account` has been granted `role`."
      },
      "lockRole(bytes4)": {
        "details": "Sets LOCK as ``role``'s admin role. LOCK has no members, so this disables admin management of ``role``. Emits a {RoleAdminChanged} event. Requirements: - the caller must have ``role``'s admin role."
      },
      "permit(address,address,uint256,uint256,uint8,bytes32,bytes32)": {
        "details": "See {IERC2612-permit}. In cases where the free option is not a concern, deadline can simply be set to uint(-1), so it should be seen as an optional parameter"
      },
      "renounceRole(bytes4,address)": {
        "details": "Revokes `role` from the calling account. Roles are often managed via {grantRole} and {revokeRole}: this function's purpose is to provide a mechanism for accounts to lose their privileges if they are compromised (such as when a trusted device is misplaced). If the calling account had been granted `role`, emits a {RoleRevoked} event. Requirements: - the caller must be `account`."
      },
      "revokeRole(bytes4,address)": {
        "details": "Revokes `role` from `account`. If `account` had been granted `role`, emits a {RoleRevoked} event. Requirements: - the caller must have ``role``'s admin role."
      },
      "revokeRoles(bytes4[],address)": {
        "details": "Revokes all of `role` in `roles` from `account`. If `account` had been granted `role`, emits a {RoleRevoked} event. Requirements: - For each `role` in `roles`, the caller must have ``role``'s admin role."
      },
      "setRewards(uint32,uint32,uint96)": {
        "details": "Set a rewards schedule"
      },
      "setRoleAdmin(bytes4,bytes4)": {
        "details": "Sets `adminRole` as ``role``'s admin role. If ``role``'s admin role is not `adminRole` emits a {RoleAdminChanged} event. Requirements: - the caller must have ``role``'s admin role."
      },
      "totalSupply()": {
        "details": "See {IERC20-totalSupply}."
      },
      "transfer(address,uint256)": {
        "details": "See {IERC20-transfer}. Requirements: - the caller must have a balance of at least `wad`."
      },
      "version()": {
        "details": "Setting the version as a function so that it can be overriden"
      }
    },
    "version": 1
  },
  "userdoc": {
    "kind": "user",
    "methods": {
      "transferFrom(address,address,uint256)": {
        "notice": "if_succeeds {:msg \"TransferFrom - decrease allowance\"} msg.sender != src ==> old(_allowance[src][msg.sender]) >= wad;"
      }
    },
    "version": 1
  }
}