{
  "contractName": "WETH9Mock",
  "abi": [
    {
      "inputs": [],
      "stateMutability": "nonpayable",
      "type": "constructor"
    },
    {
      "anonymous": false,
      "inputs": [
        {
          "indexed": true,
          "internalType": "address",
          "name": "owner",
          "type": "address"
        },
        {
          "indexed": true,
          "internalType": "address",
          "name": "spender",
          "type": "address"
        },
        {
          "indexed": false,
          "internalType": "uint256",
          "name": "value",
          "type": "uint256"
        }
      ],
      "name": "Approval",
      "type": "event"
    },
    {
      "anonymous": false,
      "inputs": [
        {
          "indexed": true,
          "internalType": "address",
          "name": "dst",
          "type": "address"
        },
        {
          "indexed": false,
          "internalType": "uint256",
          "name": "wad",
          "type": "uint256"
        }
      ],
      "name": "Deposit",
      "type": "event"
    },
    {
      "anonymous": false,
      "inputs": [
        {
          "indexed": true,
          "internalType": "address",
          "name": "from",
          "type": "address"
        },
        {
          "indexed": true,
          "internalType": "address",
          "name": "to",
          "type": "address"
        },
        {
          "indexed": false,
          "internalType": "uint256",
          "name": "value",
          "type": "uint256"
        }
      ],
      "name": "Transfer",
      "type": "event"
    },
    {
      "anonymous": false,
      "inputs": [
        {
          "indexed": true,
          "internalType": "address",
          "name": "src",
          "type": "address"
        },
        {
          "indexed": false,
          "internalType": "uint256",
          "name": "wad",
          "type": "uint256"
        }
      ],
      "name": "Withdrawal",
      "type": "event"
    },
    {
      "inputs": [
        {
          "internalType": "address",
          "name": "owner",
          "type": "address"
        },
        {
          "internalType": "address",
          "name": "spender",
          "type": "address"
        }
      ],
      "name": "allowance",
      "outputs": [
        {
          "internalType": "uint256",
          "name": "",
          "type": "uint256"
        }
      ],
      "stateMutability": "view",
      "type": "function"
    },
    {
      "inputs": [
        {
          "internalType": "address",
          "name": "spender",
          "type": "address"
        },
        {
          "internalType": "uint256",
          "name": "wad",
          "type": "uint256"
        }
      ],
      "name": "approve",
      "outputs": [
        {
          "internalType": "bool",
          "name": "",
          "type": "bool"
        }
      ],
      "stateMutability": "nonpayable",
      "type": "function"
    },
    {
      "inputs": [
        {
          "internalType": "address",
          "name": "guy",
          "type": "address"
        }
      ],
      "name": "balanceOf",
      "outputs": [
        {
          "internalType": "uint256",
          "name": "",
          "type": "uint256"
        }
      ],
      "stateMutability": "view",
      "type": "function"
    },
    {
      "inputs": [],
      "name": "decimals",
      "outputs": [
        {
          "internalType": "uint8",
          "name": "",
          "type": "uint8"
        }
      ],
      "stateMutability": "view",
      "type": "function"
    },
    {
      "inputs": [],
      "name": "name",
      "outputs": [
        {
          "internalType": "string",
          "name": "",
          "type": "string"
        }
      ],
      "stateMutability": "view",
      "type": "function"
    },
    {
      "inputs": [],
      "name": "symbol",
      "outputs": [
        {
          "internalType": "string",
          "name": "",
          "type": "string"
        }
      ],
      "stateMutability": "view",
      "type": "function"
    },
    {
      "inputs": [
        {
          "internalType": "address",
          "name": "dst",
          "type": "address"
        },
        {
          "internalType": "uint256",
          "name": "wad",
          "type": "uint256"
        }
      ],
      "name": "transfer",
      "outputs": [
        {
          "internalType": "bool",
          "name": "",
          "type": "bool"
        }
      ],
      "stateMutability": "nonpayable",
      "type": "function"
    },
    {
      "inputs": [
        {
          "internalType": "address",
          "name": "src",
          "type": "address"
        },
        {
          "internalType": "address",
          "name": "dst",
          "type": "address"
        },
        {
          "internalType": "uint256",
          "name": "wad",
          "type": "uint256"
        }
      ],
      "name": "transferFrom",
      "outputs": [
        {
          "internalType": "bool",
          "name": "",
          "type": "bool"
        }
      ],
      "stateMutability": "nonpayable",
      "type": "function"
    },
    {
      "stateMutability": "payable",
      "type": "receive"
    },
    {
      "inputs": [],
      "name": "deposit",
      "outputs": [],
      "stateMutability": "payable",
      "type": "function"
    },
    {
      "inputs": [
        {
          "internalType": "uint256",
          "name": "wad",
          "type": "uint256"
        }
      ],
      "name": "withdraw",
      "outputs": [],
      "stateMutability": "nonpayable",
      "type": "function"
    },
    {
      "inputs": [],
      "name": "totalSupply",
      "outputs": [
        {
          "internalType": "uint256",
          "name": "",
          "type": "uint256"
        }
      ],
      "stateMutability": "view",
      "type": "function"
    }
  ],
  "bytecode": "0x60806040526040518060400160405280600381526020017f3f3f3f000000000000000000000000000000000000000000000000000000000081525060039080519060200190620000519291906200018e565b506040518060400160405280600381526020017f3f3f3f0000000000000000000000000000000000000000000000000000000000815250600490805190602001906200009f9291906200018e565b506012600560006101000a81548160ff021916908360ff160217905550348015620000c957600080fd5b506040518060400160405280600d81526020017f57726170706564204574686572000000000000000000000000000000000000008152506040518060400160405280600481526020017f574554480000000000000000000000000000000000000000000000000000000081525060128260039080519060200190620001509291906200018e565b508160049080519060200190620001699291906200018e565b5080600560006101000a81548160ff021916908360ff160217905550505050620002a3565b8280546200019c906200023e565b90600052602060002090601f016020900481019282620001c057600085556200020c565b82601f10620001db57805160ff19168380011785556200020c565b828001600101855582156200020c579182015b828111156200020b578251825591602001919060010190620001ee565b5b5090506200021b91906200021f565b5090565b5b808211156200023a57600081600090555060010162000220565b5090565b600060028204905060018216806200025757607f821691505b602082108114156200026e576200026d62000274565b5b50919050565b7f4e487b7100000000000000000000000000000000000000000000000000000000600052602260045260246000fd5b6110d080620002b36000396000f3fe6080604052600436106100a05760003560e01c8063313ce56711610064578063313ce567146101ad57806370a08231146101d857806395d89b4114610215578063a9059cbb14610240578063d0e30db01461027d578063dd62ed3e14610287576100af565b806306fdde03146100b4578063095ea7b3146100df57806318160ddd1461011c57806323b872dd146101475780632e1a7d4d14610184576100af565b366100af576100ad6102c4565b005b600080fd5b3480156100c057600080fd5b506100c961036a565b6040516100d69190610de5565b60405180910390f35b3480156100eb57600080fd5b5061010660048036038101906101019190610c3f565b6103f8565b6040516101139190610dca565b60405180910390f35b34801561012857600080fd5b5061013161040d565b60405161013e9190610e67565b60405180910390f35b34801561015357600080fd5b5061016e60048036038101906101699190610bf0565b610415565b60405161017b9190610dca565b60405180910390f35b34801561019057600080fd5b506101ab60048036038101906101a69190610c7b565b610436565b005b3480156101b957600080fd5b506101c26105a6565b6040516101cf9190610e82565b60405180910390f35b3480156101e457600080fd5b506101ff60048036038101906101fa9190610b8b565b6105b9565b60405161020c9190610e67565b60405180910390f35b34801561022157600080fd5b5061022a610602565b6040516102379190610de5565b60405180910390f35b34801561024c57600080fd5b5061026760048036038101906102629190610c3f565b610690565b6040516102749190610dca565b60405180910390f35b6102856102c4565b005b34801561029357600080fd5b506102ae60048036038101906102a99190610bb4565b6106a5565b6040516102bb9190610e67565b60405180910390f35b34600160003373ffffffffffffffffffffffffffffffffffffffff1673ffffffffffffffffffffffffffffffffffffffff16815260200190815260200160002060008282546103139190610eb9565b925050819055503373ffffffffffffffffffffffffffffffffffffffff167fe1fffcc4923d04b559f4d29a8bfc6cda04eb5b0d3c460751c2402c5c5cc9109c346040516103609190610e67565b60405180910390a2565b6003805461037790610fcb565b80601f01602080910402602001604051908101604052809291908181526020018280546103a390610fcb565b80156103f05780601f106103c5576101008083540402835291602001916103f0565b820191906000526020600020905b8154815290600101906020018083116103d357829003601f168201915b505050505081565b600061040533848461072c565b905092915050565b600047905090565b6000610421848361081f565b5061042d84848461095a565b90509392505050565b80600160003373ffffffffffffffffffffffffffffffffffffffff1673ffffffffffffffffffffffffffffffffffffffff1681526020019081526020016000205410156104b8576040517f08c379a00000000000000000000000000000000000000000000000000000000081526004016104af90610e47565b60405180910390fd5b80600160003373ffffffffffffffffffffffffffffffffffffffff1673ffffffffffffffffffffffffffffffffffffffff16815260200190815260200160002060008282546105079190610f0f565b925050819055503373ffffffffffffffffffffffffffffffffffffffff166108fc829081150290604051600060405180830381858888f19350505050158015610554573d6000803e3d6000fd5b503373ffffffffffffffffffffffffffffffffffffffff167f7fcf532c15f0a6db0bd6d0e038bea71d30d808c7d98cb3bf7268a95bf5081b658260405161059b9190610e67565b60405180910390a250565b600560009054906101000a900460ff1681565b6000600160008373ffffffffffffffffffffffffffffffffffffffff1673ffffffffffffffffffffffffffffffffffffffff168152602001908152602001600020549050919050565b6004805461060f90610fcb565b80601f016020809104026020016040519081016040528092919081815260200182805461063b90610fcb565b80156106885780601f1061065d57610100808354040283529160200191610688565b820191906000526020600020905b81548152906001019060200180831161066b57829003601f168201915b505050505081565b600061069d33848461095a565b905092915050565b6000600260008473ffffffffffffffffffffffffffffffffffffffff1673ffffffffffffffffffffffffffffffffffffffff16815260200190815260200160002060008373ffffffffffffffffffffffffffffffffffffffff1673ffffffffffffffffffffffffffffffffffffffff16815260200190815260200160002054905092915050565b600081600260008673ffffffffffffffffffffffffffffffffffffffff1673ffffffffffffffffffffffffffffffffffffffff16815260200190815260200160002060008573ffffffffffffffffffffffffffffffffffffffff1673ffffffffffffffffffffffffffffffffffffffff168152602001908152602001600020819055508273ffffffffffffffffffffffffffffffffffffffff168473ffffffffffffffffffffffffffffffffffffffff167f8c5be1e5ebec7d5bd14f71427d1e84f3dd0314c0f7b2291e5b200ac8c7c3b9258460405161080c9190610e67565b60405180910390a3600190509392505050565b60003373ffffffffffffffffffffffffffffffffffffffff168373ffffffffffffffffffffffffffffffffffffffff1614610950576000600260008573ffffffffffffffffffffffffffffffffffffffff1673ffffffffffffffffffffffffffffffffffffffff16815260200190815260200160002060003373ffffffffffffffffffffffffffffffffffffffff1673ffffffffffffffffffffffffffffffffffffffff1681526020019081526020016000205490507fffffffffffffffffffffffffffffffffffffffffffffffffffffffffffffffff811461094e578281101561093f576040517f08c379a000000000000000000000000000000000000000000000000000000000815260040161093690610e07565b60405180910390fd5b61094c843385840361072c565b505b505b6001905092915050565b600081600160008673ffffffffffffffffffffffffffffffffffffffff1673ffffffffffffffffffffffffffffffffffffffff1681526020019081526020016000205410156109de576040517f08c379a00000000000000000000000000000000000000000000000000000000081526004016109d590610e27565b60405180910390fd5b81600160008673ffffffffffffffffffffffffffffffffffffffff1673ffffffffffffffffffffffffffffffffffffffff1681526020019081526020016000205403600160008673ffffffffffffffffffffffffffffffffffffffff1673ffffffffffffffffffffffffffffffffffffffff1681526020019081526020016000208190555081600160008573ffffffffffffffffffffffffffffffffffffffff1673ffffffffffffffffffffffffffffffffffffffff16815260200190815260200160002054610aae9190610eb9565b600160008573ffffffffffffffffffffffffffffffffffffffff1673ffffffffffffffffffffffffffffffffffffffff168152602001908152602001600020819055508273ffffffffffffffffffffffffffffffffffffffff168473ffffffffffffffffffffffffffffffffffffffff167fddf252ad1be2c89b69c2b068fc378daa952ba7f163c4a11628f55a4df523b3ef84604051610b4e9190610e67565b60405180910390a3600190509392505050565b600081359050610b708161106c565b92915050565b600081359050610b8581611083565b92915050565b600060208284031215610b9d57600080fd5b6000610bab84828501610b61565b91505092915050565b60008060408385031215610bc757600080fd5b6000610bd585828601610b61565b9250506020610be685828601610b61565b9150509250929050565b600080600060608486031215610c0557600080fd5b6000610c1386828701610b61565b9350506020610c2486828701610b61565b9250506040610c3586828701610b76565b9150509250925092565b60008060408385031215610c5257600080fd5b6000610c6085828601610b61565b9250506020610c7185828601610b76565b9150509250929050565b600060208284031215610c8d57600080fd5b6000610c9b84828501610b76565b91505092915050565b610cad81610f55565b82525050565b6000610cbe82610e9d565b610cc88185610ea8565b9350610cd8818560208601610f98565b610ce18161105b565b840191505092915050565b6000610cf9601c83610ea8565b91507f45524332303a20496e73756666696369656e7420617070726f76616c000000006000830152602082019050919050565b6000610d39601b83610ea8565b91507f45524332303a20496e73756666696369656e742062616c616e636500000000006000830152602082019050919050565b6000610d79601b83610ea8565b91507f57455448393a20496e73756666696369656e742062616c616e636500000000006000830152602082019050919050565b610db581610f81565b82525050565b610dc481610f8b565b82525050565b6000602082019050610ddf6000830184610ca4565b92915050565b60006020820190508181036000830152610dff8184610cb3565b905092915050565b60006020820190508181036000830152610e2081610cec565b9050919050565b60006020820190508181036000830152610e4081610d2c565b9050919050565b60006020820190508181036000830152610e6081610d6c565b9050919050565b6000602082019050610e7c6000830184610dac565b92915050565b6000602082019050610e976000830184610dbb565b92915050565b600081519050919050565b600082825260208201905092915050565b6000610ec482610f81565b9150610ecf83610f81565b9250827fffffffffffffffffffffffffffffffffffffffffffffffffffffffffffffffff03821115610f0457610f03610ffd565b5b828201905092915050565b6000610f1a82610f81565b9150610f2583610f81565b925082821015610f3857610f37610ffd565b5b828203905092915050565b6000610f4e82610f61565b9050919050565b60008115159050919050565b600073ffffffffffffffffffffffffffffffffffffffff82169050919050565b6000819050919050565b600060ff82169050919050565b60005b83811015610fb6578082015181840152602081019050610f9b565b83811115610fc5576000848401525b50505050565b60006002820490506001821680610fe357607f821691505b60208210811415610ff757610ff661102c565b5b50919050565b7f4e487b7100000000000000000000000000000000000000000000000000000000600052601160045260246000fd5b7f4e487b7100000000000000000000000000000000000000000000000000000000600052602260045260246000fd5b6000601f19601f8301169050919050565b61107581610f43565b811461108057600080fd5b50565b61108c81610f81565b811461109757600080fd5b5056fea264697066735822122069355469fe992581625e56c2fccf603bf8fad30eda554fa3d8f5f77c06c6172c64736f6c63430008000033",
  "immutableReferences": {},
  "source": "// SPDX-License-Identifier: MIT\nimport \"../token/ERC20.sol\";\n\npragma solidity ^0.8.0;\n\n\ncontract WETH9Mock is ERC20 {\n    event  Deposit(address indexed dst, uint wad);\n    event  Withdrawal(address indexed src, uint wad);\n\n    constructor () ERC20(\"Wrapped Ether\", \"WETH\", 18) { }\n\n    receive() external payable {\n        deposit();\n    }\n\n    function deposit() public payable {\n        _balanceOf[msg.sender] += msg.value;\n        emit Deposit(msg.sender, msg.value);\n    }\n\n    function withdraw(uint wad) public {\n        require(_balanceOf[msg.sender] >= wad, \"WETH9: Insufficient balance\");\n        _balanceOf[msg.sender] -= wad;\n        payable(msg.sender).transfer(wad);\n        emit Withdrawal(msg.sender, wad);\n    }\n\n    function totalSupply() public view override returns (uint) {\n        return address(this).balance;\n    }\n}",
  "sourcePath": "/home/vladimirdjukic/Documents/staked/tokens/contracts/yields-utils-v2/mocks/WETH9Mock.sol",
  "compiler": {
    "name": "solc",
    "version": "0.8.0+commit.c7dfd78e.Emscripten.clang"
  },
  "schemaVersion": "3.4.3",
  "updatedAt": "2021-08-29T11:51:08.990Z",
  "devdoc": {
    "kind": "dev",
    "methods": {
      "allowance(address,address)": {
        "details": "See {IERC20-allowance}."
      },
      "approve(address,uint256)": {
        "details": "See {IERC20-approve}."
      },
      "balanceOf(address)": {
        "details": "See {IERC20-balanceOf}."
      },
      "totalSupply()": {
        "details": "See {IERC20-totalSupply}."
      },
      "transfer(address,uint256)": {
        "details": "See {IERC20-transfer}. Requirements: - the caller must have a balance of at least `wad`."
      }
    },
    "version": 1
  },
  "userdoc": {
    "kind": "user",
    "methods": {
      "transferFrom(address,address,uint256)": {
        "notice": "if_succeeds {:msg \"TransferFrom - decrease allowance\"} msg.sender != src ==> old(_allowance[src][msg.sender]) >= wad;"
      }
    },
    "version": 1
  }
}